{"contracts/PollFactory.sol":{"PollFactory":{"abi":[{"anonymous":false,"inputs":[{"indexed":true,"internalType":"uint256","name":"pollCount","type":"uint256"}],"name":"pollCreated","type":"event"},{"inputs":[{"internalType":"string[]","name":"titleDesc_","type":"string[]"},{"internalType":"uint256[]","name":"startEnd_","type":"uint256[]"},{"components":[{"internalType":"uint8","name":"id","type":"uint8"},{"internalType":"string","name":"text","type":"string"},{"components":[{"internalType":"uint8","name":"id","type":"uint8"},{"internalType":"string","name":"text","type":"string"}],"internalType":"struct PollData.Option_[]","name":"options","type":"tuple[]"}],"internalType":"struct PollData.Category_[]","name":"categories_","type":"tuple[]"},{"internalType":"address[]","name":"participation_","type":"address[]"}],"name":"createPoll","outputs":[],"stateMutability":"nonpayable","type":"function"},{"inputs":[],"name":"currentTime","outputs":[{"internalType":"uint256","name":"","type":"uint256"}],"stateMutability":"view","type":"function"},{"inputs":[{"internalType":"uint256","name":"pollId","type":"uint256"},{"internalType":"uint8","name":"n","type":"uint8"}],"name":"fetchPolls","outputs":[{"components":[{"internalType":"string[]","name":"titleDesc","type":"string[]"},{"internalType":"uint256[]","name":"startEnd","type":"uint256[]"},{"internalType":"uint256","name":"creationTime","type":"uint256"},{"internalType":"enum PollData.PollStatus","name":"pollStatus","type":"uint8"},{"internalType":"uint256","name":"votes","type":"uint256"},{"internalType":"bool","name":"isOpen","type":"bool"},{"internalType":"bool","name":"isEligible","type":"bool"},{"internalType":"uint256","name":"pollId","type":"uint256"}],"internalType":"struct PollData.QueryResult[]","name":"","type":"tuple[]"}],"stateMutability":"view","type":"function"},{"inputs":[{"internalType":"uint256","name":"pollId","type":"uint256"}],"name":"getPollAddress","outputs":[{"internalType":"address","name":"","type":"address"}],"stateMutability":"view","type":"function"},{"inputs":[],"name":"getPollCount","outputs":[{"internalType":"uint256","name":"","type":"uint256"}],"stateMutability":"view","type":"function"},{"inputs":[{"internalType":"uint256[]","name":"_startEnd","type":"uint256[]"}],"name":"pollStatus","outputs":[{"internalType":"enum PollData.PollStatus","name":"","type":"uint8"}],"stateMutability":"view","type":"function"},{"inputs":[{"internalType":"uint256","name":"pollId","type":"uint256"}],"name":"queryPoll","outputs":[{"components":[{"internalType":"string[]","name":"titleDesc","type":"string[]"},{"internalType":"uint256[]","name":"startEnd","type":"uint256[]"},{"internalType":"uint256","name":"creationTime","type":"uint256"},{"internalType":"enum PollData.PollStatus","name":"pollStatus","type":"uint8"},{"internalType":"uint256","name":"votes","type":"uint256"},{"internalType":"bool","name":"isOpen","type":"bool"},{"internalType":"bool","name":"isEligible","type":"bool"},{"internalType":"uint256","name":"pollId","type":"uint256"}],"internalType":"struct PollData.QueryResult","name":"","type":"tuple"}],"stateMutability":"view","type":"function"}],"evm":{"bytecode":{"linkReferences":{},"object":"608060405234801561001057600080fd5b5061542a806100206000396000f3fe60806040523480156200001157600080fd5b5060043610620000885760003560e01c80638fe97fa711620000635780638fe97fa7146200011b578063d18e81b3146200013b578063d81cf6c8146200015d578063d83aba6114620001935762000088565b806311a52746146200008d5780632b01737f14620000af5780637769f5e714620000e5575b600080fd5b62000097620001c9565b604051620000a6919062000987565b60405180910390f35b620000cd6004803603810190620000c7919062000a27565b620001dc565b604051620000dc919062000ee4565b60405180910390f35b620001036004803603810190620000fd91906200106c565b620002a9565b604051620001129190620010ce565b60405180910390f35b62000139600480360381019062000133919062001702565b62000355565b005b6200014562000447565b60405162000154919062000987565b60405180910390f35b6200017b6004803603810190620001759190620017f0565b6200044f565b6040516200018a9190620018e9565b60405180910390f35b620001b16004803603810190620001ab9190620017f0565b620006b0565b604051620001c091906200191e565b60405180910390f35b6000620001d76000620008dc565b905090565b606060008260ff1667ffffffffffffffff8111156200020057620001ff62000f0d565b5b6040519080825280602002602001820160405280156200023d57816020015b6200022962000900565b8152602001906001900390816200021f5790505b50905060005b8360ff168110156200029e576200026781866200026191906200196a565b6200044f565b8282815181106200027d576200027c620019a5565b5b602002602001018190525080806200029590620019d4565b91505062000243565b508091505092915050565b60008082511415620002bf576001905062000350565b81600081518110620002d657620002d5620019a5565b5b6020026020010151421015620002f0576000905062000350565b81600081518110620003075762000306620019a5565b5b6020026020010151421180156200033b57508160018151811062000330576200032f620019a5565b5b602002602001015142105b156200034b576001905062000350565b600290505b919050565b620003616000620008ea565b6200036d6000620008dc565b848484846040516200037f906200095e565b6200038f95949392919062001e4c565b604051809103906000f080158015620003ac573d6000803e3d6000fd5b5060016000620003bd6000620008dc565b815260200190815260200160002060006101000a81548173ffffffffffffffffffffffffffffffffffffffff021916908373ffffffffffffffffffffffffffffffffffffffff160217905550620004156000620008dc565b7f3e8e3d753052c785eaa664810323ba37e786d5e5f11716c0767824c6ad6b8bf460405160405180910390a250505050565b600042905090565b6200045962000900565b620004656000620008dc565b821115620004aa576040517f08c379a0000000000000000000000000000000000000000000000000000000008152600401620004a19062001f26565b60405180910390fd5b6000806000806000806001600089815260200190815260200160002060009054906101000a900473ffffffffffffffffffffffffffffffffffffffff1673ffffffffffffffffffffffffffffffffffffffff166395084c6f6040518163ffffffff1660e01b815260040160006040518083038186803b1580156200052d57600080fd5b505afa15801562000542573d6000803e3d6000fd5b505050506040513d6000823e3d601f19601f820116820180604052508101906200056d91906200217d565b9550955095509550955095506000600160008a815260200190815260200160002060009054906101000a900473ffffffffffffffffffffffffffffffffffffffff1673ffffffffffffffffffffffffffffffffffffffff166366e305fd336040518263ffffffff1660e01b8152600401620005e991906200191e565b60206040518083038186803b1580156200060257600080fd5b505afa15801562000617573d6000803e3d6000fd5b505050506040513d601f19601f820116820180604052508101906200063d919062002257565b905060006200064c87620002a9565b905060405180610100016040528089815260200188815260200187815260200182600281111562000682576200068162000cdc565b5b8152602001868152602001851515815260200183151581526020018481525098505050505050505050919050565b60006001600083815260200190815260200160002060009054906101000a900473ffffffffffffffffffffffffffffffffffffffff1673ffffffffffffffffffffffffffffffffffffffff166366e305fd336040518263ffffffff1660e01b81526004016200072091906200191e565b60206040518083038186803b1580156200073957600080fd5b505afa1580156200074e573d6000803e3d6000fd5b505050506040513d601f19601f8201168201806040525081019062000774919062002257565b806200085f57506001600083815260200190815260200160002060009054906101000a900473ffffffffffffffffffffffffffffffffffffffff1673ffffffffffffffffffffffffffffffffffffffff16638da5cb5b6040518163ffffffff1660e01b815260040160206040518083038186803b158015620007f557600080fd5b505afa1580156200080a573d6000803e3d6000fd5b505050506040513d601f19601f82011682018060405250810190620008309190620022a0565b73ffffffffffffffffffffffffffffffffffffffff163373ffffffffffffffffffffffffffffffffffffffff16145b620008a1576040517f08c379a0000000000000000000000000000000000000000000000000000000008152600401620008989062002348565b60405180910390fd5b6001600083815260200190815260200160002060009054906101000a900473ffffffffffffffffffffffffffffffffffffffff169050919050565b600081600001549050919050565b6001816000016000828254019250508190555050565b6040518061010001604052806060815260200160608152602001600081526020016000600281111562000938576200093762000cdc565b5b815260200160008152602001600015158152602001600015158152602001600081525090565b61308a806200236b83390190565b6000819050919050565b62000981816200096c565b82525050565b60006020820190506200099e600083018462000976565b92915050565b6000604051905090565b600080fd5b600080fd5b620009c3816200096c565b8114620009cf57600080fd5b50565b600081359050620009e381620009b8565b92915050565b600060ff82169050919050565b62000a0181620009e9565b811462000a0d57600080fd5b50565b60008135905062000a2181620009f6565b92915050565b6000806040838503121562000a415762000a40620009ae565b5b600062000a5185828601620009d2565b925050602062000a648582860162000a10565b9150509250929050565b600081519050919050565b600082825260208201905092915050565b6000819050602082019050919050565b600081519050919050565b600082825260208201905092915050565b6000819050602082019050919050565b600081519050919050565b600082825260208201905092915050565b60005b8381101562000b0257808201518184015260208101905062000ae5565b8381111562000b12576000848401525b50505050565b6000601f19601f8301169050919050565b600062000b368262000ac6565b62000b42818562000ad1565b935062000b5481856020860162000ae2565b62000b5f8162000b18565b840191505092915050565b600062000b78838362000b29565b905092915050565b6000602082019050919050565b600062000b9a8262000a9a565b62000ba6818562000aa5565b93508360208202850162000bba8562000ab6565b8060005b8581101562000bfc578484038952815162000bda858262000b6a565b945062000be78362000b80565b925060208a0199505060018101905062000bbe565b50829750879550505050505092915050565b600081519050919050565b600082825260208201905092915050565b6000819050602082019050919050565b62000c45816200096c565b82525050565b600062000c59838362000c3a565b60208301905092915050565b6000602082019050919050565b600062000c7f8262000c0e565b62000c8b818562000c19565b935062000c988362000c2a565b8060005b8381101562000ccf57815162000cb3888262000c4b565b975062000cc08362000c65565b92505060018101905062000c9c565b5085935050505092915050565b7f4e487b7100000000000000000000000000000000000000000000000000000000600052602160045260246000fd5b6003811062000d1f5762000d1e62000cdc565b5b50565b600081905062000d328262000d0b565b919050565b600062000d448262000d22565b9050919050565b62000d568162000d37565b82525050565b60008115159050919050565b62000d738162000d5c565b82525050565b600061010083016000830151848203600086015262000d99828262000b8d565b9150506020830151848203602086015262000db5828262000c72565b915050604083015162000dcc604086018262000c3a565b50606083015162000de1606086018262000d4b565b50608083015162000df6608086018262000c3a565b5060a083015162000e0b60a086018262000d68565b5060c083015162000e2060c086018262000d68565b5060e083015162000e3560e086018262000c3a565b508091505092915050565b600062000e4e838362000d79565b905092915050565b6000602082019050919050565b600062000e708262000a6e565b62000e7c818562000a79565b93508360208202850162000e908562000a8a565b8060005b8581101562000ed2578484038952815162000eb0858262000e40565b945062000ebd8362000e56565b925060208a0199505060018101905062000e94565b50829750879550505050505092915050565b6000602082019050818103600083015262000f00818462000e63565b905092915050565b600080fd5b7f4e487b7100000000000000000000000000000000000000000000000000000000600052604160045260246000fd5b62000f478262000b18565b810181811067ffffffffffffffff8211171562000f695762000f6862000f0d565b5b80604052505050565b600062000f7e620009a4565b905062000f8c828262000f3c565b919050565b600067ffffffffffffffff82111562000faf5762000fae62000f0d565b5b602082029050602081019050919050565b600080fd5b600062000fdc62000fd68462000f91565b62000f72565b9050808382526020820190506020840283018581111562001002576200100162000fc0565b5b835b818110156200102f57806200101a8882620009d2565b84526020840193505060208101905062001004565b5050509392505050565b600082601f83011262001051576200105062000f08565b5b81356200106384826020860162000fc5565b91505092915050565b600060208284031215620010855762001084620009ae565b5b600082013567ffffffffffffffff811115620010a657620010a5620009b3565b5b620010b48482850162001039565b91505092915050565b620010c88162000d37565b82525050565b6000602082019050620010e56000830184620010bd565b92915050565b600067ffffffffffffffff82111562001109576200110862000f0d565b5b602082029050602081019050919050565b600080fd5b600067ffffffffffffffff8211156200113d576200113c62000f0d565b5b620011488262000b18565b9050602081019050919050565b82818337600083830152505050565b60006200117b62001175846200111f565b62000f72565b9050828152602081018484840111156200119a57620011996200111a565b5b620011a784828562001155565b509392505050565b600082601f830112620011c757620011c662000f08565b5b8135620011d984826020860162001164565b91505092915050565b6000620011f9620011f384620010eb565b62000f72565b905080838252602082019050602084028301858111156200121f576200121e62000fc0565b5b835b818110156200126d57803567ffffffffffffffff81111562001248576200124762000f08565b5b808601620012578982620011af565b8552602085019450505060208101905062001221565b5050509392505050565b600082601f8301126200128f576200128e62000f08565b5b8135620012a1848260208601620011e2565b91505092915050565b600067ffffffffffffffff821115620012c857620012c762000f0d565b5b602082029050602081019050919050565b600080fd5b600080fd5b600067ffffffffffffffff82111562001301576200130062000f0d565b5b602082029050602081019050919050565b6000604082840312156200132b576200132a620012d9565b5b62001337604062000f72565b90506000620013498482850162000a10565b600083015250602082013567ffffffffffffffff81111562001370576200136f620012de565b5b6200137e84828501620011af565b60208301525092915050565b6000620013a16200139b84620012e3565b62000f72565b90508083825260208201905060208402830185811115620013c757620013c662000fc0565b5b835b818110156200141557803567ffffffffffffffff811115620013f057620013ef62000f08565b5b808601620013ff898262001312565b85526020850194505050602081019050620013c9565b5050509392505050565b600082601f83011262001437576200143662000f08565b5b8135620014498482602086016200138a565b91505092915050565b6000606082840312156200146b576200146a620012d9565b5b62001477606062000f72565b90506000620014898482850162000a10565b600083015250602082013567ffffffffffffffff811115620014b057620014af620012de565b5b620014be84828501620011af565b602083015250604082013567ffffffffffffffff811115620014e557620014e4620012de565b5b620014f3848285016200141f565b60408301525092915050565b6000620015166200151084620012aa565b62000f72565b905080838252602082019050602084028301858111156200153c576200153b62000fc0565b5b835b818110156200158a57803567ffffffffffffffff81111562001565576200156462000f08565b5b80860162001574898262001452565b855260208501945050506020810190506200153e565b5050509392505050565b600082601f830112620015ac57620015ab62000f08565b5b8135620015be848260208601620014ff565b91505092915050565b600067ffffffffffffffff821115620015e557620015e462000f0d565b5b602082029050602081019050919050565b600073ffffffffffffffffffffffffffffffffffffffff82169050919050565b60006200162382620015f6565b9050919050565b620016358162001616565b81146200164157600080fd5b50565b60008135905062001655816200162a565b92915050565b6000620016726200166c84620015c7565b62000f72565b9050808382526020820190506020840283018581111562001698576200169762000fc0565b5b835b81811015620016c55780620016b0888262001644565b8452602084019350506020810190506200169a565b5050509392505050565b600082601f830112620016e757620016e662000f08565b5b8135620016f98482602086016200165b565b91505092915050565b600080600080608085870312156200171f576200171e620009ae565b5b600085013567ffffffffffffffff81111562001740576200173f620009b3565b5b6200174e8782880162001277565b945050602085013567ffffffffffffffff811115620017725762001771620009b3565b5b620017808782880162001039565b935050604085013567ffffffffffffffff811115620017a457620017a3620009b3565b5b620017b28782880162001594565b925050606085013567ffffffffffffffff811115620017d657620017d5620009b3565b5b620017e487828801620016cf565b91505092959194509250565b600060208284031215620018095762001808620009ae565b5b60006200181984828501620009d2565b91505092915050565b600061010083016000830151848203600086015262001842828262000b8d565b915050602083015184820360208601526200185e828262000c72565b915050604083015162001875604086018262000c3a565b5060608301516200188a606086018262000d4b565b5060808301516200189f608086018262000c3a565b5060a0830151620018b460a086018262000d68565b5060c0830151620018c960c086018262000d68565b5060e0830151620018de60e086018262000c3a565b508091505092915050565b6000602082019050818103600083015262001905818462001822565b905092915050565b620019188162001616565b82525050565b60006020820190506200193560008301846200190d565b92915050565b7f4e487b7100000000000000000000000000000000000000000000000000000000600052601160045260246000fd5b600062001977826200096c565b915062001984836200096c565b9250828210156200199a57620019996200193b565b5b828203905092915050565b7f4e487b7100000000000000000000000000000000000000000000000000000000600052603260045260246000fd5b6000620019e1826200096c565b91507fffffffffffffffffffffffffffffffffffffffffffffffffffffffffffffffff82141562001a175762001a166200193b565b5b600182019050919050565b600082825260208201905092915050565b600062001a408262000a9a565b62001a4c818562001a22565b93508360208202850162001a608562000ab6565b8060005b8581101562001aa2578484038952815162001a80858262000b6a565b945062001a8d8362000b80565b925060208a0199505060018101905062001a64565b50829750879550505050505092915050565b600082825260208201905092915050565b600062001ad28262000c0e565b62001ade818562001ab4565b935062001aeb8362000c2a565b8060005b8381101562001b2257815162001b06888262000c4b565b975062001b138362000c65565b92505060018101905062001aef565b5085935050505092915050565b600081519050919050565b600082825260208201905092915050565b6000819050602082019050919050565b62001b6681620009e9565b82525050565b600081519050919050565b600082825260208201905092915050565b6000819050602082019050919050565b600060408301600083015162001bb2600086018262001b5b565b506020830151848203602086015262001bcc828262000b29565b9150508091505092915050565b600062001be7838362001b98565b905092915050565b6000602082019050919050565b600062001c098262001b6c565b62001c15818562001b77565b93508360208202850162001c298562001b88565b8060005b8581101562001c6b578484038952815162001c49858262001bd9565b945062001c568362001bef565b925060208a0199505060018101905062001c2d565b50829750879550505050505092915050565b600060608301600083015162001c97600086018262001b5b565b506020830151848203602086015262001cb1828262000b29565b9150506040830151848203604086015262001ccd828262001bfc565b9150508091505092915050565b600062001ce8838362001c7d565b905092915050565b6000602082019050919050565b600062001d0a8262001b2f565b62001d16818562001b3a565b93508360208202850162001d2a8562001b4b565b8060005b8581101562001d6c578484038952815162001d4a858262001cda565b945062001d578362001cf0565b925060208a0199505060018101905062001d2e565b50829750879550505050505092915050565b600081519050919050565b600082825260208201905092915050565b6000819050602082019050919050565b62001db58162001616565b82525050565b600062001dc9838362001daa565b60208301905092915050565b6000602082019050919050565b600062001def8262001d7e565b62001dfb818562001d89565b935062001e088362001d9a565b8060005b8381101562001e3f57815162001e23888262001dbb565b975062001e308362001dd5565b92505060018101905062001e0c565b5085935050505092915050565b600060a08201905062001e63600083018862000976565b818103602083015262001e77818762001a33565b9050818103604083015262001e8d818662001ac5565b9050818103606083015262001ea3818562001cfd565b9050818103608083015262001eb9818462001de2565b90509695505050505050565b600082825260208201905092915050565b7f506f6c6c20646f65736e27742065786973742100000000000000000000000000600082015250565b600062001f0e60138362001ec5565b915062001f1b8262001ed6565b602082019050919050565b6000602082019050818103600083015262001f418162001eff565b9050919050565b600062001f5f62001f59846200111f565b62000f72565b90508281526020810184848401111562001f7e5762001f7d6200111a565b5b62001f8b84828562000ae2565b509392505050565b600082601f83011262001fab5762001faa62000f08565b5b815162001fbd84826020860162001f48565b91505092915050565b600062001fdd62001fd784620010eb565b62000f72565b9050808382526020820190506020840283018581111562002003576200200262000fc0565b5b835b818110156200205157805167ffffffffffffffff8111156200202c576200202b62000f08565b5b8086016200203b898262001f93565b8552602085019450505060208101905062002005565b5050509392505050565b600082601f83011262002073576200207262000f08565b5b81516200208584826020860162001fc6565b91505092915050565b6000815190506200209f81620009b8565b92915050565b6000620020bc620020b68462000f91565b62000f72565b90508083825260208201905060208402830185811115620020e257620020e162000fc0565b5b835b818110156200210f5780620020fa88826200208e565b845260208401935050602081019050620020e4565b5050509392505050565b600082601f83011262002131576200213062000f08565b5b815162002143848260208601620020a5565b91505092915050565b620021578162000d5c565b81146200216357600080fd5b50565b60008151905062002177816200214c565b92915050565b60008060008060008060c087890312156200219d576200219c620009ae565b5b600087015167ffffffffffffffff811115620021be57620021bd620009b3565b5b620021cc89828a016200205b565b965050602087015167ffffffffffffffff811115620021f057620021ef620009b3565b5b620021fe89828a0162002119565b95505060406200221189828a016200208e565b94505060606200222489828a016200208e565b93505060806200223789828a0162002166565b92505060a06200224a89828a016200208e565b9150509295509295509295565b60006020828403121562002270576200226f620009ae565b5b6000620022808482850162002166565b91505092915050565b6000815190506200229a816200162a565b92915050565b600060208284031215620022b957620022b8620009ae565b5b6000620022c98482850162002289565b91505092915050565b7f596f75277265206e6f7420656c696769626c6520666f72207468697320706f6c60008201527f6c21000000000000000000000000000000000000000000000000000000000000602082015250565b60006200233060228362001ec5565b91506200233d82620022d2565b604082019050919050565b60006020820190508181036000830152620023638162002321565b905091905056fe60806040523480156200001157600080fd5b506040516200308a3803806200308a833981810160405281019062000037919062000f5d565b83600790805190602001906200004f929190620004b7565b508260089080519060200190620000689291906200051e565b5080600a60000190805190602001906200008492919062000570565b50620000a081600a6200011860201b62000c141790919060201c565b620000be8260036009620001bd60201b62000cb2179092919060201c565b32600560006101000a81548173ffffffffffffffffffffffffffffffffffffffff021916908373ffffffffffffffffffffffffffffffffffffffff1602179055508460048190555042600681905550505050505062001153565b60005b81518160ff161015620001b8576001836001016000848460ff168151811062000149576200014862001061565b5b602002602001015173ffffffffffffffffffffffffffffffffffffffff1673ffffffffffffffffffffffffffffffffffffffff16815260200190815260200160002060006101000a81548160ff0219169083151502179055508080620001af90620010bf565b9150506200011b565b505050565b60005b82518160ff161015620004b15781600181600181540180825580915050039060005260206000205050836001816001815401808255809150500390600052602060002090505080848260ff168154811062000220576200021f62001061565b5b906000526020600020906003020160000160006101000a81548160ff021916908360ff160217905550828160ff168151811062000262576200026162001061565b5b602002602001015160200151848260ff168154811062000287576200028662001061565b5b90600052602060002090600302016001019080519060200190620002ad929190620005ff565b5060005b838260ff1681518110620002ca57620002c962001061565b5b602002602001015160400151518160ff1610156200049a57828260ff1681548110620002fb57620002fa62001061565b5b90600052602060002001600181600181540180825580915050039060005260206000205050848260ff168154811062000339576200033862001061565b5b90600052602060002090600302016002016001816001815401808255809150500390600052602060002090505080858360ff168154811062000380576200037f62001061565b5b90600052602060002090600302016002018260ff1681548110620003a957620003a862001061565b5b906000526020600020906002020160000160006101000a81548160ff021916908360ff160217905550838260ff1681518110620003eb57620003ea62001061565b5b6020026020010151604001518160ff16815181106200040f576200040e62001061565b5b602002602001015160200151858360ff168154811062000434576200043362001061565b5b90600052602060002090600302016002018260ff16815481106200045d576200045c62001061565b5b9060005260206000209060020201600101908051906020019062000483929190620005ff565b5080806200049190620010bf565b915050620002b1565b508080620004a890620010bf565b915050620001c0565b50505050565b8280548282559060005260206000209081019282156200050b579160200282015b828111156200050a578251829080519060200190620004f9929190620005ff565b5091602001919060010190620004d8565b5b5090506200051a919062000690565b5090565b8280548282559060005260206000209081019282156200055d579160200282015b828111156200055c5782518255916020019190600101906200053f565b5b5090506200056c9190620006b8565b5090565b828054828255906000526020600020908101928215620005ec579160200282015b82811115620005eb5782518260006101000a81548173ffffffffffffffffffffffffffffffffffffffff021916908373ffffffffffffffffffffffffffffffffffffffff1602179055509160200191906001019062000591565b5b509050620005fb9190620006b8565b5090565b8280546200060d906200111d565b90600052602060002090601f0160209004810192826200063157600085556200067d565b82601f106200064c57805160ff19168380011785556200067d565b828001600101855582156200067d579182015b828111156200067c5782518255916020019190600101906200065f565b5b5090506200068c9190620006b8565b5090565b5b80821115620006b45760008181620006aa9190620006d7565b5060010162000691565b5090565b5b80821115620006d3576000816000905550600101620006b9565b5090565b508054620006e5906200111d565b6000825580601f10620006f957506200071a565b601f016020900490600052602060002090810190620007199190620006b8565b5b50565b6000604051905090565b600080fd5b600080fd5b6000819050919050565b620007468162000731565b81146200075257600080fd5b50565b60008151905062000766816200073b565b92915050565b600080fd5b6000601f19601f8301169050919050565b7f4e487b7100000000000000000000000000000000000000000000000000000000600052604160045260246000fd5b620007bc8262000771565b810181811067ffffffffffffffff82111715620007de57620007dd62000782565b5b80604052505050565b6000620007f36200071d565b9050620008018282620007b1565b919050565b600067ffffffffffffffff82111562000824576200082362000782565b5b602082029050602081019050919050565b600080fd5b600080fd5b600067ffffffffffffffff8211156200085d576200085c62000782565b5b620008688262000771565b9050602081019050919050565b60005b838110156200089557808201518184015260208101905062000878565b83811115620008a5576000848401525b50505050565b6000620008c2620008bc846200083f565b620007e7565b905082815260208101848484011115620008e157620008e06200083a565b5b620008ee84828562000875565b509392505050565b600082601f8301126200090e576200090d6200076c565b5b815162000920848260208601620008ab565b91505092915050565b6000620009406200093a8462000806565b620007e7565b9050808382526020820190506020840283018581111562000966576200096562000835565b5b835b81811015620009b457805167ffffffffffffffff8111156200098f576200098e6200076c565b5b8086016200099e8982620008f6565b8552602085019450505060208101905062000968565b5050509392505050565b600082601f830112620009d657620009d56200076c565b5b8151620009e884826020860162000929565b91505092915050565b600067ffffffffffffffff82111562000a0f5762000a0e62000782565b5b602082029050602081019050919050565b600062000a3762000a3184620009f1565b620007e7565b9050808382526020820190506020840283018581111562000a5d5762000a5c62000835565b5b835b8181101562000a8a578062000a75888262000755565b84526020840193505060208101905062000a5f565b5050509392505050565b600082601f83011262000aac5762000aab6200076c565b5b815162000abe84826020860162000a20565b91505092915050565b600067ffffffffffffffff82111562000ae55762000ae462000782565b5b602082029050602081019050919050565b600080fd5b600080fd5b600060ff82169050919050565b62000b188162000b00565b811462000b2457600080fd5b50565b60008151905062000b388162000b0d565b92915050565b600067ffffffffffffffff82111562000b5c5762000b5b62000782565b5b602082029050602081019050919050565b60006040828403121562000b865762000b8562000af6565b5b62000b926040620007e7565b9050600062000ba48482850162000b27565b600083015250602082015167ffffffffffffffff81111562000bcb5762000bca62000afb565b5b62000bd984828501620008f6565b60208301525092915050565b600062000bfc62000bf68462000b3e565b620007e7565b9050808382526020820190506020840283018581111562000c225762000c2162000835565b5b835b8181101562000c7057805167ffffffffffffffff81111562000c4b5762000c4a6200076c565b5b80860162000c5a898262000b6d565b8552602085019450505060208101905062000c24565b5050509392505050565b600082601f83011262000c925762000c916200076c565b5b815162000ca484826020860162000be5565b91505092915050565b60006060828403121562000cc65762000cc562000af6565b5b62000cd26060620007e7565b9050600062000ce48482850162000b27565b600083015250602082015167ffffffffffffffff81111562000d0b5762000d0a62000afb565b5b62000d1984828501620008f6565b602083015250604082015167ffffffffffffffff81111562000d405762000d3f62000afb565b5b62000d4e8482850162000c7a565b60408301525092915050565b600062000d7162000d6b8462000ac7565b620007e7565b9050808382526020820190506020840283018581111562000d975762000d9662000835565b5b835b8181101562000de557805167ffffffffffffffff81111562000dc05762000dbf6200076c565b5b80860162000dcf898262000cad565b8552602085019450505060208101905062000d99565b5050509392505050565b600082601f83011262000e075762000e066200076c565b5b815162000e1984826020860162000d5a565b91505092915050565b600067ffffffffffffffff82111562000e405762000e3f62000782565b5b602082029050602081019050919050565b600073ffffffffffffffffffffffffffffffffffffffff82169050919050565b600062000e7e8262000e51565b9050919050565b62000e908162000e71565b811462000e9c57600080fd5b50565b60008151905062000eb08162000e85565b92915050565b600062000ecd62000ec78462000e22565b620007e7565b9050808382526020820190506020840283018581111562000ef35762000ef262000835565b5b835b8181101562000f20578062000f0b888262000e9f565b84526020840193505060208101905062000ef5565b5050509392505050565b600082601f83011262000f425762000f416200076c565b5b815162000f5484826020860162000eb6565b91505092915050565b600080600080600060a0868803121562000f7c5762000f7b62000727565b5b600062000f8c8882890162000755565b955050602086015167ffffffffffffffff81111562000fb05762000faf6200072c565b5b62000fbe88828901620009be565b945050604086015167ffffffffffffffff81111562000fe25762000fe16200072c565b5b62000ff08882890162000a94565b935050606086015167ffffffffffffffff8111156200101457620010136200072c565b5b620010228882890162000def565b925050608086015167ffffffffffffffff8111156200104657620010456200072c565b5b620010548882890162000f2a565b9150509295509295909350565b7f4e487b7100000000000000000000000000000000000000000000000000000000600052603260045260246000fd5b7f4e487b7100000000000000000000000000000000000000000000000000000000600052601160045260246000fd5b6000620010cc8262000b00565b915060ff821415620010e357620010e262001090565b5b600182019050919050565b7f4e487b7100000000000000000000000000000000000000000000000000000000600052602260045260246000fd5b600060028204905060018216806200113657607f821691505b602082108114156200114d576200114c620010ee565b5b50919050565b611f2780620011636000396000f3fe608060405234801561001057600080fd5b506004361061007d5760003560e01c806372b4ca471161005b57806372b4ca47146100ed5780638da5cb5b1461010c57806395084c6f1461012a578063e7b3387c1461014d5761007d565b8063041cc8ad146100825780631247ab21146100a157806366e305fd146100bd575b600080fd5b61008a61016b565b60405161009892919061135b565b60405180910390f35b6100bb60048036038101906100b691906113fa565b6103bf565b005b6100d760048036038101906100d291906114a5565b6107f2565b6040516100e491906114ed565b60405180910390f35b6100f5610865565b604051610103929190611679565b60405180910390f35b610114610a7b565b60405161012191906116b8565b60405180910390f35b610132610aa1565b60405161014496959493929190611853565b60405180910390f35b610155610c03565b60405161016291906118c2565b60405180910390f35b600060606101796000610f7c565b600980805480602002602001604051908101604052809291908181526020016000905b828210156103b157838290600052602060002090600302016040518060600160405290816000820160009054906101000a900460ff1660ff1660ff1681526020016001820180546101ec9061190c565b80601f01602080910402602001604051908101604052809291908181526020018280546102189061190c565b80156102655780601f1061023a57610100808354040283529160200191610265565b820191906000526020600020905b81548152906001019060200180831161024857829003601f168201915b5050505050815260200160028201805480602002602001604051908101604052809291908181526020016000905b8282101561039a57838290600052602060002090600202016040518060600160405290816000820160009054906101000a900460ff1660ff1660ff1681526020016000820160019054906101000a900463ffffffff1663ffffffff1663ffffffff1681526020016001820180546103099061190c565b80601f01602080910402602001604051908101604052809291908181526020018280546103359061190c565b80156103825780601f1061035757610100808354040283529160200191610382565b820191906000526020600020905b81548152906001019060200180831161036557829003601f168201915b50505050508152505081526020019060010190610293565b50505050815250508152602001906001019061019c565b505050509050915091509091565b6103c8336107f2565b610407576040517f08c379a00000000000000000000000000000000000000000000000000000000081526004016103fe906119c1565b60405180910390fd5b6001600260003373ffffffffffffffffffffffffffffffffffffffff1673ffffffffffffffffffffffffffffffffffffffff16815260200190815260200160002060009054906101000a900460ff1660ff1610610499576040517f08c379a000000000000000000000000000000000000000000000000000000000815260040161049090611a2d565b60405180910390fd5b60006008805490501461056b5760086000815481106104bb576104ba611a4d565b5b9060005260206000200154421015610508576040517f08c379a00000000000000000000000000000000000000000000000000000000081526004016104ff90611ac8565b60405180910390fd5b600860018154811061051d5761051c611a4d565b5b906000526020600020015442111561056a576040517f08c379a000000000000000000000000000000000000000000000000000000000815260040161056190611b34565b60405180910390fd5b5b60005b828290508160ff1610156106c757600160098260ff168154811061059557610594611a4d565b5b906000526020600020906003020160020184848460ff168181106105bc576105bb611a4d565b5b90506020020160208101906105d19190611b80565b60ff16815481106105e5576105e4611a4d565b5b906000526020600020906002020160000160018282829054906101000a900463ffffffff166106149190611bdc565b92506101000a81548163ffffffff021916908363ffffffff160217905550600160038260ff168154811061064b5761064a611a4d565b5b9060005260206000200184848460ff1681811061066b5761066a611a4d565b5b90506020020160208101906106809190611b80565b60ff168154811061069457610693611a4d565b5b9060005260206000200160008282546106ad9190611c16565b9250508190555080806106bf90611c6c565b91505061056e565b506106d26000610f8a565b33600160006106e16000610f7c565b815260200190815260200160002060006101000a81548173ffffffffffffffffffffffffffffffffffffffff021916908373ffffffffffffffffffffffffffffffffffffffff1602179055506001600260003373ffffffffffffffffffffffffffffffffffffffff1673ffffffffffffffffffffffffffffffffffffffff16815260200190815260200160002060008282829054906101000a900460ff166107899190611c96565b92506101000a81548160ff021916908360ff16021790555060036040516107b09190611e7e565b60405180910390206107c26000610f7c565b7fa34806eb7db81f4974fb635be044fa20f916ce557a232e581f2b1a12a65571bc60405160405180910390a35050565b600080600a60000180549050141561080d5760019050610860565b600a60010160008373ffffffffffffffffffffffffffffffffffffffff1673ffffffffffffffffffffffffffffffffffffffff16815260200190815260200160002060009054906101000a900460ff1690505b919050565b60006060600060098054905067ffffffffffffffff81111561088a57610889611e95565b5b6040519080825280602002602001820160405280156108bd57816020015b60608152602001906001900390816108a85790505b50905060005b6009805490508160ff161015610a6657600060098260ff16815481106108ec576108eb611a4d565b5b90600052602060002090600302016002018054905067ffffffffffffffff81111561091a57610919611e95565b5b6040519080825280602002602001820160405280156109485781602001602082028036833780820191505090505b50905060005b60098360ff168154811061096557610964611a4d565b5b9060005260206000209060030201600201805490508163ffffffff161015610a2f5760098360ff168154811061099e5761099d611a4d565b5b90600052602060002090600302016002018163ffffffff16815481106109c7576109c6611a4d565b5b906000526020600020906002020160000160019054906101000a900463ffffffff16828263ffffffff1681518110610a0257610a01611a4d565b5b602002602001019063ffffffff16908163ffffffff16815250508080610a2790611ec4565b91505061094e565b5080838360ff1681518110610a4757610a46611a4d565b5b6020026020010181905250508080610a5e90611c6c565b9150506108c3565b50610a716000610f7c565b8192509250509091565b600560009054906101000a900473ffffffffffffffffffffffffffffffffffffffff1681565b60608060008060008060076008600654610abb6000610f7c565b6000600a600001805490501460045485805480602002602001604051908101604052809291908181526020016000905b82821015610b97578382906000526020600020018054610b0a9061190c565b80601f0160208091040260200160405190810160405280929190818152602001828054610b369061190c565b8015610b835780601f10610b5857610100808354040283529160200191610b83565b820191906000526020600020905b815481529060010190602001808311610b6657829003601f168201915b505050505081526020019060010190610aeb565b50505050955084805480602002602001604051908101604052809291908181526020018280548015610be857602002820191906000526020600020905b815481526020019060010190808311610bd4575b50505050509450955095509550955095509550909192939495565b6000610c0f6000610f7c565b905090565b60005b81518160ff161015610cad576001836001016000848460ff1681518110610c4157610c40611a4d565b5b602002602001015173ffffffffffffffffffffffffffffffffffffffff1673ffffffffffffffffffffffffffffffffffffffff16815260200190815260200160002060006101000a81548160ff0219169083151502179055508080610ca590611c6c565b915050610c17565b505050565b60005b82518160ff161015610f765781600181600181540180825580915050039060005260206000205050836001816001815401808255809150500390600052602060002090505080848260ff1681548110610d1157610d10611a4d565b5b906000526020600020906003020160000160006101000a81548160ff021916908360ff160217905550828160ff1681518110610d5057610d4f611a4d565b5b602002602001015160200151848260ff1681548110610d7257610d71611a4d565b5b90600052602060002090600302016001019080519060200190610d96929190610fa0565b5060005b838260ff1681518110610db057610daf611a4d565b5b602002602001015160400151518160ff161015610f6257828260ff1681548110610ddd57610ddc611a4d565b5b90600052602060002001600181600181540180825580915050039060005260206000205050848260ff1681548110610e1857610e17611a4d565b5b90600052602060002090600302016002016001816001815401808255809150500390600052602060002090505080858360ff1681548110610e5c57610e5b611a4d565b5b90600052602060002090600302016002018260ff1681548110610e8257610e81611a4d565b5b906000526020600020906002020160000160006101000a81548160ff021916908360ff160217905550838260ff1681518110610ec157610ec0611a4d565b5b6020026020010151604001518160ff1681518110610ee257610ee1611a4d565b5b602002602001015160200151858360ff1681548110610f0457610f03611a4d565b5b90600052602060002090600302016002018260ff1681548110610f2a57610f29611a4d565b5b90600052602060002090600202016001019080519060200190610f4e929190610fa0565b508080610f5a90611c6c565b915050610d9a565b508080610f6e90611c6c565b915050610cb5565b50505050565b600081600001549050919050565b6001816000016000828254019250508190555050565b828054610fac9061190c565b90600052602060002090601f016020900481019282610fce5760008555611015565b82601f10610fe757805160ff1916838001178555611015565b82800160010185558215611015579182015b82811115611014578251825591602001919060010190610ff9565b5b5090506110229190611026565b5090565b5b8082111561103f576000816000905550600101611027565b5090565b6000819050919050565b61105681611043565b82525050565b600081519050919050565b600082825260208201905092915050565b6000819050602082019050919050565b600060ff82169050919050565b61109e81611088565b82525050565b600081519050919050565b600082825260208201905092915050565b60005b838110156110de5780820151818401526020810190506110c3565b838111156110ed576000848401525b50505050565b6000601f19601f8301169050919050565b600061110f826110a4565b61111981856110af565b93506111298185602086016110c0565b611132816110f3565b840191505092915050565b600081519050919050565b600082825260208201905092915050565b6000819050602082019050919050565b600063ffffffff82169050919050565b61118281611169565b82525050565b60006060830160008301516111a06000860182611095565b5060208301516111b36020860182611179565b50604083015184820360408601526111cb8282611104565b9150508091505092915050565b60006111e48383611188565b905092915050565b6000602082019050919050565b60006112048261113d565b61120e8185611148565b93508360208202850161122085611159565b8060005b8581101561125c578484038952815161123d85826111d8565b9450611248836111ec565b925060208a01995050600181019050611224565b50829750879550505050505092915050565b60006060830160008301516112866000860182611095565b506020830151848203602086015261129e8282611104565b915050604083015184820360408601526112b882826111f9565b9150508091505092915050565b60006112d1838361126e565b905092915050565b6000602082019050919050565b60006112f18261105c565b6112fb8185611067565b93508360208202850161130d85611078565b8060005b85811015611349578484038952815161132a85826112c5565b9450611335836112d9565b925060208a01995050600181019050611311565b50829750879550505050505092915050565b6000604082019050611370600083018561104d565b818103602083015261138281846112e6565b90509392505050565b600080fd5b600080fd5b600080fd5b600080fd5b600080fd5b60008083601f8401126113ba576113b9611395565b5b8235905067ffffffffffffffff8111156113d7576113d661139a565b5b6020830191508360208202830111156113f3576113f261139f565b5b9250929050565b600080602083850312156114115761141061138b565b5b600083013567ffffffffffffffff81111561142f5761142e611390565b5b61143b858286016113a4565b92509250509250929050565b600073ffffffffffffffffffffffffffffffffffffffff82169050919050565b600061147282611447565b9050919050565b61148281611467565b811461148d57600080fd5b50565b60008135905061149f81611479565b92915050565b6000602082840312156114bb576114ba61138b565b5b60006114c984828501611490565b91505092915050565b60008115159050919050565b6114e7816114d2565b82525050565b600060208201905061150260008301846114de565b92915050565b600081519050919050565b600082825260208201905092915050565b6000819050602082019050919050565b600081519050919050565b600082825260208201905092915050565b6000819050602082019050919050565b600061156c8383611179565b60208301905092915050565b6000602082019050919050565b600061159082611534565b61159a818561153f565b93506115a583611550565b8060005b838110156115d65781516115bd8882611560565b97506115c883611578565b9250506001810190506115a9565b5085935050505092915050565b60006115ef8383611585565b905092915050565b6000602082019050919050565b600061160f82611508565b6116198185611513565b93508360208202850161162b85611524565b8060005b85811015611667578484038952815161164885826115e3565b9450611653836115f7565b925060208a0199505060018101905061162f565b50829750879550505050505092915050565b600060408201905061168e600083018561104d565b81810360208301526116a08184611604565b90509392505050565b6116b281611467565b82525050565b60006020820190506116cd60008301846116a9565b92915050565b600081519050919050565b600082825260208201905092915050565b6000819050602082019050919050565b600061170b8383611104565b905092915050565b6000602082019050919050565b600061172b826116d3565b61173581856116de565b935083602082028501611747856116ef565b8060005b85811015611783578484038952815161176485826116ff565b945061176f83611713565b925060208a0199505060018101905061174b565b50829750879550505050505092915050565b600081519050919050565b600082825260208201905092915050565b6000819050602082019050919050565b6117ca81611043565b82525050565b60006117dc83836117c1565b60208301905092915050565b6000602082019050919050565b600061180082611795565b61180a81856117a0565b9350611815836117b1565b8060005b8381101561184657815161182d88826117d0565b9750611838836117e8565b925050600181019050611819565b5085935050505092915050565b600060c082019050818103600083015261186d8189611720565b9050818103602083015261188181886117f5565b9050611890604083018761104d565b61189d606083018661104d565b6118aa60808301856114de565b6118b760a083018461104d565b979650505050505050565b60006020820190506118d7600083018461104d565b92915050565b7f4e487b7100000000000000000000000000000000000000000000000000000000600052602260045260246000fd5b6000600282049050600182168061192457607f821691505b60208210811415611938576119376118dd565b5b50919050565b600082825260208201905092915050565b7f596f75277265206e6f7420656c696769626c6520666f72207468697320706f6c60008201527f6c21000000000000000000000000000000000000000000000000000000000000602082015250565b60006119ab60228361193e565b91506119b68261194f565b604082019050919050565b600060208201905081810360008301526119da8161199e565b9050919050565b7f596f7527766520766f74656420616c7265616479210000000000000000000000600082015250565b6000611a1760158361193e565b9150611a22826119e1565b602082019050919050565b60006020820190508181036000830152611a4681611a0a565b9050919050565b7f4e487b7100000000000000000000000000000000000000000000000000000000600052603260045260246000fd5b7f506f6c6c20686173206e6f742073746172746564000000000000000000000000600082015250565b6000611ab260148361193e565b9150611abd82611a7c565b602082019050919050565b60006020820190508181036000830152611ae181611aa5565b9050919050565b7f506f6c6c20686173206e6f7420656e6465640000000000000000000000000000600082015250565b6000611b1e60128361193e565b9150611b2982611ae8565b602082019050919050565b60006020820190508181036000830152611b4d81611b11565b9050919050565b611b5d81611088565b8114611b6857600080fd5b50565b600081359050611b7a81611b54565b92915050565b600060208284031215611b9657611b9561138b565b5b6000611ba484828501611b6b565b91505092915050565b7f4e487b7100000000000000000000000000000000000000000000000000000000600052601160045260246000fd5b6000611be782611169565b9150611bf283611169565b92508263ffffffff03821115611c0b57611c0a611bad565b5b828201905092915050565b6000611c2182611043565b9150611c2c83611043565b9250827fffffffffffffffffffffffffffffffffffffffffffffffffffffffffffffffff03821115611c6157611c60611bad565b5b828201905092915050565b6000611c7782611088565b915060ff821415611c8b57611c8a611bad565b5b600182019050919050565b6000611ca182611088565b9150611cac83611088565b92508260ff03821115611cc257611cc1611bad565b5b828201905092915050565b600081549050919050565b600081905092915050565b60008190508160005260206000209050919050565b600081549050919050565b600081905092915050565b60008190508160005260206000209050919050565b611d2c81611043565b82525050565b6000611d3e8383611d23565b60208301905092915050565b60008160001c9050919050565b6000819050919050565b6000611d74611d6f83611d4a565b611d57565b9050919050565b6000611d878254611d61565b9050919050565b6000600182019050919050565b6000611da682611cf8565b611db08185611d03565b9350611dbb83611d0e565b8060005b83811015611df357611dd082611d7b565b611dda8882611d32565b9750611de583611d8e565b925050600181019050611dbf565b5085935050505092915050565b6000611e0c8383611d9b565b905092915050565b6000600182019050919050565b6000611e2c82611ccd565b611e368185611cd8565b9350611e4183611ce3565b8060005b83811015611e715781611e588882611e00565b9750611e6383611e14565b925050600181019050611e45565b5085935050505092915050565b6000611e8a8284611e21565b915081905092915050565b7f4e487b7100000000000000000000000000000000000000000000000000000000600052604160045260246000fd5b6000611ecf82611169565b915063ffffffff821415611ee657611ee5611bad565b5b60018201905091905056fea264697066735822122020a898c50a340811c7b0ae3fa0345546e32b474c0cbe31ab29921d2f5176a50564736f6c63430008090033a26469706673582212209a68300b75a532e512f4d9d7c404da864ff8f43457cbac2644201d55a2c5227564736f6c63430008090033","opcodes":"PUSH1 0x80 PUSH1 0x40 MSTORE CALLVALUE DUP1 ISZERO PUSH2 0x10 JUMPI PUSH1 0x0 DUP1 REVERT JUMPDEST POP PUSH2 0x542A DUP1 PUSH2 0x20 PUSH1 0x0 CODECOPY PUSH1 0x0 RETURN INVALID PUSH1 0x80 PUSH1 0x40 MSTORE CALLVALUE DUP1 ISZERO PUSH3 0x11 JUMPI PUSH1 0x0 DUP1 REVERT JUMPDEST POP PUSH1 0x4 CALLDATASIZE LT PUSH3 0x88 JUMPI PUSH1 0x0 CALLDATALOAD PUSH1 0xE0 SHR DUP1 PUSH4 0x8FE97FA7 GT PUSH3 0x63 JUMPI DUP1 PUSH4 0x8FE97FA7 EQ PUSH3 0x11B JUMPI DUP1 PUSH4 0xD18E81B3 EQ PUSH3 0x13B JUMPI DUP1 PUSH4 0xD81CF6C8 EQ PUSH3 0x15D JUMPI DUP1 PUSH4 0xD83ABA61 EQ PUSH3 0x193 JUMPI PUSH3 0x88 JUMP JUMPDEST DUP1 PUSH4 0x11A52746 EQ PUSH3 0x8D JUMPI DUP1 PUSH4 0x2B01737F EQ PUSH3 0xAF JUMPI DUP1 PUSH4 0x7769F5E7 EQ PUSH3 0xE5 JUMPI JUMPDEST PUSH1 0x0 DUP1 REVERT JUMPDEST PUSH3 0x97 PUSH3 0x1C9 JUMP JUMPDEST PUSH1 0x40 MLOAD PUSH3 0xA6 SWAP2 SWAP1 PUSH3 0x987 JUMP JUMPDEST PUSH1 0x40 MLOAD DUP1 SWAP2 SUB SWAP1 RETURN JUMPDEST PUSH3 0xCD PUSH1 0x4 DUP1 CALLDATASIZE SUB DUP2 ADD SWAP1 PUSH3 0xC7 SWAP2 SWAP1 PUSH3 0xA27 JUMP JUMPDEST PUSH3 0x1DC JUMP JUMPDEST PUSH1 0x40 MLOAD PUSH3 0xDC SWAP2 SWAP1 PUSH3 0xEE4 JUMP JUMPDEST PUSH1 0x40 MLOAD DUP1 SWAP2 SUB SWAP1 RETURN JUMPDEST PUSH3 0x103 PUSH1 0x4 DUP1 CALLDATASIZE SUB DUP2 ADD SWAP1 PUSH3 0xFD SWAP2 SWAP1 PUSH3 0x106C JUMP JUMPDEST PUSH3 0x2A9 JUMP JUMPDEST PUSH1 0x40 MLOAD PUSH3 0x112 SWAP2 SWAP1 PUSH3 0x10CE JUMP JUMPDEST PUSH1 0x40 MLOAD DUP1 SWAP2 SUB SWAP1 RETURN JUMPDEST PUSH3 0x139 PUSH1 0x4 DUP1 CALLDATASIZE SUB DUP2 ADD SWAP1 PUSH3 0x133 SWAP2 SWAP1 PUSH3 0x1702 JUMP JUMPDEST PUSH3 0x355 JUMP JUMPDEST STOP JUMPDEST PUSH3 0x145 PUSH3 0x447 JUMP JUMPDEST PUSH1 0x40 MLOAD PUSH3 0x154 SWAP2 SWAP1 PUSH3 0x987 JUMP JUMPDEST PUSH1 0x40 MLOAD DUP1 SWAP2 SUB SWAP1 RETURN JUMPDEST PUSH3 0x17B PUSH1 0x4 DUP1 CALLDATASIZE SUB DUP2 ADD SWAP1 PUSH3 0x175 SWAP2 SWAP1 PUSH3 0x17F0 JUMP JUMPDEST PUSH3 0x44F JUMP JUMPDEST PUSH1 0x40 MLOAD PUSH3 0x18A SWAP2 SWAP1 PUSH3 0x18E9 JUMP JUMPDEST PUSH1 0x40 MLOAD DUP1 SWAP2 SUB SWAP1 RETURN JUMPDEST PUSH3 0x1B1 PUSH1 0x4 DUP1 CALLDATASIZE SUB DUP2 ADD SWAP1 PUSH3 0x1AB SWAP2 SWAP1 PUSH3 0x17F0 JUMP JUMPDEST PUSH3 0x6B0 JUMP JUMPDEST PUSH1 0x40 MLOAD PUSH3 0x1C0 SWAP2 SWAP1 PUSH3 0x191E JUMP JUMPDEST PUSH1 0x40 MLOAD DUP1 SWAP2 SUB SWAP1 RETURN JUMPDEST PUSH1 0x0 PUSH3 0x1D7 PUSH1 0x0 PUSH3 0x8DC JUMP JUMPDEST SWAP1 POP SWAP1 JUMP JUMPDEST PUSH1 0x60 PUSH1 0x0 DUP3 PUSH1 0xFF AND PUSH8 0xFFFFFFFFFFFFFFFF DUP2 GT ISZERO PUSH3 0x200 JUMPI PUSH3 0x1FF PUSH3 0xF0D JUMP JUMPDEST JUMPDEST PUSH1 0x40 MLOAD SWAP1 DUP1 DUP3 MSTORE DUP1 PUSH1 0x20 MUL PUSH1 0x20 ADD DUP3 ADD PUSH1 0x40 MSTORE DUP1 ISZERO PUSH3 0x23D JUMPI DUP2 PUSH1 0x20 ADD JUMPDEST PUSH3 0x229 PUSH3 0x900 JUMP JUMPDEST DUP2 MSTORE PUSH1 0x20 ADD SWAP1 PUSH1 0x1 SWAP1 SUB SWAP1 DUP2 PUSH3 0x21F JUMPI SWAP1 POP JUMPDEST POP SWAP1 POP PUSH1 0x0 JUMPDEST DUP4 PUSH1 0xFF AND DUP2 LT ISZERO PUSH3 0x29E JUMPI PUSH3 0x267 DUP2 DUP7 PUSH3 0x261 SWAP2 SWAP1 PUSH3 0x196A JUMP JUMPDEST PUSH3 0x44F JUMP JUMPDEST DUP3 DUP3 DUP2 MLOAD DUP2 LT PUSH3 0x27D JUMPI PUSH3 0x27C PUSH3 0x19A5 JUMP JUMPDEST JUMPDEST PUSH1 0x20 MUL PUSH1 0x20 ADD ADD DUP2 SWAP1 MSTORE POP DUP1 DUP1 PUSH3 0x295 SWAP1 PUSH3 0x19D4 JUMP JUMPDEST SWAP2 POP POP PUSH3 0x243 JUMP JUMPDEST POP DUP1 SWAP2 POP POP SWAP3 SWAP2 POP POP JUMP JUMPDEST PUSH1 0x0 DUP1 DUP3 MLOAD EQ ISZERO PUSH3 0x2BF JUMPI PUSH1 0x1 SWAP1 POP PUSH3 0x350 JUMP JUMPDEST DUP2 PUSH1 0x0 DUP2 MLOAD DUP2 LT PUSH3 0x2D6 JUMPI PUSH3 0x2D5 PUSH3 0x19A5 JUMP JUMPDEST JUMPDEST PUSH1 0x20 MUL PUSH1 0x20 ADD ADD MLOAD TIMESTAMP LT ISZERO PUSH3 0x2F0 JUMPI PUSH1 0x0 SWAP1 POP PUSH3 0x350 JUMP JUMPDEST DUP2 PUSH1 0x0 DUP2 MLOAD DUP2 LT PUSH3 0x307 JUMPI PUSH3 0x306 PUSH3 0x19A5 JUMP JUMPDEST JUMPDEST PUSH1 0x20 MUL PUSH1 0x20 ADD ADD MLOAD TIMESTAMP GT DUP1 ISZERO PUSH3 0x33B JUMPI POP DUP2 PUSH1 0x1 DUP2 MLOAD DUP2 LT PUSH3 0x330 JUMPI PUSH3 0x32F PUSH3 0x19A5 JUMP JUMPDEST JUMPDEST PUSH1 0x20 MUL PUSH1 0x20 ADD ADD MLOAD TIMESTAMP LT JUMPDEST ISZERO PUSH3 0x34B JUMPI PUSH1 0x1 SWAP1 POP PUSH3 0x350 JUMP JUMPDEST PUSH1 0x2 SWAP1 POP JUMPDEST SWAP2 SWAP1 POP JUMP JUMPDEST PUSH3 0x361 PUSH1 0x0 PUSH3 0x8EA JUMP JUMPDEST PUSH3 0x36D PUSH1 0x0 PUSH3 0x8DC JUMP JUMPDEST DUP5 DUP5 DUP5 DUP5 PUSH1 0x40 MLOAD PUSH3 0x37F SWAP1 PUSH3 0x95E JUMP JUMPDEST PUSH3 0x38F SWAP6 SWAP5 SWAP4 SWAP3 SWAP2 SWAP1 PUSH3 0x1E4C JUMP JUMPDEST PUSH1 0x40 MLOAD DUP1 SWAP2 SUB SWAP1 PUSH1 0x0 CREATE DUP1 ISZERO DUP1 ISZERO PUSH3 0x3AC JUMPI RETURNDATASIZE PUSH1 0x0 DUP1 RETURNDATACOPY RETURNDATASIZE PUSH1 0x0 REVERT JUMPDEST POP PUSH1 0x1 PUSH1 0x0 PUSH3 0x3BD PUSH1 0x0 PUSH3 0x8DC JUMP JUMPDEST DUP2 MSTORE PUSH1 0x20 ADD SWAP1 DUP2 MSTORE PUSH1 0x20 ADD PUSH1 0x0 KECCAK256 PUSH1 0x0 PUSH2 0x100 EXP DUP2 SLOAD DUP2 PUSH20 0xFFFFFFFFFFFFFFFFFFFFFFFFFFFFFFFFFFFFFFFF MUL NOT AND SWAP1 DUP4 PUSH20 0xFFFFFFFFFFFFFFFFFFFFFFFFFFFFFFFFFFFFFFFF AND MUL OR SWAP1 SSTORE POP PUSH3 0x415 PUSH1 0x0 PUSH3 0x8DC JUMP JUMPDEST PUSH32 0x3E8E3D753052C785EAA664810323BA37E786D5E5F11716C0767824C6AD6B8BF4 PUSH1 0x40 MLOAD PUSH1 0x40 MLOAD DUP1 SWAP2 SUB SWAP1 LOG2 POP POP POP POP JUMP JUMPDEST PUSH1 0x0 TIMESTAMP SWAP1 POP SWAP1 JUMP JUMPDEST PUSH3 0x459 PUSH3 0x900 JUMP JUMPDEST PUSH3 0x465 PUSH1 0x0 PUSH3 0x8DC JUMP JUMPDEST DUP3 GT ISZERO PUSH3 0x4AA JUMPI PUSH1 0x40 MLOAD PUSH32 0x8C379A000000000000000000000000000000000000000000000000000000000 DUP2 MSTORE PUSH1 0x4 ADD PUSH3 0x4A1 SWAP1 PUSH3 0x1F26 JUMP JUMPDEST PUSH1 0x40 MLOAD DUP1 SWAP2 SUB SWAP1 REVERT JUMPDEST PUSH1 0x0 DUP1 PUSH1 0x0 DUP1 PUSH1 0x0 DUP1 PUSH1 0x1 PUSH1 0x0 DUP10 DUP2 MSTORE PUSH1 0x20 ADD SWAP1 DUP2 MSTORE PUSH1 0x20 ADD PUSH1 0x0 KECCAK256 PUSH1 0x0 SWAP1 SLOAD SWAP1 PUSH2 0x100 EXP SWAP1 DIV PUSH20 0xFFFFFFFFFFFFFFFFFFFFFFFFFFFFFFFFFFFFFFFF AND PUSH20 0xFFFFFFFFFFFFFFFFFFFFFFFFFFFFFFFFFFFFFFFF AND PUSH4 0x95084C6F PUSH1 0x40 MLOAD DUP2 PUSH4 0xFFFFFFFF AND PUSH1 0xE0 SHL DUP2 MSTORE PUSH1 0x4 ADD PUSH1 0x0 PUSH1 0x40 MLOAD DUP1 DUP4 SUB DUP2 DUP7 DUP1 EXTCODESIZE ISZERO DUP1 ISZERO PUSH3 0x52D JUMPI PUSH1 0x0 DUP1 REVERT JUMPDEST POP GAS STATICCALL ISZERO DUP1 ISZERO PUSH3 0x542 JUMPI RETURNDATASIZE PUSH1 0x0 DUP1 RETURNDATACOPY RETURNDATASIZE PUSH1 0x0 REVERT JUMPDEST POP POP POP POP PUSH1 0x40 MLOAD RETURNDATASIZE PUSH1 0x0 DUP3 RETURNDATACOPY RETURNDATASIZE PUSH1 0x1F NOT PUSH1 0x1F DUP3 ADD AND DUP3 ADD DUP1 PUSH1 0x40 MSTORE POP DUP2 ADD SWAP1 PUSH3 0x56D SWAP2 SWAP1 PUSH3 0x217D JUMP JUMPDEST SWAP6 POP SWAP6 POP SWAP6 POP SWAP6 POP SWAP6 POP SWAP6 POP PUSH1 0x0 PUSH1 0x1 PUSH1 0x0 DUP11 DUP2 MSTORE PUSH1 0x20 ADD SWAP1 DUP2 MSTORE PUSH1 0x20 ADD PUSH1 0x0 KECCAK256 PUSH1 0x0 SWAP1 SLOAD SWAP1 PUSH2 0x100 EXP SWAP1 DIV PUSH20 0xFFFFFFFFFFFFFFFFFFFFFFFFFFFFFFFFFFFFFFFF AND PUSH20 0xFFFFFFFFFFFFFFFFFFFFFFFFFFFFFFFFFFFFFFFF AND PUSH4 0x66E305FD CALLER PUSH1 0x40 MLOAD DUP3 PUSH4 0xFFFFFFFF AND PUSH1 0xE0 SHL DUP2 MSTORE PUSH1 0x4 ADD PUSH3 0x5E9 SWAP2 SWAP1 PUSH3 0x191E JUMP JUMPDEST PUSH1 0x20 PUSH1 0x40 MLOAD DUP1 DUP4 SUB DUP2 DUP7 DUP1 EXTCODESIZE ISZERO DUP1 ISZERO PUSH3 0x602 JUMPI PUSH1 0x0 DUP1 REVERT JUMPDEST POP GAS STATICCALL ISZERO DUP1 ISZERO PUSH3 0x617 JUMPI RETURNDATASIZE PUSH1 0x0 DUP1 RETURNDATACOPY RETURNDATASIZE PUSH1 0x0 REVERT JUMPDEST POP POP POP POP PUSH1 0x40 MLOAD RETURNDATASIZE PUSH1 0x1F NOT PUSH1 0x1F DUP3 ADD AND DUP3 ADD DUP1 PUSH1 0x40 MSTORE POP DUP2 ADD SWAP1 PUSH3 0x63D SWAP2 SWAP1 PUSH3 0x2257 JUMP JUMPDEST SWAP1 POP PUSH1 0x0 PUSH3 0x64C DUP8 PUSH3 0x2A9 JUMP JUMPDEST SWAP1 POP PUSH1 0x40 MLOAD DUP1 PUSH2 0x100 ADD PUSH1 0x40 MSTORE DUP1 DUP10 DUP2 MSTORE PUSH1 0x20 ADD DUP9 DUP2 MSTORE PUSH1 0x20 ADD DUP8 DUP2 MSTORE PUSH1 0x20 ADD DUP3 PUSH1 0x2 DUP2 GT ISZERO PUSH3 0x682 JUMPI PUSH3 0x681 PUSH3 0xCDC JUMP JUMPDEST JUMPDEST DUP2 MSTORE PUSH1 0x20 ADD DUP7 DUP2 MSTORE PUSH1 0x20 ADD DUP6 ISZERO ISZERO DUP2 MSTORE PUSH1 0x20 ADD DUP4 ISZERO ISZERO DUP2 MSTORE PUSH1 0x20 ADD DUP5 DUP2 MSTORE POP SWAP9 POP POP POP POP POP POP POP POP POP SWAP2 SWAP1 POP JUMP JUMPDEST PUSH1 0x0 PUSH1 0x1 PUSH1 0x0 DUP4 DUP2 MSTORE PUSH1 0x20 ADD SWAP1 DUP2 MSTORE PUSH1 0x20 ADD PUSH1 0x0 KECCAK256 PUSH1 0x0 SWAP1 SLOAD SWAP1 PUSH2 0x100 EXP SWAP1 DIV PUSH20 0xFFFFFFFFFFFFFFFFFFFFFFFFFFFFFFFFFFFFFFFF AND PUSH20 0xFFFFFFFFFFFFFFFFFFFFFFFFFFFFFFFFFFFFFFFF AND PUSH4 0x66E305FD CALLER PUSH1 0x40 MLOAD DUP3 PUSH4 0xFFFFFFFF AND PUSH1 0xE0 SHL DUP2 MSTORE PUSH1 0x4 ADD PUSH3 0x720 SWAP2 SWAP1 PUSH3 0x191E JUMP JUMPDEST PUSH1 0x20 PUSH1 0x40 MLOAD DUP1 DUP4 SUB DUP2 DUP7 DUP1 EXTCODESIZE ISZERO DUP1 ISZERO PUSH3 0x739 JUMPI PUSH1 0x0 DUP1 REVERT JUMPDEST POP GAS STATICCALL ISZERO DUP1 ISZERO PUSH3 0x74E JUMPI RETURNDATASIZE PUSH1 0x0 DUP1 RETURNDATACOPY RETURNDATASIZE PUSH1 0x0 REVERT JUMPDEST POP POP POP POP PUSH1 0x40 MLOAD RETURNDATASIZE PUSH1 0x1F NOT PUSH1 0x1F DUP3 ADD AND DUP3 ADD DUP1 PUSH1 0x40 MSTORE POP DUP2 ADD SWAP1 PUSH3 0x774 SWAP2 SWAP1 PUSH3 0x2257 JUMP JUMPDEST DUP1 PUSH3 0x85F JUMPI POP PUSH1 0x1 PUSH1 0x0 DUP4 DUP2 MSTORE PUSH1 0x20 ADD SWAP1 DUP2 MSTORE PUSH1 0x20 ADD PUSH1 0x0 KECCAK256 PUSH1 0x0 SWAP1 SLOAD SWAP1 PUSH2 0x100 EXP SWAP1 DIV PUSH20 0xFFFFFFFFFFFFFFFFFFFFFFFFFFFFFFFFFFFFFFFF AND PUSH20 0xFFFFFFFFFFFFFFFFFFFFFFFFFFFFFFFFFFFFFFFF AND PUSH4 0x8DA5CB5B PUSH1 0x40 MLOAD DUP2 PUSH4 0xFFFFFFFF AND PUSH1 0xE0 SHL DUP2 MSTORE PUSH1 0x4 ADD PUSH1 0x20 PUSH1 0x40 MLOAD DUP1 DUP4 SUB DUP2 DUP7 DUP1 EXTCODESIZE ISZERO DUP1 ISZERO PUSH3 0x7F5 JUMPI PUSH1 0x0 DUP1 REVERT JUMPDEST POP GAS STATICCALL ISZERO DUP1 ISZERO PUSH3 0x80A JUMPI RETURNDATASIZE PUSH1 0x0 DUP1 RETURNDATACOPY RETURNDATASIZE PUSH1 0x0 REVERT JUMPDEST POP POP POP POP PUSH1 0x40 MLOAD RETURNDATASIZE PUSH1 0x1F NOT PUSH1 0x1F DUP3 ADD AND DUP3 ADD DUP1 PUSH1 0x40 MSTORE POP DUP2 ADD SWAP1 PUSH3 0x830 SWAP2 SWAP1 PUSH3 0x22A0 JUMP JUMPDEST PUSH20 0xFFFFFFFFFFFFFFFFFFFFFFFFFFFFFFFFFFFFFFFF AND CALLER PUSH20 0xFFFFFFFFFFFFFFFFFFFFFFFFFFFFFFFFFFFFFFFF AND EQ JUMPDEST PUSH3 0x8A1 JUMPI PUSH1 0x40 MLOAD PUSH32 0x8C379A000000000000000000000000000000000000000000000000000000000 DUP2 MSTORE PUSH1 0x4 ADD PUSH3 0x898 SWAP1 PUSH3 0x2348 JUMP JUMPDEST PUSH1 0x40 MLOAD DUP1 SWAP2 SUB SWAP1 REVERT JUMPDEST PUSH1 0x1 PUSH1 0x0 DUP4 DUP2 MSTORE PUSH1 0x20 ADD SWAP1 DUP2 MSTORE PUSH1 0x20 ADD PUSH1 0x0 KECCAK256 PUSH1 0x0 SWAP1 SLOAD SWAP1 PUSH2 0x100 EXP SWAP1 DIV PUSH20 0xFFFFFFFFFFFFFFFFFFFFFFFFFFFFFFFFFFFFFFFF AND SWAP1 POP SWAP2 SWAP1 POP JUMP JUMPDEST PUSH1 0x0 DUP2 PUSH1 0x0 ADD SLOAD SWAP1 POP SWAP2 SWAP1 POP JUMP JUMPDEST PUSH1 0x1 DUP2 PUSH1 0x0 ADD PUSH1 0x0 DUP3 DUP3 SLOAD ADD SWAP3 POP POP DUP2 SWAP1 SSTORE POP POP JUMP JUMPDEST PUSH1 0x40 MLOAD DUP1 PUSH2 0x100 ADD PUSH1 0x40 MSTORE DUP1 PUSH1 0x60 DUP2 MSTORE PUSH1 0x20 ADD PUSH1 0x60 DUP2 MSTORE PUSH1 0x20 ADD PUSH1 0x0 DUP2 MSTORE PUSH1 0x20 ADD PUSH1 0x0 PUSH1 0x2 DUP2 GT ISZERO PUSH3 0x938 JUMPI PUSH3 0x937 PUSH3 0xCDC JUMP JUMPDEST JUMPDEST DUP2 MSTORE PUSH1 0x20 ADD PUSH1 0x0 DUP2 MSTORE PUSH1 0x20 ADD PUSH1 0x0 ISZERO ISZERO DUP2 MSTORE PUSH1 0x20 ADD PUSH1 0x0 ISZERO ISZERO DUP2 MSTORE PUSH1 0x20 ADD PUSH1 0x0 DUP2 MSTORE POP SWAP1 JUMP JUMPDEST PUSH2 0x308A DUP1 PUSH3 0x236B DUP4 CODECOPY ADD SWAP1 JUMP JUMPDEST PUSH1 0x0 DUP2 SWAP1 POP SWAP2 SWAP1 POP JUMP JUMPDEST PUSH3 0x981 DUP2 PUSH3 0x96C JUMP JUMPDEST DUP3 MSTORE POP POP JUMP JUMPDEST PUSH1 0x0 PUSH1 0x20 DUP3 ADD SWAP1 POP PUSH3 0x99E PUSH1 0x0 DUP4 ADD DUP5 PUSH3 0x976 JUMP JUMPDEST SWAP3 SWAP2 POP POP JUMP JUMPDEST PUSH1 0x0 PUSH1 0x40 MLOAD SWAP1 POP SWAP1 JUMP JUMPDEST PUSH1 0x0 DUP1 REVERT JUMPDEST PUSH1 0x0 DUP1 REVERT JUMPDEST PUSH3 0x9C3 DUP2 PUSH3 0x96C JUMP JUMPDEST DUP2 EQ PUSH3 0x9CF JUMPI PUSH1 0x0 DUP1 REVERT JUMPDEST POP JUMP JUMPDEST PUSH1 0x0 DUP2 CALLDATALOAD SWAP1 POP PUSH3 0x9E3 DUP2 PUSH3 0x9B8 JUMP JUMPDEST SWAP3 SWAP2 POP POP JUMP JUMPDEST PUSH1 0x0 PUSH1 0xFF DUP3 AND SWAP1 POP SWAP2 SWAP1 POP JUMP JUMPDEST PUSH3 0xA01 DUP2 PUSH3 0x9E9 JUMP JUMPDEST DUP2 EQ PUSH3 0xA0D JUMPI PUSH1 0x0 DUP1 REVERT JUMPDEST POP JUMP JUMPDEST PUSH1 0x0 DUP2 CALLDATALOAD SWAP1 POP PUSH3 0xA21 DUP2 PUSH3 0x9F6 JUMP JUMPDEST SWAP3 SWAP2 POP POP JUMP JUMPDEST PUSH1 0x0 DUP1 PUSH1 0x40 DUP4 DUP6 SUB SLT ISZERO PUSH3 0xA41 JUMPI PUSH3 0xA40 PUSH3 0x9AE JUMP JUMPDEST JUMPDEST PUSH1 0x0 PUSH3 0xA51 DUP6 DUP3 DUP7 ADD PUSH3 0x9D2 JUMP JUMPDEST SWAP3 POP POP PUSH1 0x20 PUSH3 0xA64 DUP6 DUP3 DUP7 ADD PUSH3 0xA10 JUMP JUMPDEST SWAP2 POP POP SWAP3 POP SWAP3 SWAP1 POP JUMP JUMPDEST PUSH1 0x0 DUP2 MLOAD SWAP1 POP SWAP2 SWAP1 POP JUMP JUMPDEST PUSH1 0x0 DUP3 DUP3 MSTORE PUSH1 0x20 DUP3 ADD SWAP1 POP SWAP3 SWAP2 POP POP JUMP JUMPDEST PUSH1 0x0 DUP2 SWAP1 POP PUSH1 0x20 DUP3 ADD SWAP1 POP SWAP2 SWAP1 POP JUMP JUMPDEST PUSH1 0x0 DUP2 MLOAD SWAP1 POP SWAP2 SWAP1 POP JUMP JUMPDEST PUSH1 0x0 DUP3 DUP3 MSTORE PUSH1 0x20 DUP3 ADD SWAP1 POP SWAP3 SWAP2 POP POP JUMP JUMPDEST PUSH1 0x0 DUP2 SWAP1 POP PUSH1 0x20 DUP3 ADD SWAP1 POP SWAP2 SWAP1 POP JUMP JUMPDEST PUSH1 0x0 DUP2 MLOAD SWAP1 POP SWAP2 SWAP1 POP JUMP JUMPDEST PUSH1 0x0 DUP3 DUP3 MSTORE PUSH1 0x20 DUP3 ADD SWAP1 POP SWAP3 SWAP2 POP POP JUMP JUMPDEST PUSH1 0x0 JUMPDEST DUP4 DUP2 LT ISZERO PUSH3 0xB02 JUMPI DUP1 DUP3 ADD MLOAD DUP2 DUP5 ADD MSTORE PUSH1 0x20 DUP2 ADD SWAP1 POP PUSH3 0xAE5 JUMP JUMPDEST DUP4 DUP2 GT ISZERO PUSH3 0xB12 JUMPI PUSH1 0x0 DUP5 DUP5 ADD MSTORE JUMPDEST POP POP POP POP JUMP JUMPDEST PUSH1 0x0 PUSH1 0x1F NOT PUSH1 0x1F DUP4 ADD AND SWAP1 POP SWAP2 SWAP1 POP JUMP JUMPDEST PUSH1 0x0 PUSH3 0xB36 DUP3 PUSH3 0xAC6 JUMP JUMPDEST PUSH3 0xB42 DUP2 DUP6 PUSH3 0xAD1 JUMP JUMPDEST SWAP4 POP PUSH3 0xB54 DUP2 DUP6 PUSH1 0x20 DUP7 ADD PUSH3 0xAE2 JUMP JUMPDEST PUSH3 0xB5F DUP2 PUSH3 0xB18 JUMP JUMPDEST DUP5 ADD SWAP2 POP POP SWAP3 SWAP2 POP POP JUMP JUMPDEST PUSH1 0x0 PUSH3 0xB78 DUP4 DUP4 PUSH3 0xB29 JUMP JUMPDEST SWAP1 POP SWAP3 SWAP2 POP POP JUMP JUMPDEST PUSH1 0x0 PUSH1 0x20 DUP3 ADD SWAP1 POP SWAP2 SWAP1 POP JUMP JUMPDEST PUSH1 0x0 PUSH3 0xB9A DUP3 PUSH3 0xA9A JUMP JUMPDEST PUSH3 0xBA6 DUP2 DUP6 PUSH3 0xAA5 JUMP JUMPDEST SWAP4 POP DUP4 PUSH1 0x20 DUP3 MUL DUP6 ADD PUSH3 0xBBA DUP6 PUSH3 0xAB6 JUMP JUMPDEST DUP1 PUSH1 0x0 JUMPDEST DUP6 DUP2 LT ISZERO PUSH3 0xBFC JUMPI DUP5 DUP5 SUB DUP10 MSTORE DUP2 MLOAD PUSH3 0xBDA DUP6 DUP3 PUSH3 0xB6A JUMP JUMPDEST SWAP5 POP PUSH3 0xBE7 DUP4 PUSH3 0xB80 JUMP JUMPDEST SWAP3 POP PUSH1 0x20 DUP11 ADD SWAP10 POP POP PUSH1 0x1 DUP2 ADD SWAP1 POP PUSH3 0xBBE JUMP JUMPDEST POP DUP3 SWAP8 POP DUP8 SWAP6 POP POP POP POP POP POP SWAP3 SWAP2 POP POP JUMP JUMPDEST PUSH1 0x0 DUP2 MLOAD SWAP1 POP SWAP2 SWAP1 POP JUMP JUMPDEST PUSH1 0x0 DUP3 DUP3 MSTORE PUSH1 0x20 DUP3 ADD SWAP1 POP SWAP3 SWAP2 POP POP JUMP JUMPDEST PUSH1 0x0 DUP2 SWAP1 POP PUSH1 0x20 DUP3 ADD SWAP1 POP SWAP2 SWAP1 POP JUMP JUMPDEST PUSH3 0xC45 DUP2 PUSH3 0x96C JUMP JUMPDEST DUP3 MSTORE POP POP JUMP JUMPDEST PUSH1 0x0 PUSH3 0xC59 DUP4 DUP4 PUSH3 0xC3A JUMP JUMPDEST PUSH1 0x20 DUP4 ADD SWAP1 POP SWAP3 SWAP2 POP POP JUMP JUMPDEST PUSH1 0x0 PUSH1 0x20 DUP3 ADD SWAP1 POP SWAP2 SWAP1 POP JUMP JUMPDEST PUSH1 0x0 PUSH3 0xC7F DUP3 PUSH3 0xC0E JUMP JUMPDEST PUSH3 0xC8B DUP2 DUP6 PUSH3 0xC19 JUMP JUMPDEST SWAP4 POP PUSH3 0xC98 DUP4 PUSH3 0xC2A JUMP JUMPDEST DUP1 PUSH1 0x0 JUMPDEST DUP4 DUP2 LT ISZERO PUSH3 0xCCF JUMPI DUP2 MLOAD PUSH3 0xCB3 DUP9 DUP3 PUSH3 0xC4B JUMP JUMPDEST SWAP8 POP PUSH3 0xCC0 DUP4 PUSH3 0xC65 JUMP JUMPDEST SWAP3 POP POP PUSH1 0x1 DUP2 ADD SWAP1 POP PUSH3 0xC9C JUMP JUMPDEST POP DUP6 SWAP4 POP POP POP POP SWAP3 SWAP2 POP POP JUMP JUMPDEST PUSH32 0x4E487B7100000000000000000000000000000000000000000000000000000000 PUSH1 0x0 MSTORE PUSH1 0x21 PUSH1 0x4 MSTORE PUSH1 0x24 PUSH1 0x0 REVERT JUMPDEST PUSH1 0x3 DUP2 LT PUSH3 0xD1F JUMPI PUSH3 0xD1E PUSH3 0xCDC JUMP JUMPDEST JUMPDEST POP JUMP JUMPDEST PUSH1 0x0 DUP2 SWAP1 POP PUSH3 0xD32 DUP3 PUSH3 0xD0B JUMP JUMPDEST SWAP2 SWAP1 POP JUMP JUMPDEST PUSH1 0x0 PUSH3 0xD44 DUP3 PUSH3 0xD22 JUMP JUMPDEST SWAP1 POP SWAP2 SWAP1 POP JUMP JUMPDEST PUSH3 0xD56 DUP2 PUSH3 0xD37 JUMP JUMPDEST DUP3 MSTORE POP POP JUMP JUMPDEST PUSH1 0x0 DUP2 ISZERO ISZERO SWAP1 POP SWAP2 SWAP1 POP JUMP JUMPDEST PUSH3 0xD73 DUP2 PUSH3 0xD5C JUMP JUMPDEST DUP3 MSTORE POP POP JUMP JUMPDEST PUSH1 0x0 PUSH2 0x100 DUP4 ADD PUSH1 0x0 DUP4 ADD MLOAD DUP5 DUP3 SUB PUSH1 0x0 DUP7 ADD MSTORE PUSH3 0xD99 DUP3 DUP3 PUSH3 0xB8D JUMP JUMPDEST SWAP2 POP POP PUSH1 0x20 DUP4 ADD MLOAD DUP5 DUP3 SUB PUSH1 0x20 DUP7 ADD MSTORE PUSH3 0xDB5 DUP3 DUP3 PUSH3 0xC72 JUMP JUMPDEST SWAP2 POP POP PUSH1 0x40 DUP4 ADD MLOAD PUSH3 0xDCC PUSH1 0x40 DUP7 ADD DUP3 PUSH3 0xC3A JUMP JUMPDEST POP PUSH1 0x60 DUP4 ADD MLOAD PUSH3 0xDE1 PUSH1 0x60 DUP7 ADD DUP3 PUSH3 0xD4B JUMP JUMPDEST POP PUSH1 0x80 DUP4 ADD MLOAD PUSH3 0xDF6 PUSH1 0x80 DUP7 ADD DUP3 PUSH3 0xC3A JUMP JUMPDEST POP PUSH1 0xA0 DUP4 ADD MLOAD PUSH3 0xE0B PUSH1 0xA0 DUP7 ADD DUP3 PUSH3 0xD68 JUMP JUMPDEST POP PUSH1 0xC0 DUP4 ADD MLOAD PUSH3 0xE20 PUSH1 0xC0 DUP7 ADD DUP3 PUSH3 0xD68 JUMP JUMPDEST POP PUSH1 0xE0 DUP4 ADD MLOAD PUSH3 0xE35 PUSH1 0xE0 DUP7 ADD DUP3 PUSH3 0xC3A JUMP JUMPDEST POP DUP1 SWAP2 POP POP SWAP3 SWAP2 POP POP JUMP JUMPDEST PUSH1 0x0 PUSH3 0xE4E DUP4 DUP4 PUSH3 0xD79 JUMP JUMPDEST SWAP1 POP SWAP3 SWAP2 POP POP JUMP JUMPDEST PUSH1 0x0 PUSH1 0x20 DUP3 ADD SWAP1 POP SWAP2 SWAP1 POP JUMP JUMPDEST PUSH1 0x0 PUSH3 0xE70 DUP3 PUSH3 0xA6E JUMP JUMPDEST PUSH3 0xE7C DUP2 DUP6 PUSH3 0xA79 JUMP JUMPDEST SWAP4 POP DUP4 PUSH1 0x20 DUP3 MUL DUP6 ADD PUSH3 0xE90 DUP6 PUSH3 0xA8A JUMP JUMPDEST DUP1 PUSH1 0x0 JUMPDEST DUP6 DUP2 LT ISZERO PUSH3 0xED2 JUMPI DUP5 DUP5 SUB DUP10 MSTORE DUP2 MLOAD PUSH3 0xEB0 DUP6 DUP3 PUSH3 0xE40 JUMP JUMPDEST SWAP5 POP PUSH3 0xEBD DUP4 PUSH3 0xE56 JUMP JUMPDEST SWAP3 POP PUSH1 0x20 DUP11 ADD SWAP10 POP POP PUSH1 0x1 DUP2 ADD SWAP1 POP PUSH3 0xE94 JUMP JUMPDEST POP DUP3 SWAP8 POP DUP8 SWAP6 POP POP POP POP POP POP SWAP3 SWAP2 POP POP JUMP JUMPDEST PUSH1 0x0 PUSH1 0x20 DUP3 ADD SWAP1 POP DUP2 DUP2 SUB PUSH1 0x0 DUP4 ADD MSTORE PUSH3 0xF00 DUP2 DUP5 PUSH3 0xE63 JUMP JUMPDEST SWAP1 POP SWAP3 SWAP2 POP POP JUMP JUMPDEST PUSH1 0x0 DUP1 REVERT JUMPDEST PUSH32 0x4E487B7100000000000000000000000000000000000000000000000000000000 PUSH1 0x0 MSTORE PUSH1 0x41 PUSH1 0x4 MSTORE PUSH1 0x24 PUSH1 0x0 REVERT JUMPDEST PUSH3 0xF47 DUP3 PUSH3 0xB18 JUMP JUMPDEST DUP2 ADD DUP2 DUP2 LT PUSH8 0xFFFFFFFFFFFFFFFF DUP3 GT OR ISZERO PUSH3 0xF69 JUMPI PUSH3 0xF68 PUSH3 0xF0D JUMP JUMPDEST JUMPDEST DUP1 PUSH1 0x40 MSTORE POP POP POP JUMP JUMPDEST PUSH1 0x0 PUSH3 0xF7E PUSH3 0x9A4 JUMP JUMPDEST SWAP1 POP PUSH3 0xF8C DUP3 DUP3 PUSH3 0xF3C JUMP JUMPDEST SWAP2 SWAP1 POP JUMP JUMPDEST PUSH1 0x0 PUSH8 0xFFFFFFFFFFFFFFFF DUP3 GT ISZERO PUSH3 0xFAF JUMPI PUSH3 0xFAE PUSH3 0xF0D JUMP JUMPDEST JUMPDEST PUSH1 0x20 DUP3 MUL SWAP1 POP PUSH1 0x20 DUP2 ADD SWAP1 POP SWAP2 SWAP1 POP JUMP JUMPDEST PUSH1 0x0 DUP1 REVERT JUMPDEST PUSH1 0x0 PUSH3 0xFDC PUSH3 0xFD6 DUP5 PUSH3 0xF91 JUMP JUMPDEST PUSH3 0xF72 JUMP JUMPDEST SWAP1 POP DUP1 DUP4 DUP3 MSTORE PUSH1 0x20 DUP3 ADD SWAP1 POP PUSH1 0x20 DUP5 MUL DUP4 ADD DUP6 DUP2 GT ISZERO PUSH3 0x1002 JUMPI PUSH3 0x1001 PUSH3 0xFC0 JUMP JUMPDEST JUMPDEST DUP4 JUMPDEST DUP2 DUP2 LT ISZERO PUSH3 0x102F JUMPI DUP1 PUSH3 0x101A DUP9 DUP3 PUSH3 0x9D2 JUMP JUMPDEST DUP5 MSTORE PUSH1 0x20 DUP5 ADD SWAP4 POP POP PUSH1 0x20 DUP2 ADD SWAP1 POP PUSH3 0x1004 JUMP JUMPDEST POP POP POP SWAP4 SWAP3 POP POP POP JUMP JUMPDEST PUSH1 0x0 DUP3 PUSH1 0x1F DUP4 ADD SLT PUSH3 0x1051 JUMPI PUSH3 0x1050 PUSH3 0xF08 JUMP JUMPDEST JUMPDEST DUP2 CALLDATALOAD PUSH3 0x1063 DUP5 DUP3 PUSH1 0x20 DUP7 ADD PUSH3 0xFC5 JUMP JUMPDEST SWAP2 POP POP SWAP3 SWAP2 POP POP JUMP JUMPDEST PUSH1 0x0 PUSH1 0x20 DUP3 DUP5 SUB SLT ISZERO PUSH3 0x1085 JUMPI PUSH3 0x1084 PUSH3 0x9AE JUMP JUMPDEST JUMPDEST PUSH1 0x0 DUP3 ADD CALLDATALOAD PUSH8 0xFFFFFFFFFFFFFFFF DUP2 GT ISZERO PUSH3 0x10A6 JUMPI PUSH3 0x10A5 PUSH3 0x9B3 JUMP JUMPDEST JUMPDEST PUSH3 0x10B4 DUP5 DUP3 DUP6 ADD PUSH3 0x1039 JUMP JUMPDEST SWAP2 POP POP SWAP3 SWAP2 POP POP JUMP JUMPDEST PUSH3 0x10C8 DUP2 PUSH3 0xD37 JUMP JUMPDEST DUP3 MSTORE POP POP JUMP JUMPDEST PUSH1 0x0 PUSH1 0x20 DUP3 ADD SWAP1 POP PUSH3 0x10E5 PUSH1 0x0 DUP4 ADD DUP5 PUSH3 0x10BD JUMP JUMPDEST SWAP3 SWAP2 POP POP JUMP JUMPDEST PUSH1 0x0 PUSH8 0xFFFFFFFFFFFFFFFF DUP3 GT ISZERO PUSH3 0x1109 JUMPI PUSH3 0x1108 PUSH3 0xF0D JUMP JUMPDEST JUMPDEST PUSH1 0x20 DUP3 MUL SWAP1 POP PUSH1 0x20 DUP2 ADD SWAP1 POP SWAP2 SWAP1 POP JUMP JUMPDEST PUSH1 0x0 DUP1 REVERT JUMPDEST PUSH1 0x0 PUSH8 0xFFFFFFFFFFFFFFFF DUP3 GT ISZERO PUSH3 0x113D JUMPI PUSH3 0x113C PUSH3 0xF0D JUMP JUMPDEST JUMPDEST PUSH3 0x1148 DUP3 PUSH3 0xB18 JUMP JUMPDEST SWAP1 POP PUSH1 0x20 DUP2 ADD SWAP1 POP SWAP2 SWAP1 POP JUMP JUMPDEST DUP3 DUP2 DUP4 CALLDATACOPY PUSH1 0x0 DUP4 DUP4 ADD MSTORE POP POP POP JUMP JUMPDEST PUSH1 0x0 PUSH3 0x117B PUSH3 0x1175 DUP5 PUSH3 0x111F JUMP JUMPDEST PUSH3 0xF72 JUMP JUMPDEST SWAP1 POP DUP3 DUP2 MSTORE PUSH1 0x20 DUP2 ADD DUP5 DUP5 DUP5 ADD GT ISZERO PUSH3 0x119A JUMPI PUSH3 0x1199 PUSH3 0x111A JUMP JUMPDEST JUMPDEST PUSH3 0x11A7 DUP5 DUP3 DUP6 PUSH3 0x1155 JUMP JUMPDEST POP SWAP4 SWAP3 POP POP POP JUMP JUMPDEST PUSH1 0x0 DUP3 PUSH1 0x1F DUP4 ADD SLT PUSH3 0x11C7 JUMPI PUSH3 0x11C6 PUSH3 0xF08 JUMP JUMPDEST JUMPDEST DUP2 CALLDATALOAD PUSH3 0x11D9 DUP5 DUP3 PUSH1 0x20 DUP7 ADD PUSH3 0x1164 JUMP JUMPDEST SWAP2 POP POP SWAP3 SWAP2 POP POP JUMP JUMPDEST PUSH1 0x0 PUSH3 0x11F9 PUSH3 0x11F3 DUP5 PUSH3 0x10EB JUMP JUMPDEST PUSH3 0xF72 JUMP JUMPDEST SWAP1 POP DUP1 DUP4 DUP3 MSTORE PUSH1 0x20 DUP3 ADD SWAP1 POP PUSH1 0x20 DUP5 MUL DUP4 ADD DUP6 DUP2 GT ISZERO PUSH3 0x121F JUMPI PUSH3 0x121E PUSH3 0xFC0 JUMP JUMPDEST JUMPDEST DUP4 JUMPDEST DUP2 DUP2 LT ISZERO PUSH3 0x126D JUMPI DUP1 CALLDATALOAD PUSH8 0xFFFFFFFFFFFFFFFF DUP2 GT ISZERO PUSH3 0x1248 JUMPI PUSH3 0x1247 PUSH3 0xF08 JUMP JUMPDEST JUMPDEST DUP1 DUP7 ADD PUSH3 0x1257 DUP10 DUP3 PUSH3 0x11AF JUMP JUMPDEST DUP6 MSTORE PUSH1 0x20 DUP6 ADD SWAP5 POP POP POP PUSH1 0x20 DUP2 ADD SWAP1 POP PUSH3 0x1221 JUMP JUMPDEST POP POP POP SWAP4 SWAP3 POP POP POP JUMP JUMPDEST PUSH1 0x0 DUP3 PUSH1 0x1F DUP4 ADD SLT PUSH3 0x128F JUMPI PUSH3 0x128E PUSH3 0xF08 JUMP JUMPDEST JUMPDEST DUP2 CALLDATALOAD PUSH3 0x12A1 DUP5 DUP3 PUSH1 0x20 DUP7 ADD PUSH3 0x11E2 JUMP JUMPDEST SWAP2 POP POP SWAP3 SWAP2 POP POP JUMP JUMPDEST PUSH1 0x0 PUSH8 0xFFFFFFFFFFFFFFFF DUP3 GT ISZERO PUSH3 0x12C8 JUMPI PUSH3 0x12C7 PUSH3 0xF0D JUMP JUMPDEST JUMPDEST PUSH1 0x20 DUP3 MUL SWAP1 POP PUSH1 0x20 DUP2 ADD SWAP1 POP SWAP2 SWAP1 POP JUMP JUMPDEST PUSH1 0x0 DUP1 REVERT JUMPDEST PUSH1 0x0 DUP1 REVERT JUMPDEST PUSH1 0x0 PUSH8 0xFFFFFFFFFFFFFFFF DUP3 GT ISZERO PUSH3 0x1301 JUMPI PUSH3 0x1300 PUSH3 0xF0D JUMP JUMPDEST JUMPDEST PUSH1 0x20 DUP3 MUL SWAP1 POP PUSH1 0x20 DUP2 ADD SWAP1 POP SWAP2 SWAP1 POP JUMP JUMPDEST PUSH1 0x0 PUSH1 0x40 DUP3 DUP5 SUB SLT ISZERO PUSH3 0x132B JUMPI PUSH3 0x132A PUSH3 0x12D9 JUMP JUMPDEST JUMPDEST PUSH3 0x1337 PUSH1 0x40 PUSH3 0xF72 JUMP JUMPDEST SWAP1 POP PUSH1 0x0 PUSH3 0x1349 DUP5 DUP3 DUP6 ADD PUSH3 0xA10 JUMP JUMPDEST PUSH1 0x0 DUP4 ADD MSTORE POP PUSH1 0x20 DUP3 ADD CALLDATALOAD PUSH8 0xFFFFFFFFFFFFFFFF DUP2 GT ISZERO PUSH3 0x1370 JUMPI PUSH3 0x136F PUSH3 0x12DE JUMP JUMPDEST JUMPDEST PUSH3 0x137E DUP5 DUP3 DUP6 ADD PUSH3 0x11AF JUMP JUMPDEST PUSH1 0x20 DUP4 ADD MSTORE POP SWAP3 SWAP2 POP POP JUMP JUMPDEST PUSH1 0x0 PUSH3 0x13A1 PUSH3 0x139B DUP5 PUSH3 0x12E3 JUMP JUMPDEST PUSH3 0xF72 JUMP JUMPDEST SWAP1 POP DUP1 DUP4 DUP3 MSTORE PUSH1 0x20 DUP3 ADD SWAP1 POP PUSH1 0x20 DUP5 MUL DUP4 ADD DUP6 DUP2 GT ISZERO PUSH3 0x13C7 JUMPI PUSH3 0x13C6 PUSH3 0xFC0 JUMP JUMPDEST JUMPDEST DUP4 JUMPDEST DUP2 DUP2 LT ISZERO PUSH3 0x1415 JUMPI DUP1 CALLDATALOAD PUSH8 0xFFFFFFFFFFFFFFFF DUP2 GT ISZERO PUSH3 0x13F0 JUMPI PUSH3 0x13EF PUSH3 0xF08 JUMP JUMPDEST JUMPDEST DUP1 DUP7 ADD PUSH3 0x13FF DUP10 DUP3 PUSH3 0x1312 JUMP JUMPDEST DUP6 MSTORE PUSH1 0x20 DUP6 ADD SWAP5 POP POP POP PUSH1 0x20 DUP2 ADD SWAP1 POP PUSH3 0x13C9 JUMP JUMPDEST POP POP POP SWAP4 SWAP3 POP POP POP JUMP JUMPDEST PUSH1 0x0 DUP3 PUSH1 0x1F DUP4 ADD SLT PUSH3 0x1437 JUMPI PUSH3 0x1436 PUSH3 0xF08 JUMP JUMPDEST JUMPDEST DUP2 CALLDATALOAD PUSH3 0x1449 DUP5 DUP3 PUSH1 0x20 DUP7 ADD PUSH3 0x138A JUMP JUMPDEST SWAP2 POP POP SWAP3 SWAP2 POP POP JUMP JUMPDEST PUSH1 0x0 PUSH1 0x60 DUP3 DUP5 SUB SLT ISZERO PUSH3 0x146B JUMPI PUSH3 0x146A PUSH3 0x12D9 JUMP JUMPDEST JUMPDEST PUSH3 0x1477 PUSH1 0x60 PUSH3 0xF72 JUMP JUMPDEST SWAP1 POP PUSH1 0x0 PUSH3 0x1489 DUP5 DUP3 DUP6 ADD PUSH3 0xA10 JUMP JUMPDEST PUSH1 0x0 DUP4 ADD MSTORE POP PUSH1 0x20 DUP3 ADD CALLDATALOAD PUSH8 0xFFFFFFFFFFFFFFFF DUP2 GT ISZERO PUSH3 0x14B0 JUMPI PUSH3 0x14AF PUSH3 0x12DE JUMP JUMPDEST JUMPDEST PUSH3 0x14BE DUP5 DUP3 DUP6 ADD PUSH3 0x11AF JUMP JUMPDEST PUSH1 0x20 DUP4 ADD MSTORE POP PUSH1 0x40 DUP3 ADD CALLDATALOAD PUSH8 0xFFFFFFFFFFFFFFFF DUP2 GT ISZERO PUSH3 0x14E5 JUMPI PUSH3 0x14E4 PUSH3 0x12DE JUMP JUMPDEST JUMPDEST PUSH3 0x14F3 DUP5 DUP3 DUP6 ADD PUSH3 0x141F JUMP JUMPDEST PUSH1 0x40 DUP4 ADD MSTORE POP SWAP3 SWAP2 POP POP JUMP JUMPDEST PUSH1 0x0 PUSH3 0x1516 PUSH3 0x1510 DUP5 PUSH3 0x12AA JUMP JUMPDEST PUSH3 0xF72 JUMP JUMPDEST SWAP1 POP DUP1 DUP4 DUP3 MSTORE PUSH1 0x20 DUP3 ADD SWAP1 POP PUSH1 0x20 DUP5 MUL DUP4 ADD DUP6 DUP2 GT ISZERO PUSH3 0x153C JUMPI PUSH3 0x153B PUSH3 0xFC0 JUMP JUMPDEST JUMPDEST DUP4 JUMPDEST DUP2 DUP2 LT ISZERO PUSH3 0x158A JUMPI DUP1 CALLDATALOAD PUSH8 0xFFFFFFFFFFFFFFFF DUP2 GT ISZERO PUSH3 0x1565 JUMPI PUSH3 0x1564 PUSH3 0xF08 JUMP JUMPDEST JUMPDEST DUP1 DUP7 ADD PUSH3 0x1574 DUP10 DUP3 PUSH3 0x1452 JUMP JUMPDEST DUP6 MSTORE PUSH1 0x20 DUP6 ADD SWAP5 POP POP POP PUSH1 0x20 DUP2 ADD SWAP1 POP PUSH3 0x153E JUMP JUMPDEST POP POP POP SWAP4 SWAP3 POP POP POP JUMP JUMPDEST PUSH1 0x0 DUP3 PUSH1 0x1F DUP4 ADD SLT PUSH3 0x15AC JUMPI PUSH3 0x15AB PUSH3 0xF08 JUMP JUMPDEST JUMPDEST DUP2 CALLDATALOAD PUSH3 0x15BE DUP5 DUP3 PUSH1 0x20 DUP7 ADD PUSH3 0x14FF JUMP JUMPDEST SWAP2 POP POP SWAP3 SWAP2 POP POP JUMP JUMPDEST PUSH1 0x0 PUSH8 0xFFFFFFFFFFFFFFFF DUP3 GT ISZERO PUSH3 0x15E5 JUMPI PUSH3 0x15E4 PUSH3 0xF0D JUMP JUMPDEST JUMPDEST PUSH1 0x20 DUP3 MUL SWAP1 POP PUSH1 0x20 DUP2 ADD SWAP1 POP SWAP2 SWAP1 POP JUMP JUMPDEST PUSH1 0x0 PUSH20 0xFFFFFFFFFFFFFFFFFFFFFFFFFFFFFFFFFFFFFFFF DUP3 AND SWAP1 POP SWAP2 SWAP1 POP JUMP JUMPDEST PUSH1 0x0 PUSH3 0x1623 DUP3 PUSH3 0x15F6 JUMP JUMPDEST SWAP1 POP SWAP2 SWAP1 POP JUMP JUMPDEST PUSH3 0x1635 DUP2 PUSH3 0x1616 JUMP JUMPDEST DUP2 EQ PUSH3 0x1641 JUMPI PUSH1 0x0 DUP1 REVERT JUMPDEST POP JUMP JUMPDEST PUSH1 0x0 DUP2 CALLDATALOAD SWAP1 POP PUSH3 0x1655 DUP2 PUSH3 0x162A JUMP JUMPDEST SWAP3 SWAP2 POP POP JUMP JUMPDEST PUSH1 0x0 PUSH3 0x1672 PUSH3 0x166C DUP5 PUSH3 0x15C7 JUMP JUMPDEST PUSH3 0xF72 JUMP JUMPDEST SWAP1 POP DUP1 DUP4 DUP3 MSTORE PUSH1 0x20 DUP3 ADD SWAP1 POP PUSH1 0x20 DUP5 MUL DUP4 ADD DUP6 DUP2 GT ISZERO PUSH3 0x1698 JUMPI PUSH3 0x1697 PUSH3 0xFC0 JUMP JUMPDEST JUMPDEST DUP4 JUMPDEST DUP2 DUP2 LT ISZERO PUSH3 0x16C5 JUMPI DUP1 PUSH3 0x16B0 DUP9 DUP3 PUSH3 0x1644 JUMP JUMPDEST DUP5 MSTORE PUSH1 0x20 DUP5 ADD SWAP4 POP POP PUSH1 0x20 DUP2 ADD SWAP1 POP PUSH3 0x169A JUMP JUMPDEST POP POP POP SWAP4 SWAP3 POP POP POP JUMP JUMPDEST PUSH1 0x0 DUP3 PUSH1 0x1F DUP4 ADD SLT PUSH3 0x16E7 JUMPI PUSH3 0x16E6 PUSH3 0xF08 JUMP JUMPDEST JUMPDEST DUP2 CALLDATALOAD PUSH3 0x16F9 DUP5 DUP3 PUSH1 0x20 DUP7 ADD PUSH3 0x165B JUMP JUMPDEST SWAP2 POP POP SWAP3 SWAP2 POP POP JUMP JUMPDEST PUSH1 0x0 DUP1 PUSH1 0x0 DUP1 PUSH1 0x80 DUP6 DUP8 SUB SLT ISZERO PUSH3 0x171F JUMPI PUSH3 0x171E PUSH3 0x9AE JUMP JUMPDEST JUMPDEST PUSH1 0x0 DUP6 ADD CALLDATALOAD PUSH8 0xFFFFFFFFFFFFFFFF DUP2 GT ISZERO PUSH3 0x1740 JUMPI PUSH3 0x173F PUSH3 0x9B3 JUMP JUMPDEST JUMPDEST PUSH3 0x174E DUP8 DUP3 DUP9 ADD PUSH3 0x1277 JUMP JUMPDEST SWAP5 POP POP PUSH1 0x20 DUP6 ADD CALLDATALOAD PUSH8 0xFFFFFFFFFFFFFFFF DUP2 GT ISZERO PUSH3 0x1772 JUMPI PUSH3 0x1771 PUSH3 0x9B3 JUMP JUMPDEST JUMPDEST PUSH3 0x1780 DUP8 DUP3 DUP9 ADD PUSH3 0x1039 JUMP JUMPDEST SWAP4 POP POP PUSH1 0x40 DUP6 ADD CALLDATALOAD PUSH8 0xFFFFFFFFFFFFFFFF DUP2 GT ISZERO PUSH3 0x17A4 JUMPI PUSH3 0x17A3 PUSH3 0x9B3 JUMP JUMPDEST JUMPDEST PUSH3 0x17B2 DUP8 DUP3 DUP9 ADD PUSH3 0x1594 JUMP JUMPDEST SWAP3 POP POP PUSH1 0x60 DUP6 ADD CALLDATALOAD PUSH8 0xFFFFFFFFFFFFFFFF DUP2 GT ISZERO PUSH3 0x17D6 JUMPI PUSH3 0x17D5 PUSH3 0x9B3 JUMP JUMPDEST JUMPDEST PUSH3 0x17E4 DUP8 DUP3 DUP9 ADD PUSH3 0x16CF JUMP JUMPDEST SWAP2 POP POP SWAP3 SWAP6 SWAP2 SWAP5 POP SWAP3 POP JUMP JUMPDEST PUSH1 0x0 PUSH1 0x20 DUP3 DUP5 SUB SLT ISZERO PUSH3 0x1809 JUMPI PUSH3 0x1808 PUSH3 0x9AE JUMP JUMPDEST JUMPDEST PUSH1 0x0 PUSH3 0x1819 DUP5 DUP3 DUP6 ADD PUSH3 0x9D2 JUMP JUMPDEST SWAP2 POP POP SWAP3 SWAP2 POP POP JUMP JUMPDEST PUSH1 0x0 PUSH2 0x100 DUP4 ADD PUSH1 0x0 DUP4 ADD MLOAD DUP5 DUP3 SUB PUSH1 0x0 DUP7 ADD MSTORE PUSH3 0x1842 DUP3 DUP3 PUSH3 0xB8D JUMP JUMPDEST SWAP2 POP POP PUSH1 0x20 DUP4 ADD MLOAD DUP5 DUP3 SUB PUSH1 0x20 DUP7 ADD MSTORE PUSH3 0x185E DUP3 DUP3 PUSH3 0xC72 JUMP JUMPDEST SWAP2 POP POP PUSH1 0x40 DUP4 ADD MLOAD PUSH3 0x1875 PUSH1 0x40 DUP7 ADD DUP3 PUSH3 0xC3A JUMP JUMPDEST POP PUSH1 0x60 DUP4 ADD MLOAD PUSH3 0x188A PUSH1 0x60 DUP7 ADD DUP3 PUSH3 0xD4B JUMP JUMPDEST POP PUSH1 0x80 DUP4 ADD MLOAD PUSH3 0x189F PUSH1 0x80 DUP7 ADD DUP3 PUSH3 0xC3A JUMP JUMPDEST POP PUSH1 0xA0 DUP4 ADD MLOAD PUSH3 0x18B4 PUSH1 0xA0 DUP7 ADD DUP3 PUSH3 0xD68 JUMP JUMPDEST POP PUSH1 0xC0 DUP4 ADD MLOAD PUSH3 0x18C9 PUSH1 0xC0 DUP7 ADD DUP3 PUSH3 0xD68 JUMP JUMPDEST POP PUSH1 0xE0 DUP4 ADD MLOAD PUSH3 0x18DE PUSH1 0xE0 DUP7 ADD DUP3 PUSH3 0xC3A JUMP JUMPDEST POP DUP1 SWAP2 POP POP SWAP3 SWAP2 POP POP JUMP JUMPDEST PUSH1 0x0 PUSH1 0x20 DUP3 ADD SWAP1 POP DUP2 DUP2 SUB PUSH1 0x0 DUP4 ADD MSTORE PUSH3 0x1905 DUP2 DUP5 PUSH3 0x1822 JUMP JUMPDEST SWAP1 POP SWAP3 SWAP2 POP POP JUMP JUMPDEST PUSH3 0x1918 DUP2 PUSH3 0x1616 JUMP JUMPDEST DUP3 MSTORE POP POP JUMP JUMPDEST PUSH1 0x0 PUSH1 0x20 DUP3 ADD SWAP1 POP PUSH3 0x1935 PUSH1 0x0 DUP4 ADD DUP5 PUSH3 0x190D JUMP JUMPDEST SWAP3 SWAP2 POP POP JUMP JUMPDEST PUSH32 0x4E487B7100000000000000000000000000000000000000000000000000000000 PUSH1 0x0 MSTORE PUSH1 0x11 PUSH1 0x4 MSTORE PUSH1 0x24 PUSH1 0x0 REVERT JUMPDEST PUSH1 0x0 PUSH3 0x1977 DUP3 PUSH3 0x96C JUMP JUMPDEST SWAP2 POP PUSH3 0x1984 DUP4 PUSH3 0x96C JUMP JUMPDEST SWAP3 POP DUP3 DUP3 LT ISZERO PUSH3 0x199A JUMPI PUSH3 0x1999 PUSH3 0x193B JUMP JUMPDEST JUMPDEST DUP3 DUP3 SUB SWAP1 POP SWAP3 SWAP2 POP POP JUMP JUMPDEST PUSH32 0x4E487B7100000000000000000000000000000000000000000000000000000000 PUSH1 0x0 MSTORE PUSH1 0x32 PUSH1 0x4 MSTORE PUSH1 0x24 PUSH1 0x0 REVERT JUMPDEST PUSH1 0x0 PUSH3 0x19E1 DUP3 PUSH3 0x96C JUMP JUMPDEST SWAP2 POP PUSH32 0xFFFFFFFFFFFFFFFFFFFFFFFFFFFFFFFFFFFFFFFFFFFFFFFFFFFFFFFFFFFFFFFF DUP3 EQ ISZERO PUSH3 0x1A17 JUMPI PUSH3 0x1A16 PUSH3 0x193B JUMP JUMPDEST JUMPDEST PUSH1 0x1 DUP3 ADD SWAP1 POP SWAP2 SWAP1 POP JUMP JUMPDEST PUSH1 0x0 DUP3 DUP3 MSTORE PUSH1 0x20 DUP3 ADD SWAP1 POP SWAP3 SWAP2 POP POP JUMP JUMPDEST PUSH1 0x0 PUSH3 0x1A40 DUP3 PUSH3 0xA9A JUMP JUMPDEST PUSH3 0x1A4C DUP2 DUP6 PUSH3 0x1A22 JUMP JUMPDEST SWAP4 POP DUP4 PUSH1 0x20 DUP3 MUL DUP6 ADD PUSH3 0x1A60 DUP6 PUSH3 0xAB6 JUMP JUMPDEST DUP1 PUSH1 0x0 JUMPDEST DUP6 DUP2 LT ISZERO PUSH3 0x1AA2 JUMPI DUP5 DUP5 SUB DUP10 MSTORE DUP2 MLOAD PUSH3 0x1A80 DUP6 DUP3 PUSH3 0xB6A JUMP JUMPDEST SWAP5 POP PUSH3 0x1A8D DUP4 PUSH3 0xB80 JUMP JUMPDEST SWAP3 POP PUSH1 0x20 DUP11 ADD SWAP10 POP POP PUSH1 0x1 DUP2 ADD SWAP1 POP PUSH3 0x1A64 JUMP JUMPDEST POP DUP3 SWAP8 POP DUP8 SWAP6 POP POP POP POP POP POP SWAP3 SWAP2 POP POP JUMP JUMPDEST PUSH1 0x0 DUP3 DUP3 MSTORE PUSH1 0x20 DUP3 ADD SWAP1 POP SWAP3 SWAP2 POP POP JUMP JUMPDEST PUSH1 0x0 PUSH3 0x1AD2 DUP3 PUSH3 0xC0E JUMP JUMPDEST PUSH3 0x1ADE DUP2 DUP6 PUSH3 0x1AB4 JUMP JUMPDEST SWAP4 POP PUSH3 0x1AEB DUP4 PUSH3 0xC2A JUMP JUMPDEST DUP1 PUSH1 0x0 JUMPDEST DUP4 DUP2 LT ISZERO PUSH3 0x1B22 JUMPI DUP2 MLOAD PUSH3 0x1B06 DUP9 DUP3 PUSH3 0xC4B JUMP JUMPDEST SWAP8 POP PUSH3 0x1B13 DUP4 PUSH3 0xC65 JUMP JUMPDEST SWAP3 POP POP PUSH1 0x1 DUP2 ADD SWAP1 POP PUSH3 0x1AEF JUMP JUMPDEST POP DUP6 SWAP4 POP POP POP POP SWAP3 SWAP2 POP POP JUMP JUMPDEST PUSH1 0x0 DUP2 MLOAD SWAP1 POP SWAP2 SWAP1 POP JUMP JUMPDEST PUSH1 0x0 DUP3 DUP3 MSTORE PUSH1 0x20 DUP3 ADD SWAP1 POP SWAP3 SWAP2 POP POP JUMP JUMPDEST PUSH1 0x0 DUP2 SWAP1 POP PUSH1 0x20 DUP3 ADD SWAP1 POP SWAP2 SWAP1 POP JUMP JUMPDEST PUSH3 0x1B66 DUP2 PUSH3 0x9E9 JUMP JUMPDEST DUP3 MSTORE POP POP JUMP JUMPDEST PUSH1 0x0 DUP2 MLOAD SWAP1 POP SWAP2 SWAP1 POP JUMP JUMPDEST PUSH1 0x0 DUP3 DUP3 MSTORE PUSH1 0x20 DUP3 ADD SWAP1 POP SWAP3 SWAP2 POP POP JUMP JUMPDEST PUSH1 0x0 DUP2 SWAP1 POP PUSH1 0x20 DUP3 ADD SWAP1 POP SWAP2 SWAP1 POP JUMP JUMPDEST PUSH1 0x0 PUSH1 0x40 DUP4 ADD PUSH1 0x0 DUP4 ADD MLOAD PUSH3 0x1BB2 PUSH1 0x0 DUP7 ADD DUP3 PUSH3 0x1B5B JUMP JUMPDEST POP PUSH1 0x20 DUP4 ADD MLOAD DUP5 DUP3 SUB PUSH1 0x20 DUP7 ADD MSTORE PUSH3 0x1BCC DUP3 DUP3 PUSH3 0xB29 JUMP JUMPDEST SWAP2 POP POP DUP1 SWAP2 POP POP SWAP3 SWAP2 POP POP JUMP JUMPDEST PUSH1 0x0 PUSH3 0x1BE7 DUP4 DUP4 PUSH3 0x1B98 JUMP JUMPDEST SWAP1 POP SWAP3 SWAP2 POP POP JUMP JUMPDEST PUSH1 0x0 PUSH1 0x20 DUP3 ADD SWAP1 POP SWAP2 SWAP1 POP JUMP JUMPDEST PUSH1 0x0 PUSH3 0x1C09 DUP3 PUSH3 0x1B6C JUMP JUMPDEST PUSH3 0x1C15 DUP2 DUP6 PUSH3 0x1B77 JUMP JUMPDEST SWAP4 POP DUP4 PUSH1 0x20 DUP3 MUL DUP6 ADD PUSH3 0x1C29 DUP6 PUSH3 0x1B88 JUMP JUMPDEST DUP1 PUSH1 0x0 JUMPDEST DUP6 DUP2 LT ISZERO PUSH3 0x1C6B JUMPI DUP5 DUP5 SUB DUP10 MSTORE DUP2 MLOAD PUSH3 0x1C49 DUP6 DUP3 PUSH3 0x1BD9 JUMP JUMPDEST SWAP5 POP PUSH3 0x1C56 DUP4 PUSH3 0x1BEF JUMP JUMPDEST SWAP3 POP PUSH1 0x20 DUP11 ADD SWAP10 POP POP PUSH1 0x1 DUP2 ADD SWAP1 POP PUSH3 0x1C2D JUMP JUMPDEST POP DUP3 SWAP8 POP DUP8 SWAP6 POP POP POP POP POP POP SWAP3 SWAP2 POP POP JUMP JUMPDEST PUSH1 0x0 PUSH1 0x60 DUP4 ADD PUSH1 0x0 DUP4 ADD MLOAD PUSH3 0x1C97 PUSH1 0x0 DUP7 ADD DUP3 PUSH3 0x1B5B JUMP JUMPDEST POP PUSH1 0x20 DUP4 ADD MLOAD DUP5 DUP3 SUB PUSH1 0x20 DUP7 ADD MSTORE PUSH3 0x1CB1 DUP3 DUP3 PUSH3 0xB29 JUMP JUMPDEST SWAP2 POP POP PUSH1 0x40 DUP4 ADD MLOAD DUP5 DUP3 SUB PUSH1 0x40 DUP7 ADD MSTORE PUSH3 0x1CCD DUP3 DUP3 PUSH3 0x1BFC JUMP JUMPDEST SWAP2 POP POP DUP1 SWAP2 POP POP SWAP3 SWAP2 POP POP JUMP JUMPDEST PUSH1 0x0 PUSH3 0x1CE8 DUP4 DUP4 PUSH3 0x1C7D JUMP JUMPDEST SWAP1 POP SWAP3 SWAP2 POP POP JUMP JUMPDEST PUSH1 0x0 PUSH1 0x20 DUP3 ADD SWAP1 POP SWAP2 SWAP1 POP JUMP JUMPDEST PUSH1 0x0 PUSH3 0x1D0A DUP3 PUSH3 0x1B2F JUMP JUMPDEST PUSH3 0x1D16 DUP2 DUP6 PUSH3 0x1B3A JUMP JUMPDEST SWAP4 POP DUP4 PUSH1 0x20 DUP3 MUL DUP6 ADD PUSH3 0x1D2A DUP6 PUSH3 0x1B4B JUMP JUMPDEST DUP1 PUSH1 0x0 JUMPDEST DUP6 DUP2 LT ISZERO PUSH3 0x1D6C JUMPI DUP5 DUP5 SUB DUP10 MSTORE DUP2 MLOAD PUSH3 0x1D4A DUP6 DUP3 PUSH3 0x1CDA JUMP JUMPDEST SWAP5 POP PUSH3 0x1D57 DUP4 PUSH3 0x1CF0 JUMP JUMPDEST SWAP3 POP PUSH1 0x20 DUP11 ADD SWAP10 POP POP PUSH1 0x1 DUP2 ADD SWAP1 POP PUSH3 0x1D2E JUMP JUMPDEST POP DUP3 SWAP8 POP DUP8 SWAP6 POP POP POP POP POP POP SWAP3 SWAP2 POP POP JUMP JUMPDEST PUSH1 0x0 DUP2 MLOAD SWAP1 POP SWAP2 SWAP1 POP JUMP JUMPDEST PUSH1 0x0 DUP3 DUP3 MSTORE PUSH1 0x20 DUP3 ADD SWAP1 POP SWAP3 SWAP2 POP POP JUMP JUMPDEST PUSH1 0x0 DUP2 SWAP1 POP PUSH1 0x20 DUP3 ADD SWAP1 POP SWAP2 SWAP1 POP JUMP JUMPDEST PUSH3 0x1DB5 DUP2 PUSH3 0x1616 JUMP JUMPDEST DUP3 MSTORE POP POP JUMP JUMPDEST PUSH1 0x0 PUSH3 0x1DC9 DUP4 DUP4 PUSH3 0x1DAA JUMP JUMPDEST PUSH1 0x20 DUP4 ADD SWAP1 POP SWAP3 SWAP2 POP POP JUMP JUMPDEST PUSH1 0x0 PUSH1 0x20 DUP3 ADD SWAP1 POP SWAP2 SWAP1 POP JUMP JUMPDEST PUSH1 0x0 PUSH3 0x1DEF DUP3 PUSH3 0x1D7E JUMP JUMPDEST PUSH3 0x1DFB DUP2 DUP6 PUSH3 0x1D89 JUMP JUMPDEST SWAP4 POP PUSH3 0x1E08 DUP4 PUSH3 0x1D9A JUMP JUMPDEST DUP1 PUSH1 0x0 JUMPDEST DUP4 DUP2 LT ISZERO PUSH3 0x1E3F JUMPI DUP2 MLOAD PUSH3 0x1E23 DUP9 DUP3 PUSH3 0x1DBB JUMP JUMPDEST SWAP8 POP PUSH3 0x1E30 DUP4 PUSH3 0x1DD5 JUMP JUMPDEST SWAP3 POP POP PUSH1 0x1 DUP2 ADD SWAP1 POP PUSH3 0x1E0C JUMP JUMPDEST POP DUP6 SWAP4 POP POP POP POP SWAP3 SWAP2 POP POP JUMP JUMPDEST PUSH1 0x0 PUSH1 0xA0 DUP3 ADD SWAP1 POP PUSH3 0x1E63 PUSH1 0x0 DUP4 ADD DUP9 PUSH3 0x976 JUMP JUMPDEST DUP2 DUP2 SUB PUSH1 0x20 DUP4 ADD MSTORE PUSH3 0x1E77 DUP2 DUP8 PUSH3 0x1A33 JUMP JUMPDEST SWAP1 POP DUP2 DUP2 SUB PUSH1 0x40 DUP4 ADD MSTORE PUSH3 0x1E8D DUP2 DUP7 PUSH3 0x1AC5 JUMP JUMPDEST SWAP1 POP DUP2 DUP2 SUB PUSH1 0x60 DUP4 ADD MSTORE PUSH3 0x1EA3 DUP2 DUP6 PUSH3 0x1CFD JUMP JUMPDEST SWAP1 POP DUP2 DUP2 SUB PUSH1 0x80 DUP4 ADD MSTORE PUSH3 0x1EB9 DUP2 DUP5 PUSH3 0x1DE2 JUMP JUMPDEST SWAP1 POP SWAP7 SWAP6 POP POP POP POP POP POP JUMP JUMPDEST PUSH1 0x0 DUP3 DUP3 MSTORE PUSH1 0x20 DUP3 ADD SWAP1 POP SWAP3 SWAP2 POP POP JUMP JUMPDEST PUSH32 0x506F6C6C20646F65736E27742065786973742100000000000000000000000000 PUSH1 0x0 DUP3 ADD MSTORE POP JUMP JUMPDEST PUSH1 0x0 PUSH3 0x1F0E PUSH1 0x13 DUP4 PUSH3 0x1EC5 JUMP JUMPDEST SWAP2 POP PUSH3 0x1F1B DUP3 PUSH3 0x1ED6 JUMP JUMPDEST PUSH1 0x20 DUP3 ADD SWAP1 POP SWAP2 SWAP1 POP JUMP JUMPDEST PUSH1 0x0 PUSH1 0x20 DUP3 ADD SWAP1 POP DUP2 DUP2 SUB PUSH1 0x0 DUP4 ADD MSTORE PUSH3 0x1F41 DUP2 PUSH3 0x1EFF JUMP JUMPDEST SWAP1 POP SWAP2 SWAP1 POP JUMP JUMPDEST PUSH1 0x0 PUSH3 0x1F5F PUSH3 0x1F59 DUP5 PUSH3 0x111F JUMP JUMPDEST PUSH3 0xF72 JUMP JUMPDEST SWAP1 POP DUP3 DUP2 MSTORE PUSH1 0x20 DUP2 ADD DUP5 DUP5 DUP5 ADD GT ISZERO PUSH3 0x1F7E JUMPI PUSH3 0x1F7D PUSH3 0x111A JUMP JUMPDEST JUMPDEST PUSH3 0x1F8B DUP5 DUP3 DUP6 PUSH3 0xAE2 JUMP JUMPDEST POP SWAP4 SWAP3 POP POP POP JUMP JUMPDEST PUSH1 0x0 DUP3 PUSH1 0x1F DUP4 ADD SLT PUSH3 0x1FAB JUMPI PUSH3 0x1FAA PUSH3 0xF08 JUMP JUMPDEST JUMPDEST DUP2 MLOAD PUSH3 0x1FBD DUP5 DUP3 PUSH1 0x20 DUP7 ADD PUSH3 0x1F48 JUMP JUMPDEST SWAP2 POP POP SWAP3 SWAP2 POP POP JUMP JUMPDEST PUSH1 0x0 PUSH3 0x1FDD PUSH3 0x1FD7 DUP5 PUSH3 0x10EB JUMP JUMPDEST PUSH3 0xF72 JUMP JUMPDEST SWAP1 POP DUP1 DUP4 DUP3 MSTORE PUSH1 0x20 DUP3 ADD SWAP1 POP PUSH1 0x20 DUP5 MUL DUP4 ADD DUP6 DUP2 GT ISZERO PUSH3 0x2003 JUMPI PUSH3 0x2002 PUSH3 0xFC0 JUMP JUMPDEST JUMPDEST DUP4 JUMPDEST DUP2 DUP2 LT ISZERO PUSH3 0x2051 JUMPI DUP1 MLOAD PUSH8 0xFFFFFFFFFFFFFFFF DUP2 GT ISZERO PUSH3 0x202C JUMPI PUSH3 0x202B PUSH3 0xF08 JUMP JUMPDEST JUMPDEST DUP1 DUP7 ADD PUSH3 0x203B DUP10 DUP3 PUSH3 0x1F93 JUMP JUMPDEST DUP6 MSTORE PUSH1 0x20 DUP6 ADD SWAP5 POP POP POP PUSH1 0x20 DUP2 ADD SWAP1 POP PUSH3 0x2005 JUMP JUMPDEST POP POP POP SWAP4 SWAP3 POP POP POP JUMP JUMPDEST PUSH1 0x0 DUP3 PUSH1 0x1F DUP4 ADD SLT PUSH3 0x2073 JUMPI PUSH3 0x2072 PUSH3 0xF08 JUMP JUMPDEST JUMPDEST DUP2 MLOAD PUSH3 0x2085 DUP5 DUP3 PUSH1 0x20 DUP7 ADD PUSH3 0x1FC6 JUMP JUMPDEST SWAP2 POP POP SWAP3 SWAP2 POP POP JUMP JUMPDEST PUSH1 0x0 DUP2 MLOAD SWAP1 POP PUSH3 0x209F DUP2 PUSH3 0x9B8 JUMP JUMPDEST SWAP3 SWAP2 POP POP JUMP JUMPDEST PUSH1 0x0 PUSH3 0x20BC PUSH3 0x20B6 DUP5 PUSH3 0xF91 JUMP JUMPDEST PUSH3 0xF72 JUMP JUMPDEST SWAP1 POP DUP1 DUP4 DUP3 MSTORE PUSH1 0x20 DUP3 ADD SWAP1 POP PUSH1 0x20 DUP5 MUL DUP4 ADD DUP6 DUP2 GT ISZERO PUSH3 0x20E2 JUMPI PUSH3 0x20E1 PUSH3 0xFC0 JUMP JUMPDEST JUMPDEST DUP4 JUMPDEST DUP2 DUP2 LT ISZERO PUSH3 0x210F JUMPI DUP1 PUSH3 0x20FA DUP9 DUP3 PUSH3 0x208E JUMP JUMPDEST DUP5 MSTORE PUSH1 0x20 DUP5 ADD SWAP4 POP POP PUSH1 0x20 DUP2 ADD SWAP1 POP PUSH3 0x20E4 JUMP JUMPDEST POP POP POP SWAP4 SWAP3 POP POP POP JUMP JUMPDEST PUSH1 0x0 DUP3 PUSH1 0x1F DUP4 ADD SLT PUSH3 0x2131 JUMPI PUSH3 0x2130 PUSH3 0xF08 JUMP JUMPDEST JUMPDEST DUP2 MLOAD PUSH3 0x2143 DUP5 DUP3 PUSH1 0x20 DUP7 ADD PUSH3 0x20A5 JUMP JUMPDEST SWAP2 POP POP SWAP3 SWAP2 POP POP JUMP JUMPDEST PUSH3 0x2157 DUP2 PUSH3 0xD5C JUMP JUMPDEST DUP2 EQ PUSH3 0x2163 JUMPI PUSH1 0x0 DUP1 REVERT JUMPDEST POP JUMP JUMPDEST PUSH1 0x0 DUP2 MLOAD SWAP1 POP PUSH3 0x2177 DUP2 PUSH3 0x214C JUMP JUMPDEST SWAP3 SWAP2 POP POP JUMP JUMPDEST PUSH1 0x0 DUP1 PUSH1 0x0 DUP1 PUSH1 0x0 DUP1 PUSH1 0xC0 DUP8 DUP10 SUB SLT ISZERO PUSH3 0x219D JUMPI PUSH3 0x219C PUSH3 0x9AE JUMP JUMPDEST JUMPDEST PUSH1 0x0 DUP8 ADD MLOAD PUSH8 0xFFFFFFFFFFFFFFFF DUP2 GT ISZERO PUSH3 0x21BE JUMPI PUSH3 0x21BD PUSH3 0x9B3 JUMP JUMPDEST JUMPDEST PUSH3 0x21CC DUP10 DUP3 DUP11 ADD PUSH3 0x205B JUMP JUMPDEST SWAP7 POP POP PUSH1 0x20 DUP8 ADD MLOAD PUSH8 0xFFFFFFFFFFFFFFFF DUP2 GT ISZERO PUSH3 0x21F0 JUMPI PUSH3 0x21EF PUSH3 0x9B3 JUMP JUMPDEST JUMPDEST PUSH3 0x21FE DUP10 DUP3 DUP11 ADD PUSH3 0x2119 JUMP JUMPDEST SWAP6 POP POP PUSH1 0x40 PUSH3 0x2211 DUP10 DUP3 DUP11 ADD PUSH3 0x208E JUMP JUMPDEST SWAP5 POP POP PUSH1 0x60 PUSH3 0x2224 DUP10 DUP3 DUP11 ADD PUSH3 0x208E JUMP JUMPDEST SWAP4 POP POP PUSH1 0x80 PUSH3 0x2237 DUP10 DUP3 DUP11 ADD PUSH3 0x2166 JUMP JUMPDEST SWAP3 POP POP PUSH1 0xA0 PUSH3 0x224A DUP10 DUP3 DUP11 ADD PUSH3 0x208E JUMP JUMPDEST SWAP2 POP POP SWAP3 SWAP6 POP SWAP3 SWAP6 POP SWAP3 SWAP6 JUMP JUMPDEST PUSH1 0x0 PUSH1 0x20 DUP3 DUP5 SUB SLT ISZERO PUSH3 0x2270 JUMPI PUSH3 0x226F PUSH3 0x9AE JUMP JUMPDEST JUMPDEST PUSH1 0x0 PUSH3 0x2280 DUP5 DUP3 DUP6 ADD PUSH3 0x2166 JUMP JUMPDEST SWAP2 POP POP SWAP3 SWAP2 POP POP JUMP JUMPDEST PUSH1 0x0 DUP2 MLOAD SWAP1 POP PUSH3 0x229A DUP2 PUSH3 0x162A JUMP JUMPDEST SWAP3 SWAP2 POP POP JUMP JUMPDEST PUSH1 0x0 PUSH1 0x20 DUP3 DUP5 SUB SLT ISZERO PUSH3 0x22B9 JUMPI PUSH3 0x22B8 PUSH3 0x9AE JUMP JUMPDEST JUMPDEST PUSH1 0x0 PUSH3 0x22C9 DUP5 DUP3 DUP6 ADD PUSH3 0x2289 JUMP JUMPDEST SWAP2 POP POP SWAP3 SWAP2 POP POP JUMP JUMPDEST PUSH32 0x596F75277265206E6F7420656C696769626C6520666F72207468697320706F6C PUSH1 0x0 DUP3 ADD MSTORE PUSH32 0x6C21000000000000000000000000000000000000000000000000000000000000 PUSH1 0x20 DUP3 ADD MSTORE POP JUMP JUMPDEST PUSH1 0x0 PUSH3 0x2330 PUSH1 0x22 DUP4 PUSH3 0x1EC5 JUMP JUMPDEST SWAP2 POP PUSH3 0x233D DUP3 PUSH3 0x22D2 JUMP JUMPDEST PUSH1 0x40 DUP3 ADD SWAP1 POP SWAP2 SWAP1 POP JUMP JUMPDEST PUSH1 0x0 PUSH1 0x20 DUP3 ADD SWAP1 POP DUP2 DUP2 SUB PUSH1 0x0 DUP4 ADD MSTORE PUSH3 0x2363 DUP2 PUSH3 0x2321 JUMP JUMPDEST SWAP1 POP SWAP2 SWAP1 POP JUMP INVALID PUSH1 0x80 PUSH1 0x40 MSTORE CALLVALUE DUP1 ISZERO PUSH3 0x11 JUMPI PUSH1 0x0 DUP1 REVERT JUMPDEST POP PUSH1 0x40 MLOAD PUSH3 0x308A CODESIZE SUB DUP1 PUSH3 0x308A DUP4 CODECOPY DUP2 DUP2 ADD PUSH1 0x40 MSTORE DUP2 ADD SWAP1 PUSH3 0x37 SWAP2 SWAP1 PUSH3 0xF5D JUMP JUMPDEST DUP4 PUSH1 0x7 SWAP1 DUP1 MLOAD SWAP1 PUSH1 0x20 ADD SWAP1 PUSH3 0x4F SWAP3 SWAP2 SWAP1 PUSH3 0x4B7 JUMP JUMPDEST POP DUP3 PUSH1 0x8 SWAP1 DUP1 MLOAD SWAP1 PUSH1 0x20 ADD SWAP1 PUSH3 0x68 SWAP3 SWAP2 SWAP1 PUSH3 0x51E JUMP JUMPDEST POP DUP1 PUSH1 0xA PUSH1 0x0 ADD SWAP1 DUP1 MLOAD SWAP1 PUSH1 0x20 ADD SWAP1 PUSH3 0x84 SWAP3 SWAP2 SWAP1 PUSH3 0x570 JUMP JUMPDEST POP PUSH3 0xA0 DUP2 PUSH1 0xA PUSH3 0x118 PUSH1 0x20 SHL PUSH3 0xC14 OR SWAP1 SWAP2 SWAP1 PUSH1 0x20 SHR JUMP JUMPDEST PUSH3 0xBE DUP3 PUSH1 0x3 PUSH1 0x9 PUSH3 0x1BD PUSH1 0x20 SHL PUSH3 0xCB2 OR SWAP1 SWAP3 SWAP2 SWAP1 PUSH1 0x20 SHR JUMP JUMPDEST ORIGIN PUSH1 0x5 PUSH1 0x0 PUSH2 0x100 EXP DUP2 SLOAD DUP2 PUSH20 0xFFFFFFFFFFFFFFFFFFFFFFFFFFFFFFFFFFFFFFFF MUL NOT AND SWAP1 DUP4 PUSH20 0xFFFFFFFFFFFFFFFFFFFFFFFFFFFFFFFFFFFFFFFF AND MUL OR SWAP1 SSTORE POP DUP5 PUSH1 0x4 DUP2 SWAP1 SSTORE POP TIMESTAMP PUSH1 0x6 DUP2 SWAP1 SSTORE POP POP POP POP POP POP PUSH3 0x1153 JUMP JUMPDEST PUSH1 0x0 JUMPDEST DUP2 MLOAD DUP2 PUSH1 0xFF AND LT ISZERO PUSH3 0x1B8 JUMPI PUSH1 0x1 DUP4 PUSH1 0x1 ADD PUSH1 0x0 DUP5 DUP5 PUSH1 0xFF AND DUP2 MLOAD DUP2 LT PUSH3 0x149 JUMPI PUSH3 0x148 PUSH3 0x1061 JUMP JUMPDEST JUMPDEST PUSH1 0x20 MUL PUSH1 0x20 ADD ADD MLOAD PUSH20 0xFFFFFFFFFFFFFFFFFFFFFFFFFFFFFFFFFFFFFFFF AND PUSH20 0xFFFFFFFFFFFFFFFFFFFFFFFFFFFFFFFFFFFFFFFF AND DUP2 MSTORE PUSH1 0x20 ADD SWAP1 DUP2 MSTORE PUSH1 0x20 ADD PUSH1 0x0 KECCAK256 PUSH1 0x0 PUSH2 0x100 EXP DUP2 SLOAD DUP2 PUSH1 0xFF MUL NOT AND SWAP1 DUP4 ISZERO ISZERO MUL OR SWAP1 SSTORE POP DUP1 DUP1 PUSH3 0x1AF SWAP1 PUSH3 0x10BF JUMP JUMPDEST SWAP2 POP POP PUSH3 0x11B JUMP JUMPDEST POP POP POP JUMP JUMPDEST PUSH1 0x0 JUMPDEST DUP3 MLOAD DUP2 PUSH1 0xFF AND LT ISZERO PUSH3 0x4B1 JUMPI DUP2 PUSH1 0x1 DUP2 PUSH1 0x1 DUP2 SLOAD ADD DUP1 DUP3 SSTORE DUP1 SWAP2 POP POP SUB SWAP1 PUSH1 0x0 MSTORE PUSH1 0x20 PUSH1 0x0 KECCAK256 POP POP DUP4 PUSH1 0x1 DUP2 PUSH1 0x1 DUP2 SLOAD ADD DUP1 DUP3 SSTORE DUP1 SWAP2 POP POP SUB SWAP1 PUSH1 0x0 MSTORE PUSH1 0x20 PUSH1 0x0 KECCAK256 SWAP1 POP POP DUP1 DUP5 DUP3 PUSH1 0xFF AND DUP2 SLOAD DUP2 LT PUSH3 0x220 JUMPI PUSH3 0x21F PUSH3 0x1061 JUMP JUMPDEST JUMPDEST SWAP1 PUSH1 0x0 MSTORE PUSH1 0x20 PUSH1 0x0 KECCAK256 SWAP1 PUSH1 0x3 MUL ADD PUSH1 0x0 ADD PUSH1 0x0 PUSH2 0x100 EXP DUP2 SLOAD DUP2 PUSH1 0xFF MUL NOT AND SWAP1 DUP4 PUSH1 0xFF AND MUL OR SWAP1 SSTORE POP DUP3 DUP2 PUSH1 0xFF AND DUP2 MLOAD DUP2 LT PUSH3 0x262 JUMPI PUSH3 0x261 PUSH3 0x1061 JUMP JUMPDEST JUMPDEST PUSH1 0x20 MUL PUSH1 0x20 ADD ADD MLOAD PUSH1 0x20 ADD MLOAD DUP5 DUP3 PUSH1 0xFF AND DUP2 SLOAD DUP2 LT PUSH3 0x287 JUMPI PUSH3 0x286 PUSH3 0x1061 JUMP JUMPDEST JUMPDEST SWAP1 PUSH1 0x0 MSTORE PUSH1 0x20 PUSH1 0x0 KECCAK256 SWAP1 PUSH1 0x3 MUL ADD PUSH1 0x1 ADD SWAP1 DUP1 MLOAD SWAP1 PUSH1 0x20 ADD SWAP1 PUSH3 0x2AD SWAP3 SWAP2 SWAP1 PUSH3 0x5FF JUMP JUMPDEST POP PUSH1 0x0 JUMPDEST DUP4 DUP3 PUSH1 0xFF AND DUP2 MLOAD DUP2 LT PUSH3 0x2CA JUMPI PUSH3 0x2C9 PUSH3 0x1061 JUMP JUMPDEST JUMPDEST PUSH1 0x20 MUL PUSH1 0x20 ADD ADD MLOAD PUSH1 0x40 ADD MLOAD MLOAD DUP2 PUSH1 0xFF AND LT ISZERO PUSH3 0x49A JUMPI DUP3 DUP3 PUSH1 0xFF AND DUP2 SLOAD DUP2 LT PUSH3 0x2FB JUMPI PUSH3 0x2FA PUSH3 0x1061 JUMP JUMPDEST JUMPDEST SWAP1 PUSH1 0x0 MSTORE PUSH1 0x20 PUSH1 0x0 KECCAK256 ADD PUSH1 0x1 DUP2 PUSH1 0x1 DUP2 SLOAD ADD DUP1 DUP3 SSTORE DUP1 SWAP2 POP POP SUB SWAP1 PUSH1 0x0 MSTORE PUSH1 0x20 PUSH1 0x0 KECCAK256 POP POP DUP5 DUP3 PUSH1 0xFF AND DUP2 SLOAD DUP2 LT PUSH3 0x339 JUMPI PUSH3 0x338 PUSH3 0x1061 JUMP JUMPDEST JUMPDEST SWAP1 PUSH1 0x0 MSTORE PUSH1 0x20 PUSH1 0x0 KECCAK256 SWAP1 PUSH1 0x3 MUL ADD PUSH1 0x2 ADD PUSH1 0x1 DUP2 PUSH1 0x1 DUP2 SLOAD ADD DUP1 DUP3 SSTORE DUP1 SWAP2 POP POP SUB SWAP1 PUSH1 0x0 MSTORE PUSH1 0x20 PUSH1 0x0 KECCAK256 SWAP1 POP POP DUP1 DUP6 DUP4 PUSH1 0xFF AND DUP2 SLOAD DUP2 LT PUSH3 0x380 JUMPI PUSH3 0x37F PUSH3 0x1061 JUMP JUMPDEST JUMPDEST SWAP1 PUSH1 0x0 MSTORE PUSH1 0x20 PUSH1 0x0 KECCAK256 SWAP1 PUSH1 0x3 MUL ADD PUSH1 0x2 ADD DUP3 PUSH1 0xFF AND DUP2 SLOAD DUP2 LT PUSH3 0x3A9 JUMPI PUSH3 0x3A8 PUSH3 0x1061 JUMP JUMPDEST JUMPDEST SWAP1 PUSH1 0x0 MSTORE PUSH1 0x20 PUSH1 0x0 KECCAK256 SWAP1 PUSH1 0x2 MUL ADD PUSH1 0x0 ADD PUSH1 0x0 PUSH2 0x100 EXP DUP2 SLOAD DUP2 PUSH1 0xFF MUL NOT AND SWAP1 DUP4 PUSH1 0xFF AND MUL OR SWAP1 SSTORE POP DUP4 DUP3 PUSH1 0xFF AND DUP2 MLOAD DUP2 LT PUSH3 0x3EB JUMPI PUSH3 0x3EA PUSH3 0x1061 JUMP JUMPDEST JUMPDEST PUSH1 0x20 MUL PUSH1 0x20 ADD ADD MLOAD PUSH1 0x40 ADD MLOAD DUP2 PUSH1 0xFF AND DUP2 MLOAD DUP2 LT PUSH3 0x40F JUMPI PUSH3 0x40E PUSH3 0x1061 JUMP JUMPDEST JUMPDEST PUSH1 0x20 MUL PUSH1 0x20 ADD ADD MLOAD PUSH1 0x20 ADD MLOAD DUP6 DUP4 PUSH1 0xFF AND DUP2 SLOAD DUP2 LT PUSH3 0x434 JUMPI PUSH3 0x433 PUSH3 0x1061 JUMP JUMPDEST JUMPDEST SWAP1 PUSH1 0x0 MSTORE PUSH1 0x20 PUSH1 0x0 KECCAK256 SWAP1 PUSH1 0x3 MUL ADD PUSH1 0x2 ADD DUP3 PUSH1 0xFF AND DUP2 SLOAD DUP2 LT PUSH3 0x45D JUMPI PUSH3 0x45C PUSH3 0x1061 JUMP JUMPDEST JUMPDEST SWAP1 PUSH1 0x0 MSTORE PUSH1 0x20 PUSH1 0x0 KECCAK256 SWAP1 PUSH1 0x2 MUL ADD PUSH1 0x1 ADD SWAP1 DUP1 MLOAD SWAP1 PUSH1 0x20 ADD SWAP1 PUSH3 0x483 SWAP3 SWAP2 SWAP1 PUSH3 0x5FF JUMP JUMPDEST POP DUP1 DUP1 PUSH3 0x491 SWAP1 PUSH3 0x10BF JUMP JUMPDEST SWAP2 POP POP PUSH3 0x2B1 JUMP JUMPDEST POP DUP1 DUP1 PUSH3 0x4A8 SWAP1 PUSH3 0x10BF JUMP JUMPDEST SWAP2 POP POP PUSH3 0x1C0 JUMP JUMPDEST POP POP POP POP JUMP JUMPDEST DUP3 DUP1 SLOAD DUP3 DUP3 SSTORE SWAP1 PUSH1 0x0 MSTORE PUSH1 0x20 PUSH1 0x0 KECCAK256 SWAP1 DUP2 ADD SWAP3 DUP3 ISZERO PUSH3 0x50B JUMPI SWAP2 PUSH1 0x20 MUL DUP3 ADD JUMPDEST DUP3 DUP2 GT ISZERO PUSH3 0x50A JUMPI DUP3 MLOAD DUP3 SWAP1 DUP1 MLOAD SWAP1 PUSH1 0x20 ADD SWAP1 PUSH3 0x4F9 SWAP3 SWAP2 SWAP1 PUSH3 0x5FF JUMP JUMPDEST POP SWAP2 PUSH1 0x20 ADD SWAP2 SWAP1 PUSH1 0x1 ADD SWAP1 PUSH3 0x4D8 JUMP JUMPDEST JUMPDEST POP SWAP1 POP PUSH3 0x51A SWAP2 SWAP1 PUSH3 0x690 JUMP JUMPDEST POP SWAP1 JUMP JUMPDEST DUP3 DUP1 SLOAD DUP3 DUP3 SSTORE SWAP1 PUSH1 0x0 MSTORE PUSH1 0x20 PUSH1 0x0 KECCAK256 SWAP1 DUP2 ADD SWAP3 DUP3 ISZERO PUSH3 0x55D JUMPI SWAP2 PUSH1 0x20 MUL DUP3 ADD JUMPDEST DUP3 DUP2 GT ISZERO PUSH3 0x55C JUMPI DUP3 MLOAD DUP3 SSTORE SWAP2 PUSH1 0x20 ADD SWAP2 SWAP1 PUSH1 0x1 ADD SWAP1 PUSH3 0x53F JUMP JUMPDEST JUMPDEST POP SWAP1 POP PUSH3 0x56C SWAP2 SWAP1 PUSH3 0x6B8 JUMP JUMPDEST POP SWAP1 JUMP JUMPDEST DUP3 DUP1 SLOAD DUP3 DUP3 SSTORE SWAP1 PUSH1 0x0 MSTORE PUSH1 0x20 PUSH1 0x0 KECCAK256 SWAP1 DUP2 ADD SWAP3 DUP3 ISZERO PUSH3 0x5EC JUMPI SWAP2 PUSH1 0x20 MUL DUP3 ADD JUMPDEST DUP3 DUP2 GT ISZERO PUSH3 0x5EB JUMPI DUP3 MLOAD DUP3 PUSH1 0x0 PUSH2 0x100 EXP DUP2 SLOAD DUP2 PUSH20 0xFFFFFFFFFFFFFFFFFFFFFFFFFFFFFFFFFFFFFFFF MUL NOT AND SWAP1 DUP4 PUSH20 0xFFFFFFFFFFFFFFFFFFFFFFFFFFFFFFFFFFFFFFFF AND MUL OR SWAP1 SSTORE POP SWAP2 PUSH1 0x20 ADD SWAP2 SWAP1 PUSH1 0x1 ADD SWAP1 PUSH3 0x591 JUMP JUMPDEST JUMPDEST POP SWAP1 POP PUSH3 0x5FB SWAP2 SWAP1 PUSH3 0x6B8 JUMP JUMPDEST POP SWAP1 JUMP JUMPDEST DUP3 DUP1 SLOAD PUSH3 0x60D SWAP1 PUSH3 0x111D JUMP JUMPDEST SWAP1 PUSH1 0x0 MSTORE PUSH1 0x20 PUSH1 0x0 KECCAK256 SWAP1 PUSH1 0x1F ADD PUSH1 0x20 SWAP1 DIV DUP2 ADD SWAP3 DUP3 PUSH3 0x631 JUMPI PUSH1 0x0 DUP6 SSTORE PUSH3 0x67D JUMP JUMPDEST DUP3 PUSH1 0x1F LT PUSH3 0x64C JUMPI DUP1 MLOAD PUSH1 0xFF NOT AND DUP4 DUP1 ADD OR DUP6 SSTORE PUSH3 0x67D JUMP JUMPDEST DUP3 DUP1 ADD PUSH1 0x1 ADD DUP6 SSTORE DUP3 ISZERO PUSH3 0x67D JUMPI SWAP2 DUP3 ADD JUMPDEST DUP3 DUP2 GT ISZERO PUSH3 0x67C JUMPI DUP3 MLOAD DUP3 SSTORE SWAP2 PUSH1 0x20 ADD SWAP2 SWAP1 PUSH1 0x1 ADD SWAP1 PUSH3 0x65F JUMP JUMPDEST JUMPDEST POP SWAP1 POP PUSH3 0x68C SWAP2 SWAP1 PUSH3 0x6B8 JUMP JUMPDEST POP SWAP1 JUMP JUMPDEST JUMPDEST DUP1 DUP3 GT ISZERO PUSH3 0x6B4 JUMPI PUSH1 0x0 DUP2 DUP2 PUSH3 0x6AA SWAP2 SWAP1 PUSH3 0x6D7 JUMP JUMPDEST POP PUSH1 0x1 ADD PUSH3 0x691 JUMP JUMPDEST POP SWAP1 JUMP JUMPDEST JUMPDEST DUP1 DUP3 GT ISZERO PUSH3 0x6D3 JUMPI PUSH1 0x0 DUP2 PUSH1 0x0 SWAP1 SSTORE POP PUSH1 0x1 ADD PUSH3 0x6B9 JUMP JUMPDEST POP SWAP1 JUMP JUMPDEST POP DUP1 SLOAD PUSH3 0x6E5 SWAP1 PUSH3 0x111D JUMP JUMPDEST PUSH1 0x0 DUP3 SSTORE DUP1 PUSH1 0x1F LT PUSH3 0x6F9 JUMPI POP PUSH3 0x71A JUMP JUMPDEST PUSH1 0x1F ADD PUSH1 0x20 SWAP1 DIV SWAP1 PUSH1 0x0 MSTORE PUSH1 0x20 PUSH1 0x0 KECCAK256 SWAP1 DUP2 ADD SWAP1 PUSH3 0x719 SWAP2 SWAP1 PUSH3 0x6B8 JUMP JUMPDEST JUMPDEST POP JUMP JUMPDEST PUSH1 0x0 PUSH1 0x40 MLOAD SWAP1 POP SWAP1 JUMP JUMPDEST PUSH1 0x0 DUP1 REVERT JUMPDEST PUSH1 0x0 DUP1 REVERT JUMPDEST PUSH1 0x0 DUP2 SWAP1 POP SWAP2 SWAP1 POP JUMP JUMPDEST PUSH3 0x746 DUP2 PUSH3 0x731 JUMP JUMPDEST DUP2 EQ PUSH3 0x752 JUMPI PUSH1 0x0 DUP1 REVERT JUMPDEST POP JUMP JUMPDEST PUSH1 0x0 DUP2 MLOAD SWAP1 POP PUSH3 0x766 DUP2 PUSH3 0x73B JUMP JUMPDEST SWAP3 SWAP2 POP POP JUMP JUMPDEST PUSH1 0x0 DUP1 REVERT JUMPDEST PUSH1 0x0 PUSH1 0x1F NOT PUSH1 0x1F DUP4 ADD AND SWAP1 POP SWAP2 SWAP1 POP JUMP JUMPDEST PUSH32 0x4E487B7100000000000000000000000000000000000000000000000000000000 PUSH1 0x0 MSTORE PUSH1 0x41 PUSH1 0x4 MSTORE PUSH1 0x24 PUSH1 0x0 REVERT JUMPDEST PUSH3 0x7BC DUP3 PUSH3 0x771 JUMP JUMPDEST DUP2 ADD DUP2 DUP2 LT PUSH8 0xFFFFFFFFFFFFFFFF DUP3 GT OR ISZERO PUSH3 0x7DE JUMPI PUSH3 0x7DD PUSH3 0x782 JUMP JUMPDEST JUMPDEST DUP1 PUSH1 0x40 MSTORE POP POP POP JUMP JUMPDEST PUSH1 0x0 PUSH3 0x7F3 PUSH3 0x71D JUMP JUMPDEST SWAP1 POP PUSH3 0x801 DUP3 DUP3 PUSH3 0x7B1 JUMP JUMPDEST SWAP2 SWAP1 POP JUMP JUMPDEST PUSH1 0x0 PUSH8 0xFFFFFFFFFFFFFFFF DUP3 GT ISZERO PUSH3 0x824 JUMPI PUSH3 0x823 PUSH3 0x782 JUMP JUMPDEST JUMPDEST PUSH1 0x20 DUP3 MUL SWAP1 POP PUSH1 0x20 DUP2 ADD SWAP1 POP SWAP2 SWAP1 POP JUMP JUMPDEST PUSH1 0x0 DUP1 REVERT JUMPDEST PUSH1 0x0 DUP1 REVERT JUMPDEST PUSH1 0x0 PUSH8 0xFFFFFFFFFFFFFFFF DUP3 GT ISZERO PUSH3 0x85D JUMPI PUSH3 0x85C PUSH3 0x782 JUMP JUMPDEST JUMPDEST PUSH3 0x868 DUP3 PUSH3 0x771 JUMP JUMPDEST SWAP1 POP PUSH1 0x20 DUP2 ADD SWAP1 POP SWAP2 SWAP1 POP JUMP JUMPDEST PUSH1 0x0 JUMPDEST DUP4 DUP2 LT ISZERO PUSH3 0x895 JUMPI DUP1 DUP3 ADD MLOAD DUP2 DUP5 ADD MSTORE PUSH1 0x20 DUP2 ADD SWAP1 POP PUSH3 0x878 JUMP JUMPDEST DUP4 DUP2 GT ISZERO PUSH3 0x8A5 JUMPI PUSH1 0x0 DUP5 DUP5 ADD MSTORE JUMPDEST POP POP POP POP JUMP JUMPDEST PUSH1 0x0 PUSH3 0x8C2 PUSH3 0x8BC DUP5 PUSH3 0x83F JUMP JUMPDEST PUSH3 0x7E7 JUMP JUMPDEST SWAP1 POP DUP3 DUP2 MSTORE PUSH1 0x20 DUP2 ADD DUP5 DUP5 DUP5 ADD GT ISZERO PUSH3 0x8E1 JUMPI PUSH3 0x8E0 PUSH3 0x83A JUMP JUMPDEST JUMPDEST PUSH3 0x8EE DUP5 DUP3 DUP6 PUSH3 0x875 JUMP JUMPDEST POP SWAP4 SWAP3 POP POP POP JUMP JUMPDEST PUSH1 0x0 DUP3 PUSH1 0x1F DUP4 ADD SLT PUSH3 0x90E JUMPI PUSH3 0x90D PUSH3 0x76C JUMP JUMPDEST JUMPDEST DUP2 MLOAD PUSH3 0x920 DUP5 DUP3 PUSH1 0x20 DUP7 ADD PUSH3 0x8AB JUMP JUMPDEST SWAP2 POP POP SWAP3 SWAP2 POP POP JUMP JUMPDEST PUSH1 0x0 PUSH3 0x940 PUSH3 0x93A DUP5 PUSH3 0x806 JUMP JUMPDEST PUSH3 0x7E7 JUMP JUMPDEST SWAP1 POP DUP1 DUP4 DUP3 MSTORE PUSH1 0x20 DUP3 ADD SWAP1 POP PUSH1 0x20 DUP5 MUL DUP4 ADD DUP6 DUP2 GT ISZERO PUSH3 0x966 JUMPI PUSH3 0x965 PUSH3 0x835 JUMP JUMPDEST JUMPDEST DUP4 JUMPDEST DUP2 DUP2 LT ISZERO PUSH3 0x9B4 JUMPI DUP1 MLOAD PUSH8 0xFFFFFFFFFFFFFFFF DUP2 GT ISZERO PUSH3 0x98F JUMPI PUSH3 0x98E PUSH3 0x76C JUMP JUMPDEST JUMPDEST DUP1 DUP7 ADD PUSH3 0x99E DUP10 DUP3 PUSH3 0x8F6 JUMP JUMPDEST DUP6 MSTORE PUSH1 0x20 DUP6 ADD SWAP5 POP POP POP PUSH1 0x20 DUP2 ADD SWAP1 POP PUSH3 0x968 JUMP JUMPDEST POP POP POP SWAP4 SWAP3 POP POP POP JUMP JUMPDEST PUSH1 0x0 DUP3 PUSH1 0x1F DUP4 ADD SLT PUSH3 0x9D6 JUMPI PUSH3 0x9D5 PUSH3 0x76C JUMP JUMPDEST JUMPDEST DUP2 MLOAD PUSH3 0x9E8 DUP5 DUP3 PUSH1 0x20 DUP7 ADD PUSH3 0x929 JUMP JUMPDEST SWAP2 POP POP SWAP3 SWAP2 POP POP JUMP JUMPDEST PUSH1 0x0 PUSH8 0xFFFFFFFFFFFFFFFF DUP3 GT ISZERO PUSH3 0xA0F JUMPI PUSH3 0xA0E PUSH3 0x782 JUMP JUMPDEST JUMPDEST PUSH1 0x20 DUP3 MUL SWAP1 POP PUSH1 0x20 DUP2 ADD SWAP1 POP SWAP2 SWAP1 POP JUMP JUMPDEST PUSH1 0x0 PUSH3 0xA37 PUSH3 0xA31 DUP5 PUSH3 0x9F1 JUMP JUMPDEST PUSH3 0x7E7 JUMP JUMPDEST SWAP1 POP DUP1 DUP4 DUP3 MSTORE PUSH1 0x20 DUP3 ADD SWAP1 POP PUSH1 0x20 DUP5 MUL DUP4 ADD DUP6 DUP2 GT ISZERO PUSH3 0xA5D JUMPI PUSH3 0xA5C PUSH3 0x835 JUMP JUMPDEST JUMPDEST DUP4 JUMPDEST DUP2 DUP2 LT ISZERO PUSH3 0xA8A JUMPI DUP1 PUSH3 0xA75 DUP9 DUP3 PUSH3 0x755 JUMP JUMPDEST DUP5 MSTORE PUSH1 0x20 DUP5 ADD SWAP4 POP POP PUSH1 0x20 DUP2 ADD SWAP1 POP PUSH3 0xA5F JUMP JUMPDEST POP POP POP SWAP4 SWAP3 POP POP POP JUMP JUMPDEST PUSH1 0x0 DUP3 PUSH1 0x1F DUP4 ADD SLT PUSH3 0xAAC JUMPI PUSH3 0xAAB PUSH3 0x76C JUMP JUMPDEST JUMPDEST DUP2 MLOAD PUSH3 0xABE DUP5 DUP3 PUSH1 0x20 DUP7 ADD PUSH3 0xA20 JUMP JUMPDEST SWAP2 POP POP SWAP3 SWAP2 POP POP JUMP JUMPDEST PUSH1 0x0 PUSH8 0xFFFFFFFFFFFFFFFF DUP3 GT ISZERO PUSH3 0xAE5 JUMPI PUSH3 0xAE4 PUSH3 0x782 JUMP JUMPDEST JUMPDEST PUSH1 0x20 DUP3 MUL SWAP1 POP PUSH1 0x20 DUP2 ADD SWAP1 POP SWAP2 SWAP1 POP JUMP JUMPDEST PUSH1 0x0 DUP1 REVERT JUMPDEST PUSH1 0x0 DUP1 REVERT JUMPDEST PUSH1 0x0 PUSH1 0xFF DUP3 AND SWAP1 POP SWAP2 SWAP1 POP JUMP JUMPDEST PUSH3 0xB18 DUP2 PUSH3 0xB00 JUMP JUMPDEST DUP2 EQ PUSH3 0xB24 JUMPI PUSH1 0x0 DUP1 REVERT JUMPDEST POP JUMP JUMPDEST PUSH1 0x0 DUP2 MLOAD SWAP1 POP PUSH3 0xB38 DUP2 PUSH3 0xB0D JUMP JUMPDEST SWAP3 SWAP2 POP POP JUMP JUMPDEST PUSH1 0x0 PUSH8 0xFFFFFFFFFFFFFFFF DUP3 GT ISZERO PUSH3 0xB5C JUMPI PUSH3 0xB5B PUSH3 0x782 JUMP JUMPDEST JUMPDEST PUSH1 0x20 DUP3 MUL SWAP1 POP PUSH1 0x20 DUP2 ADD SWAP1 POP SWAP2 SWAP1 POP JUMP JUMPDEST PUSH1 0x0 PUSH1 0x40 DUP3 DUP5 SUB SLT ISZERO PUSH3 0xB86 JUMPI PUSH3 0xB85 PUSH3 0xAF6 JUMP JUMPDEST JUMPDEST PUSH3 0xB92 PUSH1 0x40 PUSH3 0x7E7 JUMP JUMPDEST SWAP1 POP PUSH1 0x0 PUSH3 0xBA4 DUP5 DUP3 DUP6 ADD PUSH3 0xB27 JUMP JUMPDEST PUSH1 0x0 DUP4 ADD MSTORE POP PUSH1 0x20 DUP3 ADD MLOAD PUSH8 0xFFFFFFFFFFFFFFFF DUP2 GT ISZERO PUSH3 0xBCB JUMPI PUSH3 0xBCA PUSH3 0xAFB JUMP JUMPDEST JUMPDEST PUSH3 0xBD9 DUP5 DUP3 DUP6 ADD PUSH3 0x8F6 JUMP JUMPDEST PUSH1 0x20 DUP4 ADD MSTORE POP SWAP3 SWAP2 POP POP JUMP JUMPDEST PUSH1 0x0 PUSH3 0xBFC PUSH3 0xBF6 DUP5 PUSH3 0xB3E JUMP JUMPDEST PUSH3 0x7E7 JUMP JUMPDEST SWAP1 POP DUP1 DUP4 DUP3 MSTORE PUSH1 0x20 DUP3 ADD SWAP1 POP PUSH1 0x20 DUP5 MUL DUP4 ADD DUP6 DUP2 GT ISZERO PUSH3 0xC22 JUMPI PUSH3 0xC21 PUSH3 0x835 JUMP JUMPDEST JUMPDEST DUP4 JUMPDEST DUP2 DUP2 LT ISZERO PUSH3 0xC70 JUMPI DUP1 MLOAD PUSH8 0xFFFFFFFFFFFFFFFF DUP2 GT ISZERO PUSH3 0xC4B JUMPI PUSH3 0xC4A PUSH3 0x76C JUMP JUMPDEST JUMPDEST DUP1 DUP7 ADD PUSH3 0xC5A DUP10 DUP3 PUSH3 0xB6D JUMP JUMPDEST DUP6 MSTORE PUSH1 0x20 DUP6 ADD SWAP5 POP POP POP PUSH1 0x20 DUP2 ADD SWAP1 POP PUSH3 0xC24 JUMP JUMPDEST POP POP POP SWAP4 SWAP3 POP POP POP JUMP JUMPDEST PUSH1 0x0 DUP3 PUSH1 0x1F DUP4 ADD SLT PUSH3 0xC92 JUMPI PUSH3 0xC91 PUSH3 0x76C JUMP JUMPDEST JUMPDEST DUP2 MLOAD PUSH3 0xCA4 DUP5 DUP3 PUSH1 0x20 DUP7 ADD PUSH3 0xBE5 JUMP JUMPDEST SWAP2 POP POP SWAP3 SWAP2 POP POP JUMP JUMPDEST PUSH1 0x0 PUSH1 0x60 DUP3 DUP5 SUB SLT ISZERO PUSH3 0xCC6 JUMPI PUSH3 0xCC5 PUSH3 0xAF6 JUMP JUMPDEST JUMPDEST PUSH3 0xCD2 PUSH1 0x60 PUSH3 0x7E7 JUMP JUMPDEST SWAP1 POP PUSH1 0x0 PUSH3 0xCE4 DUP5 DUP3 DUP6 ADD PUSH3 0xB27 JUMP JUMPDEST PUSH1 0x0 DUP4 ADD MSTORE POP PUSH1 0x20 DUP3 ADD MLOAD PUSH8 0xFFFFFFFFFFFFFFFF DUP2 GT ISZERO PUSH3 0xD0B JUMPI PUSH3 0xD0A PUSH3 0xAFB JUMP JUMPDEST JUMPDEST PUSH3 0xD19 DUP5 DUP3 DUP6 ADD PUSH3 0x8F6 JUMP JUMPDEST PUSH1 0x20 DUP4 ADD MSTORE POP PUSH1 0x40 DUP3 ADD MLOAD PUSH8 0xFFFFFFFFFFFFFFFF DUP2 GT ISZERO PUSH3 0xD40 JUMPI PUSH3 0xD3F PUSH3 0xAFB JUMP JUMPDEST JUMPDEST PUSH3 0xD4E DUP5 DUP3 DUP6 ADD PUSH3 0xC7A JUMP JUMPDEST PUSH1 0x40 DUP4 ADD MSTORE POP SWAP3 SWAP2 POP POP JUMP JUMPDEST PUSH1 0x0 PUSH3 0xD71 PUSH3 0xD6B DUP5 PUSH3 0xAC7 JUMP JUMPDEST PUSH3 0x7E7 JUMP JUMPDEST SWAP1 POP DUP1 DUP4 DUP3 MSTORE PUSH1 0x20 DUP3 ADD SWAP1 POP PUSH1 0x20 DUP5 MUL DUP4 ADD DUP6 DUP2 GT ISZERO PUSH3 0xD97 JUMPI PUSH3 0xD96 PUSH3 0x835 JUMP JUMPDEST JUMPDEST DUP4 JUMPDEST DUP2 DUP2 LT ISZERO PUSH3 0xDE5 JUMPI DUP1 MLOAD PUSH8 0xFFFFFFFFFFFFFFFF DUP2 GT ISZERO PUSH3 0xDC0 JUMPI PUSH3 0xDBF PUSH3 0x76C JUMP JUMPDEST JUMPDEST DUP1 DUP7 ADD PUSH3 0xDCF DUP10 DUP3 PUSH3 0xCAD JUMP JUMPDEST DUP6 MSTORE PUSH1 0x20 DUP6 ADD SWAP5 POP POP POP PUSH1 0x20 DUP2 ADD SWAP1 POP PUSH3 0xD99 JUMP JUMPDEST POP POP POP SWAP4 SWAP3 POP POP POP JUMP JUMPDEST PUSH1 0x0 DUP3 PUSH1 0x1F DUP4 ADD SLT PUSH3 0xE07 JUMPI PUSH3 0xE06 PUSH3 0x76C JUMP JUMPDEST JUMPDEST DUP2 MLOAD PUSH3 0xE19 DUP5 DUP3 PUSH1 0x20 DUP7 ADD PUSH3 0xD5A JUMP JUMPDEST SWAP2 POP POP SWAP3 SWAP2 POP POP JUMP JUMPDEST PUSH1 0x0 PUSH8 0xFFFFFFFFFFFFFFFF DUP3 GT ISZERO PUSH3 0xE40 JUMPI PUSH3 0xE3F PUSH3 0x782 JUMP JUMPDEST JUMPDEST PUSH1 0x20 DUP3 MUL SWAP1 POP PUSH1 0x20 DUP2 ADD SWAP1 POP SWAP2 SWAP1 POP JUMP JUMPDEST PUSH1 0x0 PUSH20 0xFFFFFFFFFFFFFFFFFFFFFFFFFFFFFFFFFFFFFFFF DUP3 AND SWAP1 POP SWAP2 SWAP1 POP JUMP JUMPDEST PUSH1 0x0 PUSH3 0xE7E DUP3 PUSH3 0xE51 JUMP JUMPDEST SWAP1 POP SWAP2 SWAP1 POP JUMP JUMPDEST PUSH3 0xE90 DUP2 PUSH3 0xE71 JUMP JUMPDEST DUP2 EQ PUSH3 0xE9C JUMPI PUSH1 0x0 DUP1 REVERT JUMPDEST POP JUMP JUMPDEST PUSH1 0x0 DUP2 MLOAD SWAP1 POP PUSH3 0xEB0 DUP2 PUSH3 0xE85 JUMP JUMPDEST SWAP3 SWAP2 POP POP JUMP JUMPDEST PUSH1 0x0 PUSH3 0xECD PUSH3 0xEC7 DUP5 PUSH3 0xE22 JUMP JUMPDEST PUSH3 0x7E7 JUMP JUMPDEST SWAP1 POP DUP1 DUP4 DUP3 MSTORE PUSH1 0x20 DUP3 ADD SWAP1 POP PUSH1 0x20 DUP5 MUL DUP4 ADD DUP6 DUP2 GT ISZERO PUSH3 0xEF3 JUMPI PUSH3 0xEF2 PUSH3 0x835 JUMP JUMPDEST JUMPDEST DUP4 JUMPDEST DUP2 DUP2 LT ISZERO PUSH3 0xF20 JUMPI DUP1 PUSH3 0xF0B DUP9 DUP3 PUSH3 0xE9F JUMP JUMPDEST DUP5 MSTORE PUSH1 0x20 DUP5 ADD SWAP4 POP POP PUSH1 0x20 DUP2 ADD SWAP1 POP PUSH3 0xEF5 JUMP JUMPDEST POP POP POP SWAP4 SWAP3 POP POP POP JUMP JUMPDEST PUSH1 0x0 DUP3 PUSH1 0x1F DUP4 ADD SLT PUSH3 0xF42 JUMPI PUSH3 0xF41 PUSH3 0x76C JUMP JUMPDEST JUMPDEST DUP2 MLOAD PUSH3 0xF54 DUP5 DUP3 PUSH1 0x20 DUP7 ADD PUSH3 0xEB6 JUMP JUMPDEST SWAP2 POP POP SWAP3 SWAP2 POP POP JUMP JUMPDEST PUSH1 0x0 DUP1 PUSH1 0x0 DUP1 PUSH1 0x0 PUSH1 0xA0 DUP7 DUP9 SUB SLT ISZERO PUSH3 0xF7C JUMPI PUSH3 0xF7B PUSH3 0x727 JUMP JUMPDEST JUMPDEST PUSH1 0x0 PUSH3 0xF8C DUP9 DUP3 DUP10 ADD PUSH3 0x755 JUMP JUMPDEST SWAP6 POP POP PUSH1 0x20 DUP7 ADD MLOAD PUSH8 0xFFFFFFFFFFFFFFFF DUP2 GT ISZERO PUSH3 0xFB0 JUMPI PUSH3 0xFAF PUSH3 0x72C JUMP JUMPDEST JUMPDEST PUSH3 0xFBE DUP9 DUP3 DUP10 ADD PUSH3 0x9BE JUMP JUMPDEST SWAP5 POP POP PUSH1 0x40 DUP7 ADD MLOAD PUSH8 0xFFFFFFFFFFFFFFFF DUP2 GT ISZERO PUSH3 0xFE2 JUMPI PUSH3 0xFE1 PUSH3 0x72C JUMP JUMPDEST JUMPDEST PUSH3 0xFF0 DUP9 DUP3 DUP10 ADD PUSH3 0xA94 JUMP JUMPDEST SWAP4 POP POP PUSH1 0x60 DUP7 ADD MLOAD PUSH8 0xFFFFFFFFFFFFFFFF DUP2 GT ISZERO PUSH3 0x1014 JUMPI PUSH3 0x1013 PUSH3 0x72C JUMP JUMPDEST JUMPDEST PUSH3 0x1022 DUP9 DUP3 DUP10 ADD PUSH3 0xDEF JUMP JUMPDEST SWAP3 POP POP PUSH1 0x80 DUP7 ADD MLOAD PUSH8 0xFFFFFFFFFFFFFFFF DUP2 GT ISZERO PUSH3 0x1046 JUMPI PUSH3 0x1045 PUSH3 0x72C JUMP JUMPDEST JUMPDEST PUSH3 0x1054 DUP9 DUP3 DUP10 ADD PUSH3 0xF2A JUMP JUMPDEST SWAP2 POP POP SWAP3 SWAP6 POP SWAP3 SWAP6 SWAP1 SWAP4 POP JUMP JUMPDEST PUSH32 0x4E487B7100000000000000000000000000000000000000000000000000000000 PUSH1 0x0 MSTORE PUSH1 0x32 PUSH1 0x4 MSTORE PUSH1 0x24 PUSH1 0x0 REVERT JUMPDEST PUSH32 0x4E487B7100000000000000000000000000000000000000000000000000000000 PUSH1 0x0 MSTORE PUSH1 0x11 PUSH1 0x4 MSTORE PUSH1 0x24 PUSH1 0x0 REVERT JUMPDEST PUSH1 0x0 PUSH3 0x10CC DUP3 PUSH3 0xB00 JUMP JUMPDEST SWAP2 POP PUSH1 0xFF DUP3 EQ ISZERO PUSH3 0x10E3 JUMPI PUSH3 0x10E2 PUSH3 0x1090 JUMP JUMPDEST JUMPDEST PUSH1 0x1 DUP3 ADD SWAP1 POP SWAP2 SWAP1 POP JUMP JUMPDEST PUSH32 0x4E487B7100000000000000000000000000000000000000000000000000000000 PUSH1 0x0 MSTORE PUSH1 0x22 PUSH1 0x4 MSTORE PUSH1 0x24 PUSH1 0x0 REVERT JUMPDEST PUSH1 0x0 PUSH1 0x2 DUP3 DIV SWAP1 POP PUSH1 0x1 DUP3 AND DUP1 PUSH3 0x1136 JUMPI PUSH1 0x7F DUP3 AND SWAP2 POP JUMPDEST PUSH1 0x20 DUP3 LT DUP2 EQ ISZERO PUSH3 0x114D JUMPI PUSH3 0x114C PUSH3 0x10EE JUMP JUMPDEST JUMPDEST POP SWAP2 SWAP1 POP JUMP JUMPDEST PUSH2 0x1F27 DUP1 PUSH3 0x1163 PUSH1 0x0 CODECOPY PUSH1 0x0 RETURN INVALID PUSH1 0x80 PUSH1 0x40 MSTORE CALLVALUE DUP1 ISZERO PUSH2 0x10 JUMPI PUSH1 0x0 DUP1 REVERT JUMPDEST POP PUSH1 0x4 CALLDATASIZE LT PUSH2 0x7D JUMPI PUSH1 0x0 CALLDATALOAD PUSH1 0xE0 SHR DUP1 PUSH4 0x72B4CA47 GT PUSH2 0x5B JUMPI DUP1 PUSH4 0x72B4CA47 EQ PUSH2 0xED JUMPI DUP1 PUSH4 0x8DA5CB5B EQ PUSH2 0x10C JUMPI DUP1 PUSH4 0x95084C6F EQ PUSH2 0x12A JUMPI DUP1 PUSH4 0xE7B3387C EQ PUSH2 0x14D JUMPI PUSH2 0x7D JUMP JUMPDEST DUP1 PUSH4 0x41CC8AD EQ PUSH2 0x82 JUMPI DUP1 PUSH4 0x1247AB21 EQ PUSH2 0xA1 JUMPI DUP1 PUSH4 0x66E305FD EQ PUSH2 0xBD JUMPI JUMPDEST PUSH1 0x0 DUP1 REVERT JUMPDEST PUSH2 0x8A PUSH2 0x16B JUMP JUMPDEST PUSH1 0x40 MLOAD PUSH2 0x98 SWAP3 SWAP2 SWAP1 PUSH2 0x135B JUMP JUMPDEST PUSH1 0x40 MLOAD DUP1 SWAP2 SUB SWAP1 RETURN JUMPDEST PUSH2 0xBB PUSH1 0x4 DUP1 CALLDATASIZE SUB DUP2 ADD SWAP1 PUSH2 0xB6 SWAP2 SWAP1 PUSH2 0x13FA JUMP JUMPDEST PUSH2 0x3BF JUMP JUMPDEST STOP JUMPDEST PUSH2 0xD7 PUSH1 0x4 DUP1 CALLDATASIZE SUB DUP2 ADD SWAP1 PUSH2 0xD2 SWAP2 SWAP1 PUSH2 0x14A5 JUMP JUMPDEST PUSH2 0x7F2 JUMP JUMPDEST PUSH1 0x40 MLOAD PUSH2 0xE4 SWAP2 SWAP1 PUSH2 0x14ED JUMP JUMPDEST PUSH1 0x40 MLOAD DUP1 SWAP2 SUB SWAP1 RETURN JUMPDEST PUSH2 0xF5 PUSH2 0x865 JUMP JUMPDEST PUSH1 0x40 MLOAD PUSH2 0x103 SWAP3 SWAP2 SWAP1 PUSH2 0x1679 JUMP JUMPDEST PUSH1 0x40 MLOAD DUP1 SWAP2 SUB SWAP1 RETURN JUMPDEST PUSH2 0x114 PUSH2 0xA7B JUMP JUMPDEST PUSH1 0x40 MLOAD PUSH2 0x121 SWAP2 SWAP1 PUSH2 0x16B8 JUMP JUMPDEST PUSH1 0x40 MLOAD DUP1 SWAP2 SUB SWAP1 RETURN JUMPDEST PUSH2 0x132 PUSH2 0xAA1 JUMP JUMPDEST PUSH1 0x40 MLOAD PUSH2 0x144 SWAP7 SWAP6 SWAP5 SWAP4 SWAP3 SWAP2 SWAP1 PUSH2 0x1853 JUMP JUMPDEST PUSH1 0x40 MLOAD DUP1 SWAP2 SUB SWAP1 RETURN JUMPDEST PUSH2 0x155 PUSH2 0xC03 JUMP JUMPDEST PUSH1 0x40 MLOAD PUSH2 0x162 SWAP2 SWAP1 PUSH2 0x18C2 JUMP JUMPDEST PUSH1 0x40 MLOAD DUP1 SWAP2 SUB SWAP1 RETURN JUMPDEST PUSH1 0x0 PUSH1 0x60 PUSH2 0x179 PUSH1 0x0 PUSH2 0xF7C JUMP JUMPDEST PUSH1 0x9 DUP1 DUP1 SLOAD DUP1 PUSH1 0x20 MUL PUSH1 0x20 ADD PUSH1 0x40 MLOAD SWAP1 DUP2 ADD PUSH1 0x40 MSTORE DUP1 SWAP3 SWAP2 SWAP1 DUP2 DUP2 MSTORE PUSH1 0x20 ADD PUSH1 0x0 SWAP1 JUMPDEST DUP3 DUP3 LT ISZERO PUSH2 0x3B1 JUMPI DUP4 DUP3 SWAP1 PUSH1 0x0 MSTORE PUSH1 0x20 PUSH1 0x0 KECCAK256 SWAP1 PUSH1 0x3 MUL ADD PUSH1 0x40 MLOAD DUP1 PUSH1 0x60 ADD PUSH1 0x40 MSTORE SWAP1 DUP2 PUSH1 0x0 DUP3 ADD PUSH1 0x0 SWAP1 SLOAD SWAP1 PUSH2 0x100 EXP SWAP1 DIV PUSH1 0xFF AND PUSH1 0xFF AND PUSH1 0xFF AND DUP2 MSTORE PUSH1 0x20 ADD PUSH1 0x1 DUP3 ADD DUP1 SLOAD PUSH2 0x1EC SWAP1 PUSH2 0x190C JUMP JUMPDEST DUP1 PUSH1 0x1F ADD PUSH1 0x20 DUP1 SWAP2 DIV MUL PUSH1 0x20 ADD PUSH1 0x40 MLOAD SWAP1 DUP2 ADD PUSH1 0x40 MSTORE DUP1 SWAP3 SWAP2 SWAP1 DUP2 DUP2 MSTORE PUSH1 0x20 ADD DUP3 DUP1 SLOAD PUSH2 0x218 SWAP1 PUSH2 0x190C JUMP JUMPDEST DUP1 ISZERO PUSH2 0x265 JUMPI DUP1 PUSH1 0x1F LT PUSH2 0x23A JUMPI PUSH2 0x100 DUP1 DUP4 SLOAD DIV MUL DUP4 MSTORE SWAP2 PUSH1 0x20 ADD SWAP2 PUSH2 0x265 JUMP JUMPDEST DUP3 ADD SWAP2 SWAP1 PUSH1 0x0 MSTORE PUSH1 0x20 PUSH1 0x0 KECCAK256 SWAP1 JUMPDEST DUP2 SLOAD DUP2 MSTORE SWAP1 PUSH1 0x1 ADD SWAP1 PUSH1 0x20 ADD DUP1 DUP4 GT PUSH2 0x248 JUMPI DUP3 SWAP1 SUB PUSH1 0x1F AND DUP3 ADD SWAP2 JUMPDEST POP POP POP POP POP DUP2 MSTORE PUSH1 0x20 ADD PUSH1 0x2 DUP3 ADD DUP1 SLOAD DUP1 PUSH1 0x20 MUL PUSH1 0x20 ADD PUSH1 0x40 MLOAD SWAP1 DUP2 ADD PUSH1 0x40 MSTORE DUP1 SWAP3 SWAP2 SWAP1 DUP2 DUP2 MSTORE PUSH1 0x20 ADD PUSH1 0x0 SWAP1 JUMPDEST DUP3 DUP3 LT ISZERO PUSH2 0x39A JUMPI DUP4 DUP3 SWAP1 PUSH1 0x0 MSTORE PUSH1 0x20 PUSH1 0x0 KECCAK256 SWAP1 PUSH1 0x2 MUL ADD PUSH1 0x40 MLOAD DUP1 PUSH1 0x60 ADD PUSH1 0x40 MSTORE SWAP1 DUP2 PUSH1 0x0 DUP3 ADD PUSH1 0x0 SWAP1 SLOAD SWAP1 PUSH2 0x100 EXP SWAP1 DIV PUSH1 0xFF AND PUSH1 0xFF AND PUSH1 0xFF AND DUP2 MSTORE PUSH1 0x20 ADD PUSH1 0x0 DUP3 ADD PUSH1 0x1 SWAP1 SLOAD SWAP1 PUSH2 0x100 EXP SWAP1 DIV PUSH4 0xFFFFFFFF AND PUSH4 0xFFFFFFFF AND PUSH4 0xFFFFFFFF AND DUP2 MSTORE PUSH1 0x20 ADD PUSH1 0x1 DUP3 ADD DUP1 SLOAD PUSH2 0x309 SWAP1 PUSH2 0x190C JUMP JUMPDEST DUP1 PUSH1 0x1F ADD PUSH1 0x20 DUP1 SWAP2 DIV MUL PUSH1 0x20 ADD PUSH1 0x40 MLOAD SWAP1 DUP2 ADD PUSH1 0x40 MSTORE DUP1 SWAP3 SWAP2 SWAP1 DUP2 DUP2 MSTORE PUSH1 0x20 ADD DUP3 DUP1 SLOAD PUSH2 0x335 SWAP1 PUSH2 0x190C JUMP JUMPDEST DUP1 ISZERO PUSH2 0x382 JUMPI DUP1 PUSH1 0x1F LT PUSH2 0x357 JUMPI PUSH2 0x100 DUP1 DUP4 SLOAD DIV MUL DUP4 MSTORE SWAP2 PUSH1 0x20 ADD SWAP2 PUSH2 0x382 JUMP JUMPDEST DUP3 ADD SWAP2 SWAP1 PUSH1 0x0 MSTORE PUSH1 0x20 PUSH1 0x0 KECCAK256 SWAP1 JUMPDEST DUP2 SLOAD DUP2 MSTORE SWAP1 PUSH1 0x1 ADD SWAP1 PUSH1 0x20 ADD DUP1 DUP4 GT PUSH2 0x365 JUMPI DUP3 SWAP1 SUB PUSH1 0x1F AND DUP3 ADD SWAP2 JUMPDEST POP POP POP POP POP DUP2 MSTORE POP POP DUP2 MSTORE PUSH1 0x20 ADD SWAP1 PUSH1 0x1 ADD SWAP1 PUSH2 0x293 JUMP JUMPDEST POP POP POP POP DUP2 MSTORE POP POP DUP2 MSTORE PUSH1 0x20 ADD SWAP1 PUSH1 0x1 ADD SWAP1 PUSH2 0x19C JUMP JUMPDEST POP POP POP POP SWAP1 POP SWAP2 POP SWAP2 POP SWAP1 SWAP2 JUMP JUMPDEST PUSH2 0x3C8 CALLER PUSH2 0x7F2 JUMP JUMPDEST PUSH2 0x407 JUMPI PUSH1 0x40 MLOAD PUSH32 0x8C379A000000000000000000000000000000000000000000000000000000000 DUP2 MSTORE PUSH1 0x4 ADD PUSH2 0x3FE SWAP1 PUSH2 0x19C1 JUMP JUMPDEST PUSH1 0x40 MLOAD DUP1 SWAP2 SUB SWAP1 REVERT JUMPDEST PUSH1 0x1 PUSH1 0x2 PUSH1 0x0 CALLER PUSH20 0xFFFFFFFFFFFFFFFFFFFFFFFFFFFFFFFFFFFFFFFF AND PUSH20 0xFFFFFFFFFFFFFFFFFFFFFFFFFFFFFFFFFFFFFFFF AND DUP2 MSTORE PUSH1 0x20 ADD SWAP1 DUP2 MSTORE PUSH1 0x20 ADD PUSH1 0x0 KECCAK256 PUSH1 0x0 SWAP1 SLOAD SWAP1 PUSH2 0x100 EXP SWAP1 DIV PUSH1 0xFF AND PUSH1 0xFF AND LT PUSH2 0x499 JUMPI PUSH1 0x40 MLOAD PUSH32 0x8C379A000000000000000000000000000000000000000000000000000000000 DUP2 MSTORE PUSH1 0x4 ADD PUSH2 0x490 SWAP1 PUSH2 0x1A2D JUMP JUMPDEST PUSH1 0x40 MLOAD DUP1 SWAP2 SUB SWAP1 REVERT JUMPDEST PUSH1 0x0 PUSH1 0x8 DUP1 SLOAD SWAP1 POP EQ PUSH2 0x56B JUMPI PUSH1 0x8 PUSH1 0x0 DUP2 SLOAD DUP2 LT PUSH2 0x4BB JUMPI PUSH2 0x4BA PUSH2 0x1A4D JUMP JUMPDEST JUMPDEST SWAP1 PUSH1 0x0 MSTORE PUSH1 0x20 PUSH1 0x0 KECCAK256 ADD SLOAD TIMESTAMP LT ISZERO PUSH2 0x508 JUMPI PUSH1 0x40 MLOAD PUSH32 0x8C379A000000000000000000000000000000000000000000000000000000000 DUP2 MSTORE PUSH1 0x4 ADD PUSH2 0x4FF SWAP1 PUSH2 0x1AC8 JUMP JUMPDEST PUSH1 0x40 MLOAD DUP1 SWAP2 SUB SWAP1 REVERT JUMPDEST PUSH1 0x8 PUSH1 0x1 DUP2 SLOAD DUP2 LT PUSH2 0x51D JUMPI PUSH2 0x51C PUSH2 0x1A4D JUMP JUMPDEST JUMPDEST SWAP1 PUSH1 0x0 MSTORE PUSH1 0x20 PUSH1 0x0 KECCAK256 ADD SLOAD TIMESTAMP GT ISZERO PUSH2 0x56A JUMPI PUSH1 0x40 MLOAD PUSH32 0x8C379A000000000000000000000000000000000000000000000000000000000 DUP2 MSTORE PUSH1 0x4 ADD PUSH2 0x561 SWAP1 PUSH2 0x1B34 JUMP JUMPDEST PUSH1 0x40 MLOAD DUP1 SWAP2 SUB SWAP1 REVERT JUMPDEST JUMPDEST PUSH1 0x0 JUMPDEST DUP3 DUP3 SWAP1 POP DUP2 PUSH1 0xFF AND LT ISZERO PUSH2 0x6C7 JUMPI PUSH1 0x1 PUSH1 0x9 DUP3 PUSH1 0xFF AND DUP2 SLOAD DUP2 LT PUSH2 0x595 JUMPI PUSH2 0x594 PUSH2 0x1A4D JUMP JUMPDEST JUMPDEST SWAP1 PUSH1 0x0 MSTORE PUSH1 0x20 PUSH1 0x0 KECCAK256 SWAP1 PUSH1 0x3 MUL ADD PUSH1 0x2 ADD DUP5 DUP5 DUP5 PUSH1 0xFF AND DUP2 DUP2 LT PUSH2 0x5BC JUMPI PUSH2 0x5BB PUSH2 0x1A4D JUMP JUMPDEST JUMPDEST SWAP1 POP PUSH1 0x20 MUL ADD PUSH1 0x20 DUP2 ADD SWAP1 PUSH2 0x5D1 SWAP2 SWAP1 PUSH2 0x1B80 JUMP JUMPDEST PUSH1 0xFF AND DUP2 SLOAD DUP2 LT PUSH2 0x5E5 JUMPI PUSH2 0x5E4 PUSH2 0x1A4D JUMP JUMPDEST JUMPDEST SWAP1 PUSH1 0x0 MSTORE PUSH1 0x20 PUSH1 0x0 KECCAK256 SWAP1 PUSH1 0x2 MUL ADD PUSH1 0x0 ADD PUSH1 0x1 DUP3 DUP3 DUP3 SWAP1 SLOAD SWAP1 PUSH2 0x100 EXP SWAP1 DIV PUSH4 0xFFFFFFFF AND PUSH2 0x614 SWAP2 SWAP1 PUSH2 0x1BDC JUMP JUMPDEST SWAP3 POP PUSH2 0x100 EXP DUP2 SLOAD DUP2 PUSH4 0xFFFFFFFF MUL NOT AND SWAP1 DUP4 PUSH4 0xFFFFFFFF AND MUL OR SWAP1 SSTORE POP PUSH1 0x1 PUSH1 0x3 DUP3 PUSH1 0xFF AND DUP2 SLOAD DUP2 LT PUSH2 0x64B JUMPI PUSH2 0x64A PUSH2 0x1A4D JUMP JUMPDEST JUMPDEST SWAP1 PUSH1 0x0 MSTORE PUSH1 0x20 PUSH1 0x0 KECCAK256 ADD DUP5 DUP5 DUP5 PUSH1 0xFF AND DUP2 DUP2 LT PUSH2 0x66B JUMPI PUSH2 0x66A PUSH2 0x1A4D JUMP JUMPDEST JUMPDEST SWAP1 POP PUSH1 0x20 MUL ADD PUSH1 0x20 DUP2 ADD SWAP1 PUSH2 0x680 SWAP2 SWAP1 PUSH2 0x1B80 JUMP JUMPDEST PUSH1 0xFF AND DUP2 SLOAD DUP2 LT PUSH2 0x694 JUMPI PUSH2 0x693 PUSH2 0x1A4D JUMP JUMPDEST JUMPDEST SWAP1 PUSH1 0x0 MSTORE PUSH1 0x20 PUSH1 0x0 KECCAK256 ADD PUSH1 0x0 DUP3 DUP3 SLOAD PUSH2 0x6AD SWAP2 SWAP1 PUSH2 0x1C16 JUMP JUMPDEST SWAP3 POP POP DUP2 SWAP1 SSTORE POP DUP1 DUP1 PUSH2 0x6BF SWAP1 PUSH2 0x1C6C JUMP JUMPDEST SWAP2 POP POP PUSH2 0x56E JUMP JUMPDEST POP PUSH2 0x6D2 PUSH1 0x0 PUSH2 0xF8A JUMP JUMPDEST CALLER PUSH1 0x1 PUSH1 0x0 PUSH2 0x6E1 PUSH1 0x0 PUSH2 0xF7C JUMP JUMPDEST DUP2 MSTORE PUSH1 0x20 ADD SWAP1 DUP2 MSTORE PUSH1 0x20 ADD PUSH1 0x0 KECCAK256 PUSH1 0x0 PUSH2 0x100 EXP DUP2 SLOAD DUP2 PUSH20 0xFFFFFFFFFFFFFFFFFFFFFFFFFFFFFFFFFFFFFFFF MUL NOT AND SWAP1 DUP4 PUSH20 0xFFFFFFFFFFFFFFFFFFFFFFFFFFFFFFFFFFFFFFFF AND MUL OR SWAP1 SSTORE POP PUSH1 0x1 PUSH1 0x2 PUSH1 0x0 CALLER PUSH20 0xFFFFFFFFFFFFFFFFFFFFFFFFFFFFFFFFFFFFFFFF AND PUSH20 0xFFFFFFFFFFFFFFFFFFFFFFFFFFFFFFFFFFFFFFFF AND DUP2 MSTORE PUSH1 0x20 ADD SWAP1 DUP2 MSTORE PUSH1 0x20 ADD PUSH1 0x0 KECCAK256 PUSH1 0x0 DUP3 DUP3 DUP3 SWAP1 SLOAD SWAP1 PUSH2 0x100 EXP SWAP1 DIV PUSH1 0xFF AND PUSH2 0x789 SWAP2 SWAP1 PUSH2 0x1C96 JUMP JUMPDEST SWAP3 POP PUSH2 0x100 EXP DUP2 SLOAD DUP2 PUSH1 0xFF MUL NOT AND SWAP1 DUP4 PUSH1 0xFF AND MUL OR SWAP1 SSTORE POP PUSH1 0x3 PUSH1 0x40 MLOAD PUSH2 0x7B0 SWAP2 SWAP1 PUSH2 0x1E7E JUMP JUMPDEST PUSH1 0x40 MLOAD DUP1 SWAP2 SUB SWAP1 KECCAK256 PUSH2 0x7C2 PUSH1 0x0 PUSH2 0xF7C JUMP JUMPDEST PUSH32 0xA34806EB7DB81F4974FB635BE044FA20F916CE557A232E581F2B1A12A65571BC PUSH1 0x40 MLOAD PUSH1 0x40 MLOAD DUP1 SWAP2 SUB SWAP1 LOG3 POP POP JUMP JUMPDEST PUSH1 0x0 DUP1 PUSH1 0xA PUSH1 0x0 ADD DUP1 SLOAD SWAP1 POP EQ ISZERO PUSH2 0x80D JUMPI PUSH1 0x1 SWAP1 POP PUSH2 0x860 JUMP JUMPDEST PUSH1 0xA PUSH1 0x1 ADD PUSH1 0x0 DUP4 PUSH20 0xFFFFFFFFFFFFFFFFFFFFFFFFFFFFFFFFFFFFFFFF AND PUSH20 0xFFFFFFFFFFFFFFFFFFFFFFFFFFFFFFFFFFFFFFFF AND DUP2 MSTORE PUSH1 0x20 ADD SWAP1 DUP2 MSTORE PUSH1 0x20 ADD PUSH1 0x0 KECCAK256 PUSH1 0x0 SWAP1 SLOAD SWAP1 PUSH2 0x100 EXP SWAP1 DIV PUSH1 0xFF AND SWAP1 POP JUMPDEST SWAP2 SWAP1 POP JUMP JUMPDEST PUSH1 0x0 PUSH1 0x60 PUSH1 0x0 PUSH1 0x9 DUP1 SLOAD SWAP1 POP PUSH8 0xFFFFFFFFFFFFFFFF DUP2 GT ISZERO PUSH2 0x88A JUMPI PUSH2 0x889 PUSH2 0x1E95 JUMP JUMPDEST JUMPDEST PUSH1 0x40 MLOAD SWAP1 DUP1 DUP3 MSTORE DUP1 PUSH1 0x20 MUL PUSH1 0x20 ADD DUP3 ADD PUSH1 0x40 MSTORE DUP1 ISZERO PUSH2 0x8BD JUMPI DUP2 PUSH1 0x20 ADD JUMPDEST PUSH1 0x60 DUP2 MSTORE PUSH1 0x20 ADD SWAP1 PUSH1 0x1 SWAP1 SUB SWAP1 DUP2 PUSH2 0x8A8 JUMPI SWAP1 POP JUMPDEST POP SWAP1 POP PUSH1 0x0 JUMPDEST PUSH1 0x9 DUP1 SLOAD SWAP1 POP DUP2 PUSH1 0xFF AND LT ISZERO PUSH2 0xA66 JUMPI PUSH1 0x0 PUSH1 0x9 DUP3 PUSH1 0xFF AND DUP2 SLOAD DUP2 LT PUSH2 0x8EC JUMPI PUSH2 0x8EB PUSH2 0x1A4D JUMP JUMPDEST JUMPDEST SWAP1 PUSH1 0x0 MSTORE PUSH1 0x20 PUSH1 0x0 KECCAK256 SWAP1 PUSH1 0x3 MUL ADD PUSH1 0x2 ADD DUP1 SLOAD SWAP1 POP PUSH8 0xFFFFFFFFFFFFFFFF DUP2 GT ISZERO PUSH2 0x91A JUMPI PUSH2 0x919 PUSH2 0x1E95 JUMP JUMPDEST JUMPDEST PUSH1 0x40 MLOAD SWAP1 DUP1 DUP3 MSTORE DUP1 PUSH1 0x20 MUL PUSH1 0x20 ADD DUP3 ADD PUSH1 0x40 MSTORE DUP1 ISZERO PUSH2 0x948 JUMPI DUP2 PUSH1 0x20 ADD PUSH1 0x20 DUP3 MUL DUP1 CALLDATASIZE DUP4 CALLDATACOPY DUP1 DUP3 ADD SWAP2 POP POP SWAP1 POP JUMPDEST POP SWAP1 POP PUSH1 0x0 JUMPDEST PUSH1 0x9 DUP4 PUSH1 0xFF AND DUP2 SLOAD DUP2 LT PUSH2 0x965 JUMPI PUSH2 0x964 PUSH2 0x1A4D JUMP JUMPDEST JUMPDEST SWAP1 PUSH1 0x0 MSTORE PUSH1 0x20 PUSH1 0x0 KECCAK256 SWAP1 PUSH1 0x3 MUL ADD PUSH1 0x2 ADD DUP1 SLOAD SWAP1 POP DUP2 PUSH4 0xFFFFFFFF AND LT ISZERO PUSH2 0xA2F JUMPI PUSH1 0x9 DUP4 PUSH1 0xFF AND DUP2 SLOAD DUP2 LT PUSH2 0x99E JUMPI PUSH2 0x99D PUSH2 0x1A4D JUMP JUMPDEST JUMPDEST SWAP1 PUSH1 0x0 MSTORE PUSH1 0x20 PUSH1 0x0 KECCAK256 SWAP1 PUSH1 0x3 MUL ADD PUSH1 0x2 ADD DUP2 PUSH4 0xFFFFFFFF AND DUP2 SLOAD DUP2 LT PUSH2 0x9C7 JUMPI PUSH2 0x9C6 PUSH2 0x1A4D JUMP JUMPDEST JUMPDEST SWAP1 PUSH1 0x0 MSTORE PUSH1 0x20 PUSH1 0x0 KECCAK256 SWAP1 PUSH1 0x2 MUL ADD PUSH1 0x0 ADD PUSH1 0x1 SWAP1 SLOAD SWAP1 PUSH2 0x100 EXP SWAP1 DIV PUSH4 0xFFFFFFFF AND DUP3 DUP3 PUSH4 0xFFFFFFFF AND DUP2 MLOAD DUP2 LT PUSH2 0xA02 JUMPI PUSH2 0xA01 PUSH2 0x1A4D JUMP JUMPDEST JUMPDEST PUSH1 0x20 MUL PUSH1 0x20 ADD ADD SWAP1 PUSH4 0xFFFFFFFF AND SWAP1 DUP2 PUSH4 0xFFFFFFFF AND DUP2 MSTORE POP POP DUP1 DUP1 PUSH2 0xA27 SWAP1 PUSH2 0x1EC4 JUMP JUMPDEST SWAP2 POP POP PUSH2 0x94E JUMP JUMPDEST POP DUP1 DUP4 DUP4 PUSH1 0xFF AND DUP2 MLOAD DUP2 LT PUSH2 0xA47 JUMPI PUSH2 0xA46 PUSH2 0x1A4D JUMP JUMPDEST JUMPDEST PUSH1 0x20 MUL PUSH1 0x20 ADD ADD DUP2 SWAP1 MSTORE POP POP DUP1 DUP1 PUSH2 0xA5E SWAP1 PUSH2 0x1C6C JUMP JUMPDEST SWAP2 POP POP PUSH2 0x8C3 JUMP JUMPDEST POP PUSH2 0xA71 PUSH1 0x0 PUSH2 0xF7C JUMP JUMPDEST DUP2 SWAP3 POP SWAP3 POP POP SWAP1 SWAP2 JUMP JUMPDEST PUSH1 0x5 PUSH1 0x0 SWAP1 SLOAD SWAP1 PUSH2 0x100 EXP SWAP1 DIV PUSH20 0xFFFFFFFFFFFFFFFFFFFFFFFFFFFFFFFFFFFFFFFF AND DUP2 JUMP JUMPDEST PUSH1 0x60 DUP1 PUSH1 0x0 DUP1 PUSH1 0x0 DUP1 PUSH1 0x7 PUSH1 0x8 PUSH1 0x6 SLOAD PUSH2 0xABB PUSH1 0x0 PUSH2 0xF7C JUMP JUMPDEST PUSH1 0x0 PUSH1 0xA PUSH1 0x0 ADD DUP1 SLOAD SWAP1 POP EQ PUSH1 0x4 SLOAD DUP6 DUP1 SLOAD DUP1 PUSH1 0x20 MUL PUSH1 0x20 ADD PUSH1 0x40 MLOAD SWAP1 DUP2 ADD PUSH1 0x40 MSTORE DUP1 SWAP3 SWAP2 SWAP1 DUP2 DUP2 MSTORE PUSH1 0x20 ADD PUSH1 0x0 SWAP1 JUMPDEST DUP3 DUP3 LT ISZERO PUSH2 0xB97 JUMPI DUP4 DUP3 SWAP1 PUSH1 0x0 MSTORE PUSH1 0x20 PUSH1 0x0 KECCAK256 ADD DUP1 SLOAD PUSH2 0xB0A SWAP1 PUSH2 0x190C JUMP JUMPDEST DUP1 PUSH1 0x1F ADD PUSH1 0x20 DUP1 SWAP2 DIV MUL PUSH1 0x20 ADD PUSH1 0x40 MLOAD SWAP1 DUP2 ADD PUSH1 0x40 MSTORE DUP1 SWAP3 SWAP2 SWAP1 DUP2 DUP2 MSTORE PUSH1 0x20 ADD DUP3 DUP1 SLOAD PUSH2 0xB36 SWAP1 PUSH2 0x190C JUMP JUMPDEST DUP1 ISZERO PUSH2 0xB83 JUMPI DUP1 PUSH1 0x1F LT PUSH2 0xB58 JUMPI PUSH2 0x100 DUP1 DUP4 SLOAD DIV MUL DUP4 MSTORE SWAP2 PUSH1 0x20 ADD SWAP2 PUSH2 0xB83 JUMP JUMPDEST DUP3 ADD SWAP2 SWAP1 PUSH1 0x0 MSTORE PUSH1 0x20 PUSH1 0x0 KECCAK256 SWAP1 JUMPDEST DUP2 SLOAD DUP2 MSTORE SWAP1 PUSH1 0x1 ADD SWAP1 PUSH1 0x20 ADD DUP1 DUP4 GT PUSH2 0xB66 JUMPI DUP3 SWAP1 SUB PUSH1 0x1F AND DUP3 ADD SWAP2 JUMPDEST POP POP POP POP POP DUP2 MSTORE PUSH1 0x20 ADD SWAP1 PUSH1 0x1 ADD SWAP1 PUSH2 0xAEB JUMP JUMPDEST POP POP POP POP SWAP6 POP DUP5 DUP1 SLOAD DUP1 PUSH1 0x20 MUL PUSH1 0x20 ADD PUSH1 0x40 MLOAD SWAP1 DUP2 ADD PUSH1 0x40 MSTORE DUP1 SWAP3 SWAP2 SWAP1 DUP2 DUP2 MSTORE PUSH1 0x20 ADD DUP3 DUP1 SLOAD DUP1 ISZERO PUSH2 0xBE8 JUMPI PUSH1 0x20 MUL DUP3 ADD SWAP2 SWAP1 PUSH1 0x0 MSTORE PUSH1 0x20 PUSH1 0x0 KECCAK256 SWAP1 JUMPDEST DUP2 SLOAD DUP2 MSTORE PUSH1 0x20 ADD SWAP1 PUSH1 0x1 ADD SWAP1 DUP1 DUP4 GT PUSH2 0xBD4 JUMPI JUMPDEST POP POP POP POP POP SWAP5 POP SWAP6 POP SWAP6 POP SWAP6 POP SWAP6 POP SWAP6 POP SWAP6 POP SWAP1 SWAP2 SWAP3 SWAP4 SWAP5 SWAP6 JUMP JUMPDEST PUSH1 0x0 PUSH2 0xC0F PUSH1 0x0 PUSH2 0xF7C JUMP JUMPDEST SWAP1 POP SWAP1 JUMP JUMPDEST PUSH1 0x0 JUMPDEST DUP2 MLOAD DUP2 PUSH1 0xFF AND LT ISZERO PUSH2 0xCAD JUMPI PUSH1 0x1 DUP4 PUSH1 0x1 ADD PUSH1 0x0 DUP5 DUP5 PUSH1 0xFF AND DUP2 MLOAD DUP2 LT PUSH2 0xC41 JUMPI PUSH2 0xC40 PUSH2 0x1A4D JUMP JUMPDEST JUMPDEST PUSH1 0x20 MUL PUSH1 0x20 ADD ADD MLOAD PUSH20 0xFFFFFFFFFFFFFFFFFFFFFFFFFFFFFFFFFFFFFFFF AND PUSH20 0xFFFFFFFFFFFFFFFFFFFFFFFFFFFFFFFFFFFFFFFF AND DUP2 MSTORE PUSH1 0x20 ADD SWAP1 DUP2 MSTORE PUSH1 0x20 ADD PUSH1 0x0 KECCAK256 PUSH1 0x0 PUSH2 0x100 EXP DUP2 SLOAD DUP2 PUSH1 0xFF MUL NOT AND SWAP1 DUP4 ISZERO ISZERO MUL OR SWAP1 SSTORE POP DUP1 DUP1 PUSH2 0xCA5 SWAP1 PUSH2 0x1C6C JUMP JUMPDEST SWAP2 POP POP PUSH2 0xC17 JUMP JUMPDEST POP POP POP JUMP JUMPDEST PUSH1 0x0 JUMPDEST DUP3 MLOAD DUP2 PUSH1 0xFF AND LT ISZERO PUSH2 0xF76 JUMPI DUP2 PUSH1 0x1 DUP2 PUSH1 0x1 DUP2 SLOAD ADD DUP1 DUP3 SSTORE DUP1 SWAP2 POP POP SUB SWAP1 PUSH1 0x0 MSTORE PUSH1 0x20 PUSH1 0x0 KECCAK256 POP POP DUP4 PUSH1 0x1 DUP2 PUSH1 0x1 DUP2 SLOAD ADD DUP1 DUP3 SSTORE DUP1 SWAP2 POP POP SUB SWAP1 PUSH1 0x0 MSTORE PUSH1 0x20 PUSH1 0x0 KECCAK256 SWAP1 POP POP DUP1 DUP5 DUP3 PUSH1 0xFF AND DUP2 SLOAD DUP2 LT PUSH2 0xD11 JUMPI PUSH2 0xD10 PUSH2 0x1A4D JUMP JUMPDEST JUMPDEST SWAP1 PUSH1 0x0 MSTORE PUSH1 0x20 PUSH1 0x0 KECCAK256 SWAP1 PUSH1 0x3 MUL ADD PUSH1 0x0 ADD PUSH1 0x0 PUSH2 0x100 EXP DUP2 SLOAD DUP2 PUSH1 0xFF MUL NOT AND SWAP1 DUP4 PUSH1 0xFF AND MUL OR SWAP1 SSTORE POP DUP3 DUP2 PUSH1 0xFF AND DUP2 MLOAD DUP2 LT PUSH2 0xD50 JUMPI PUSH2 0xD4F PUSH2 0x1A4D JUMP JUMPDEST JUMPDEST PUSH1 0x20 MUL PUSH1 0x20 ADD ADD MLOAD PUSH1 0x20 ADD MLOAD DUP5 DUP3 PUSH1 0xFF AND DUP2 SLOAD DUP2 LT PUSH2 0xD72 JUMPI PUSH2 0xD71 PUSH2 0x1A4D JUMP JUMPDEST JUMPDEST SWAP1 PUSH1 0x0 MSTORE PUSH1 0x20 PUSH1 0x0 KECCAK256 SWAP1 PUSH1 0x3 MUL ADD PUSH1 0x1 ADD SWAP1 DUP1 MLOAD SWAP1 PUSH1 0x20 ADD SWAP1 PUSH2 0xD96 SWAP3 SWAP2 SWAP1 PUSH2 0xFA0 JUMP JUMPDEST POP PUSH1 0x0 JUMPDEST DUP4 DUP3 PUSH1 0xFF AND DUP2 MLOAD DUP2 LT PUSH2 0xDB0 JUMPI PUSH2 0xDAF PUSH2 0x1A4D JUMP JUMPDEST JUMPDEST PUSH1 0x20 MUL PUSH1 0x20 ADD ADD MLOAD PUSH1 0x40 ADD MLOAD MLOAD DUP2 PUSH1 0xFF AND LT ISZERO PUSH2 0xF62 JUMPI DUP3 DUP3 PUSH1 0xFF AND DUP2 SLOAD DUP2 LT PUSH2 0xDDD JUMPI PUSH2 0xDDC PUSH2 0x1A4D JUMP JUMPDEST JUMPDEST SWAP1 PUSH1 0x0 MSTORE PUSH1 0x20 PUSH1 0x0 KECCAK256 ADD PUSH1 0x1 DUP2 PUSH1 0x1 DUP2 SLOAD ADD DUP1 DUP3 SSTORE DUP1 SWAP2 POP POP SUB SWAP1 PUSH1 0x0 MSTORE PUSH1 0x20 PUSH1 0x0 KECCAK256 POP POP DUP5 DUP3 PUSH1 0xFF AND DUP2 SLOAD DUP2 LT PUSH2 0xE18 JUMPI PUSH2 0xE17 PUSH2 0x1A4D JUMP JUMPDEST JUMPDEST SWAP1 PUSH1 0x0 MSTORE PUSH1 0x20 PUSH1 0x0 KECCAK256 SWAP1 PUSH1 0x3 MUL ADD PUSH1 0x2 ADD PUSH1 0x1 DUP2 PUSH1 0x1 DUP2 SLOAD ADD DUP1 DUP3 SSTORE DUP1 SWAP2 POP POP SUB SWAP1 PUSH1 0x0 MSTORE PUSH1 0x20 PUSH1 0x0 KECCAK256 SWAP1 POP POP DUP1 DUP6 DUP4 PUSH1 0xFF AND DUP2 SLOAD DUP2 LT PUSH2 0xE5C JUMPI PUSH2 0xE5B PUSH2 0x1A4D JUMP JUMPDEST JUMPDEST SWAP1 PUSH1 0x0 MSTORE PUSH1 0x20 PUSH1 0x0 KECCAK256 SWAP1 PUSH1 0x3 MUL ADD PUSH1 0x2 ADD DUP3 PUSH1 0xFF AND DUP2 SLOAD DUP2 LT PUSH2 0xE82 JUMPI PUSH2 0xE81 PUSH2 0x1A4D JUMP JUMPDEST JUMPDEST SWAP1 PUSH1 0x0 MSTORE PUSH1 0x20 PUSH1 0x0 KECCAK256 SWAP1 PUSH1 0x2 MUL ADD PUSH1 0x0 ADD PUSH1 0x0 PUSH2 0x100 EXP DUP2 SLOAD DUP2 PUSH1 0xFF MUL NOT AND SWAP1 DUP4 PUSH1 0xFF AND MUL OR SWAP1 SSTORE POP DUP4 DUP3 PUSH1 0xFF AND DUP2 MLOAD DUP2 LT PUSH2 0xEC1 JUMPI PUSH2 0xEC0 PUSH2 0x1A4D JUMP JUMPDEST JUMPDEST PUSH1 0x20 MUL PUSH1 0x20 ADD ADD MLOAD PUSH1 0x40 ADD MLOAD DUP2 PUSH1 0xFF AND DUP2 MLOAD DUP2 LT PUSH2 0xEE2 JUMPI PUSH2 0xEE1 PUSH2 0x1A4D JUMP JUMPDEST JUMPDEST PUSH1 0x20 MUL PUSH1 0x20 ADD ADD MLOAD PUSH1 0x20 ADD MLOAD DUP6 DUP4 PUSH1 0xFF AND DUP2 SLOAD DUP2 LT PUSH2 0xF04 JUMPI PUSH2 0xF03 PUSH2 0x1A4D JUMP JUMPDEST JUMPDEST SWAP1 PUSH1 0x0 MSTORE PUSH1 0x20 PUSH1 0x0 KECCAK256 SWAP1 PUSH1 0x3 MUL ADD PUSH1 0x2 ADD DUP3 PUSH1 0xFF AND DUP2 SLOAD DUP2 LT PUSH2 0xF2A JUMPI PUSH2 0xF29 PUSH2 0x1A4D JUMP JUMPDEST JUMPDEST SWAP1 PUSH1 0x0 MSTORE PUSH1 0x20 PUSH1 0x0 KECCAK256 SWAP1 PUSH1 0x2 MUL ADD PUSH1 0x1 ADD SWAP1 DUP1 MLOAD SWAP1 PUSH1 0x20 ADD SWAP1 PUSH2 0xF4E SWAP3 SWAP2 SWAP1 PUSH2 0xFA0 JUMP JUMPDEST POP DUP1 DUP1 PUSH2 0xF5A SWAP1 PUSH2 0x1C6C JUMP JUMPDEST SWAP2 POP POP PUSH2 0xD9A JUMP JUMPDEST POP DUP1 DUP1 PUSH2 0xF6E SWAP1 PUSH2 0x1C6C JUMP JUMPDEST SWAP2 POP POP PUSH2 0xCB5 JUMP JUMPDEST POP POP POP POP JUMP JUMPDEST PUSH1 0x0 DUP2 PUSH1 0x0 ADD SLOAD SWAP1 POP SWAP2 SWAP1 POP JUMP JUMPDEST PUSH1 0x1 DUP2 PUSH1 0x0 ADD PUSH1 0x0 DUP3 DUP3 SLOAD ADD SWAP3 POP POP DUP2 SWAP1 SSTORE POP POP JUMP JUMPDEST DUP3 DUP1 SLOAD PUSH2 0xFAC SWAP1 PUSH2 0x190C JUMP JUMPDEST SWAP1 PUSH1 0x0 MSTORE PUSH1 0x20 PUSH1 0x0 KECCAK256 SWAP1 PUSH1 0x1F ADD PUSH1 0x20 SWAP1 DIV DUP2 ADD SWAP3 DUP3 PUSH2 0xFCE JUMPI PUSH1 0x0 DUP6 SSTORE PUSH2 0x1015 JUMP JUMPDEST DUP3 PUSH1 0x1F LT PUSH2 0xFE7 JUMPI DUP1 MLOAD PUSH1 0xFF NOT AND DUP4 DUP1 ADD OR DUP6 SSTORE PUSH2 0x1015 JUMP JUMPDEST DUP3 DUP1 ADD PUSH1 0x1 ADD DUP6 SSTORE DUP3 ISZERO PUSH2 0x1015 JUMPI SWAP2 DUP3 ADD JUMPDEST DUP3 DUP2 GT ISZERO PUSH2 0x1014 JUMPI DUP3 MLOAD DUP3 SSTORE SWAP2 PUSH1 0x20 ADD SWAP2 SWAP1 PUSH1 0x1 ADD SWAP1 PUSH2 0xFF9 JUMP JUMPDEST JUMPDEST POP SWAP1 POP PUSH2 0x1022 SWAP2 SWAP1 PUSH2 0x1026 JUMP JUMPDEST POP SWAP1 JUMP JUMPDEST JUMPDEST DUP1 DUP3 GT ISZERO PUSH2 0x103F JUMPI PUSH1 0x0 DUP2 PUSH1 0x0 SWAP1 SSTORE POP PUSH1 0x1 ADD PUSH2 0x1027 JUMP JUMPDEST POP SWAP1 JUMP JUMPDEST PUSH1 0x0 DUP2 SWAP1 POP SWAP2 SWAP1 POP JUMP JUMPDEST PUSH2 0x1056 DUP2 PUSH2 0x1043 JUMP JUMPDEST DUP3 MSTORE POP POP JUMP JUMPDEST PUSH1 0x0 DUP2 MLOAD SWAP1 POP SWAP2 SWAP1 POP JUMP JUMPDEST PUSH1 0x0 DUP3 DUP3 MSTORE PUSH1 0x20 DUP3 ADD SWAP1 POP SWAP3 SWAP2 POP POP JUMP JUMPDEST PUSH1 0x0 DUP2 SWAP1 POP PUSH1 0x20 DUP3 ADD SWAP1 POP SWAP2 SWAP1 POP JUMP JUMPDEST PUSH1 0x0 PUSH1 0xFF DUP3 AND SWAP1 POP SWAP2 SWAP1 POP JUMP JUMPDEST PUSH2 0x109E DUP2 PUSH2 0x1088 JUMP JUMPDEST DUP3 MSTORE POP POP JUMP JUMPDEST PUSH1 0x0 DUP2 MLOAD SWAP1 POP SWAP2 SWAP1 POP JUMP JUMPDEST PUSH1 0x0 DUP3 DUP3 MSTORE PUSH1 0x20 DUP3 ADD SWAP1 POP SWAP3 SWAP2 POP POP JUMP JUMPDEST PUSH1 0x0 JUMPDEST DUP4 DUP2 LT ISZERO PUSH2 0x10DE JUMPI DUP1 DUP3 ADD MLOAD DUP2 DUP5 ADD MSTORE PUSH1 0x20 DUP2 ADD SWAP1 POP PUSH2 0x10C3 JUMP JUMPDEST DUP4 DUP2 GT ISZERO PUSH2 0x10ED JUMPI PUSH1 0x0 DUP5 DUP5 ADD MSTORE JUMPDEST POP POP POP POP JUMP JUMPDEST PUSH1 0x0 PUSH1 0x1F NOT PUSH1 0x1F DUP4 ADD AND SWAP1 POP SWAP2 SWAP1 POP JUMP JUMPDEST PUSH1 0x0 PUSH2 0x110F DUP3 PUSH2 0x10A4 JUMP JUMPDEST PUSH2 0x1119 DUP2 DUP6 PUSH2 0x10AF JUMP JUMPDEST SWAP4 POP PUSH2 0x1129 DUP2 DUP6 PUSH1 0x20 DUP7 ADD PUSH2 0x10C0 JUMP JUMPDEST PUSH2 0x1132 DUP2 PUSH2 0x10F3 JUMP JUMPDEST DUP5 ADD SWAP2 POP POP SWAP3 SWAP2 POP POP JUMP JUMPDEST PUSH1 0x0 DUP2 MLOAD SWAP1 POP SWAP2 SWAP1 POP JUMP JUMPDEST PUSH1 0x0 DUP3 DUP3 MSTORE PUSH1 0x20 DUP3 ADD SWAP1 POP SWAP3 SWAP2 POP POP JUMP JUMPDEST PUSH1 0x0 DUP2 SWAP1 POP PUSH1 0x20 DUP3 ADD SWAP1 POP SWAP2 SWAP1 POP JUMP JUMPDEST PUSH1 0x0 PUSH4 0xFFFFFFFF DUP3 AND SWAP1 POP SWAP2 SWAP1 POP JUMP JUMPDEST PUSH2 0x1182 DUP2 PUSH2 0x1169 JUMP JUMPDEST DUP3 MSTORE POP POP JUMP JUMPDEST PUSH1 0x0 PUSH1 0x60 DUP4 ADD PUSH1 0x0 DUP4 ADD MLOAD PUSH2 0x11A0 PUSH1 0x0 DUP7 ADD DUP3 PUSH2 0x1095 JUMP JUMPDEST POP PUSH1 0x20 DUP4 ADD MLOAD PUSH2 0x11B3 PUSH1 0x20 DUP7 ADD DUP3 PUSH2 0x1179 JUMP JUMPDEST POP PUSH1 0x40 DUP4 ADD MLOAD DUP5 DUP3 SUB PUSH1 0x40 DUP7 ADD MSTORE PUSH2 0x11CB DUP3 DUP3 PUSH2 0x1104 JUMP JUMPDEST SWAP2 POP POP DUP1 SWAP2 POP POP SWAP3 SWAP2 POP POP JUMP JUMPDEST PUSH1 0x0 PUSH2 0x11E4 DUP4 DUP4 PUSH2 0x1188 JUMP JUMPDEST SWAP1 POP SWAP3 SWAP2 POP POP JUMP JUMPDEST PUSH1 0x0 PUSH1 0x20 DUP3 ADD SWAP1 POP SWAP2 SWAP1 POP JUMP JUMPDEST PUSH1 0x0 PUSH2 0x1204 DUP3 PUSH2 0x113D JUMP JUMPDEST PUSH2 0x120E DUP2 DUP6 PUSH2 0x1148 JUMP JUMPDEST SWAP4 POP DUP4 PUSH1 0x20 DUP3 MUL DUP6 ADD PUSH2 0x1220 DUP6 PUSH2 0x1159 JUMP JUMPDEST DUP1 PUSH1 0x0 JUMPDEST DUP6 DUP2 LT ISZERO PUSH2 0x125C JUMPI DUP5 DUP5 SUB DUP10 MSTORE DUP2 MLOAD PUSH2 0x123D DUP6 DUP3 PUSH2 0x11D8 JUMP JUMPDEST SWAP5 POP PUSH2 0x1248 DUP4 PUSH2 0x11EC JUMP JUMPDEST SWAP3 POP PUSH1 0x20 DUP11 ADD SWAP10 POP POP PUSH1 0x1 DUP2 ADD SWAP1 POP PUSH2 0x1224 JUMP JUMPDEST POP DUP3 SWAP8 POP DUP8 SWAP6 POP POP POP POP POP POP SWAP3 SWAP2 POP POP JUMP JUMPDEST PUSH1 0x0 PUSH1 0x60 DUP4 ADD PUSH1 0x0 DUP4 ADD MLOAD PUSH2 0x1286 PUSH1 0x0 DUP7 ADD DUP3 PUSH2 0x1095 JUMP JUMPDEST POP PUSH1 0x20 DUP4 ADD MLOAD DUP5 DUP3 SUB PUSH1 0x20 DUP7 ADD MSTORE PUSH2 0x129E DUP3 DUP3 PUSH2 0x1104 JUMP JUMPDEST SWAP2 POP POP PUSH1 0x40 DUP4 ADD MLOAD DUP5 DUP3 SUB PUSH1 0x40 DUP7 ADD MSTORE PUSH2 0x12B8 DUP3 DUP3 PUSH2 0x11F9 JUMP JUMPDEST SWAP2 POP POP DUP1 SWAP2 POP POP SWAP3 SWAP2 POP POP JUMP JUMPDEST PUSH1 0x0 PUSH2 0x12D1 DUP4 DUP4 PUSH2 0x126E JUMP JUMPDEST SWAP1 POP SWAP3 SWAP2 POP POP JUMP JUMPDEST PUSH1 0x0 PUSH1 0x20 DUP3 ADD SWAP1 POP SWAP2 SWAP1 POP JUMP JUMPDEST PUSH1 0x0 PUSH2 0x12F1 DUP3 PUSH2 0x105C JUMP JUMPDEST PUSH2 0x12FB DUP2 DUP6 PUSH2 0x1067 JUMP JUMPDEST SWAP4 POP DUP4 PUSH1 0x20 DUP3 MUL DUP6 ADD PUSH2 0x130D DUP6 PUSH2 0x1078 JUMP JUMPDEST DUP1 PUSH1 0x0 JUMPDEST DUP6 DUP2 LT ISZERO PUSH2 0x1349 JUMPI DUP5 DUP5 SUB DUP10 MSTORE DUP2 MLOAD PUSH2 0x132A DUP6 DUP3 PUSH2 0x12C5 JUMP JUMPDEST SWAP5 POP PUSH2 0x1335 DUP4 PUSH2 0x12D9 JUMP JUMPDEST SWAP3 POP PUSH1 0x20 DUP11 ADD SWAP10 POP POP PUSH1 0x1 DUP2 ADD SWAP1 POP PUSH2 0x1311 JUMP JUMPDEST POP DUP3 SWAP8 POP DUP8 SWAP6 POP POP POP POP POP POP SWAP3 SWAP2 POP POP JUMP JUMPDEST PUSH1 0x0 PUSH1 0x40 DUP3 ADD SWAP1 POP PUSH2 0x1370 PUSH1 0x0 DUP4 ADD DUP6 PUSH2 0x104D JUMP JUMPDEST DUP2 DUP2 SUB PUSH1 0x20 DUP4 ADD MSTORE PUSH2 0x1382 DUP2 DUP5 PUSH2 0x12E6 JUMP JUMPDEST SWAP1 POP SWAP4 SWAP3 POP POP POP JUMP JUMPDEST PUSH1 0x0 DUP1 REVERT JUMPDEST PUSH1 0x0 DUP1 REVERT JUMPDEST PUSH1 0x0 DUP1 REVERT JUMPDEST PUSH1 0x0 DUP1 REVERT JUMPDEST PUSH1 0x0 DUP1 REVERT JUMPDEST PUSH1 0x0 DUP1 DUP4 PUSH1 0x1F DUP5 ADD SLT PUSH2 0x13BA JUMPI PUSH2 0x13B9 PUSH2 0x1395 JUMP JUMPDEST JUMPDEST DUP3 CALLDATALOAD SWAP1 POP PUSH8 0xFFFFFFFFFFFFFFFF DUP2 GT ISZERO PUSH2 0x13D7 JUMPI PUSH2 0x13D6 PUSH2 0x139A JUMP JUMPDEST JUMPDEST PUSH1 0x20 DUP4 ADD SWAP2 POP DUP4 PUSH1 0x20 DUP3 MUL DUP4 ADD GT ISZERO PUSH2 0x13F3 JUMPI PUSH2 0x13F2 PUSH2 0x139F JUMP JUMPDEST JUMPDEST SWAP3 POP SWAP3 SWAP1 POP JUMP JUMPDEST PUSH1 0x0 DUP1 PUSH1 0x20 DUP4 DUP6 SUB SLT ISZERO PUSH2 0x1411 JUMPI PUSH2 0x1410 PUSH2 0x138B JUMP JUMPDEST JUMPDEST PUSH1 0x0 DUP4 ADD CALLDATALOAD PUSH8 0xFFFFFFFFFFFFFFFF DUP2 GT ISZERO PUSH2 0x142F JUMPI PUSH2 0x142E PUSH2 0x1390 JUMP JUMPDEST JUMPDEST PUSH2 0x143B DUP6 DUP3 DUP7 ADD PUSH2 0x13A4 JUMP JUMPDEST SWAP3 POP SWAP3 POP POP SWAP3 POP SWAP3 SWAP1 POP JUMP JUMPDEST PUSH1 0x0 PUSH20 0xFFFFFFFFFFFFFFFFFFFFFFFFFFFFFFFFFFFFFFFF DUP3 AND SWAP1 POP SWAP2 SWAP1 POP JUMP JUMPDEST PUSH1 0x0 PUSH2 0x1472 DUP3 PUSH2 0x1447 JUMP JUMPDEST SWAP1 POP SWAP2 SWAP1 POP JUMP JUMPDEST PUSH2 0x1482 DUP2 PUSH2 0x1467 JUMP JUMPDEST DUP2 EQ PUSH2 0x148D JUMPI PUSH1 0x0 DUP1 REVERT JUMPDEST POP JUMP JUMPDEST PUSH1 0x0 DUP2 CALLDATALOAD SWAP1 POP PUSH2 0x149F DUP2 PUSH2 0x1479 JUMP JUMPDEST SWAP3 SWAP2 POP POP JUMP JUMPDEST PUSH1 0x0 PUSH1 0x20 DUP3 DUP5 SUB SLT ISZERO PUSH2 0x14BB JUMPI PUSH2 0x14BA PUSH2 0x138B JUMP JUMPDEST JUMPDEST PUSH1 0x0 PUSH2 0x14C9 DUP5 DUP3 DUP6 ADD PUSH2 0x1490 JUMP JUMPDEST SWAP2 POP POP SWAP3 SWAP2 POP POP JUMP JUMPDEST PUSH1 0x0 DUP2 ISZERO ISZERO SWAP1 POP SWAP2 SWAP1 POP JUMP JUMPDEST PUSH2 0x14E7 DUP2 PUSH2 0x14D2 JUMP JUMPDEST DUP3 MSTORE POP POP JUMP JUMPDEST PUSH1 0x0 PUSH1 0x20 DUP3 ADD SWAP1 POP PUSH2 0x1502 PUSH1 0x0 DUP4 ADD DUP5 PUSH2 0x14DE JUMP JUMPDEST SWAP3 SWAP2 POP POP JUMP JUMPDEST PUSH1 0x0 DUP2 MLOAD SWAP1 POP SWAP2 SWAP1 POP JUMP JUMPDEST PUSH1 0x0 DUP3 DUP3 MSTORE PUSH1 0x20 DUP3 ADD SWAP1 POP SWAP3 SWAP2 POP POP JUMP JUMPDEST PUSH1 0x0 DUP2 SWAP1 POP PUSH1 0x20 DUP3 ADD SWAP1 POP SWAP2 SWAP1 POP JUMP JUMPDEST PUSH1 0x0 DUP2 MLOAD SWAP1 POP SWAP2 SWAP1 POP JUMP JUMPDEST PUSH1 0x0 DUP3 DUP3 MSTORE PUSH1 0x20 DUP3 ADD SWAP1 POP SWAP3 SWAP2 POP POP JUMP JUMPDEST PUSH1 0x0 DUP2 SWAP1 POP PUSH1 0x20 DUP3 ADD SWAP1 POP SWAP2 SWAP1 POP JUMP JUMPDEST PUSH1 0x0 PUSH2 0x156C DUP4 DUP4 PUSH2 0x1179 JUMP JUMPDEST PUSH1 0x20 DUP4 ADD SWAP1 POP SWAP3 SWAP2 POP POP JUMP JUMPDEST PUSH1 0x0 PUSH1 0x20 DUP3 ADD SWAP1 POP SWAP2 SWAP1 POP JUMP JUMPDEST PUSH1 0x0 PUSH2 0x1590 DUP3 PUSH2 0x1534 JUMP JUMPDEST PUSH2 0x159A DUP2 DUP6 PUSH2 0x153F JUMP JUMPDEST SWAP4 POP PUSH2 0x15A5 DUP4 PUSH2 0x1550 JUMP JUMPDEST DUP1 PUSH1 0x0 JUMPDEST DUP4 DUP2 LT ISZERO PUSH2 0x15D6 JUMPI DUP2 MLOAD PUSH2 0x15BD DUP9 DUP3 PUSH2 0x1560 JUMP JUMPDEST SWAP8 POP PUSH2 0x15C8 DUP4 PUSH2 0x1578 JUMP JUMPDEST SWAP3 POP POP PUSH1 0x1 DUP2 ADD SWAP1 POP PUSH2 0x15A9 JUMP JUMPDEST POP DUP6 SWAP4 POP POP POP POP SWAP3 SWAP2 POP POP JUMP JUMPDEST PUSH1 0x0 PUSH2 0x15EF DUP4 DUP4 PUSH2 0x1585 JUMP JUMPDEST SWAP1 POP SWAP3 SWAP2 POP POP JUMP JUMPDEST PUSH1 0x0 PUSH1 0x20 DUP3 ADD SWAP1 POP SWAP2 SWAP1 POP JUMP JUMPDEST PUSH1 0x0 PUSH2 0x160F DUP3 PUSH2 0x1508 JUMP JUMPDEST PUSH2 0x1619 DUP2 DUP6 PUSH2 0x1513 JUMP JUMPDEST SWAP4 POP DUP4 PUSH1 0x20 DUP3 MUL DUP6 ADD PUSH2 0x162B DUP6 PUSH2 0x1524 JUMP JUMPDEST DUP1 PUSH1 0x0 JUMPDEST DUP6 DUP2 LT ISZERO PUSH2 0x1667 JUMPI DUP5 DUP5 SUB DUP10 MSTORE DUP2 MLOAD PUSH2 0x1648 DUP6 DUP3 PUSH2 0x15E3 JUMP JUMPDEST SWAP5 POP PUSH2 0x1653 DUP4 PUSH2 0x15F7 JUMP JUMPDEST SWAP3 POP PUSH1 0x20 DUP11 ADD SWAP10 POP POP PUSH1 0x1 DUP2 ADD SWAP1 POP PUSH2 0x162F JUMP JUMPDEST POP DUP3 SWAP8 POP DUP8 SWAP6 POP POP POP POP POP POP SWAP3 SWAP2 POP POP JUMP JUMPDEST PUSH1 0x0 PUSH1 0x40 DUP3 ADD SWAP1 POP PUSH2 0x168E PUSH1 0x0 DUP4 ADD DUP6 PUSH2 0x104D JUMP JUMPDEST DUP2 DUP2 SUB PUSH1 0x20 DUP4 ADD MSTORE PUSH2 0x16A0 DUP2 DUP5 PUSH2 0x1604 JUMP JUMPDEST SWAP1 POP SWAP4 SWAP3 POP POP POP JUMP JUMPDEST PUSH2 0x16B2 DUP2 PUSH2 0x1467 JUMP JUMPDEST DUP3 MSTORE POP POP JUMP JUMPDEST PUSH1 0x0 PUSH1 0x20 DUP3 ADD SWAP1 POP PUSH2 0x16CD PUSH1 0x0 DUP4 ADD DUP5 PUSH2 0x16A9 JUMP JUMPDEST SWAP3 SWAP2 POP POP JUMP JUMPDEST PUSH1 0x0 DUP2 MLOAD SWAP1 POP SWAP2 SWAP1 POP JUMP JUMPDEST PUSH1 0x0 DUP3 DUP3 MSTORE PUSH1 0x20 DUP3 ADD SWAP1 POP SWAP3 SWAP2 POP POP JUMP JUMPDEST PUSH1 0x0 DUP2 SWAP1 POP PUSH1 0x20 DUP3 ADD SWAP1 POP SWAP2 SWAP1 POP JUMP JUMPDEST PUSH1 0x0 PUSH2 0x170B DUP4 DUP4 PUSH2 0x1104 JUMP JUMPDEST SWAP1 POP SWAP3 SWAP2 POP POP JUMP JUMPDEST PUSH1 0x0 PUSH1 0x20 DUP3 ADD SWAP1 POP SWAP2 SWAP1 POP JUMP JUMPDEST PUSH1 0x0 PUSH2 0x172B DUP3 PUSH2 0x16D3 JUMP JUMPDEST PUSH2 0x1735 DUP2 DUP6 PUSH2 0x16DE JUMP JUMPDEST SWAP4 POP DUP4 PUSH1 0x20 DUP3 MUL DUP6 ADD PUSH2 0x1747 DUP6 PUSH2 0x16EF JUMP JUMPDEST DUP1 PUSH1 0x0 JUMPDEST DUP6 DUP2 LT ISZERO PUSH2 0x1783 JUMPI DUP5 DUP5 SUB DUP10 MSTORE DUP2 MLOAD PUSH2 0x1764 DUP6 DUP3 PUSH2 0x16FF JUMP JUMPDEST SWAP5 POP PUSH2 0x176F DUP4 PUSH2 0x1713 JUMP JUMPDEST SWAP3 POP PUSH1 0x20 DUP11 ADD SWAP10 POP POP PUSH1 0x1 DUP2 ADD SWAP1 POP PUSH2 0x174B JUMP JUMPDEST POP DUP3 SWAP8 POP DUP8 SWAP6 POP POP POP POP POP POP SWAP3 SWAP2 POP POP JUMP JUMPDEST PUSH1 0x0 DUP2 MLOAD SWAP1 POP SWAP2 SWAP1 POP JUMP JUMPDEST PUSH1 0x0 DUP3 DUP3 MSTORE PUSH1 0x20 DUP3 ADD SWAP1 POP SWAP3 SWAP2 POP POP JUMP JUMPDEST PUSH1 0x0 DUP2 SWAP1 POP PUSH1 0x20 DUP3 ADD SWAP1 POP SWAP2 SWAP1 POP JUMP JUMPDEST PUSH2 0x17CA DUP2 PUSH2 0x1043 JUMP JUMPDEST DUP3 MSTORE POP POP JUMP JUMPDEST PUSH1 0x0 PUSH2 0x17DC DUP4 DUP4 PUSH2 0x17C1 JUMP JUMPDEST PUSH1 0x20 DUP4 ADD SWAP1 POP SWAP3 SWAP2 POP POP JUMP JUMPDEST PUSH1 0x0 PUSH1 0x20 DUP3 ADD SWAP1 POP SWAP2 SWAP1 POP JUMP JUMPDEST PUSH1 0x0 PUSH2 0x1800 DUP3 PUSH2 0x1795 JUMP JUMPDEST PUSH2 0x180A DUP2 DUP6 PUSH2 0x17A0 JUMP JUMPDEST SWAP4 POP PUSH2 0x1815 DUP4 PUSH2 0x17B1 JUMP JUMPDEST DUP1 PUSH1 0x0 JUMPDEST DUP4 DUP2 LT ISZERO PUSH2 0x1846 JUMPI DUP2 MLOAD PUSH2 0x182D DUP9 DUP3 PUSH2 0x17D0 JUMP JUMPDEST SWAP8 POP PUSH2 0x1838 DUP4 PUSH2 0x17E8 JUMP JUMPDEST SWAP3 POP POP PUSH1 0x1 DUP2 ADD SWAP1 POP PUSH2 0x1819 JUMP JUMPDEST POP DUP6 SWAP4 POP POP POP POP SWAP3 SWAP2 POP POP JUMP JUMPDEST PUSH1 0x0 PUSH1 0xC0 DUP3 ADD SWAP1 POP DUP2 DUP2 SUB PUSH1 0x0 DUP4 ADD MSTORE PUSH2 0x186D DUP2 DUP10 PUSH2 0x1720 JUMP JUMPDEST SWAP1 POP DUP2 DUP2 SUB PUSH1 0x20 DUP4 ADD MSTORE PUSH2 0x1881 DUP2 DUP9 PUSH2 0x17F5 JUMP JUMPDEST SWAP1 POP PUSH2 0x1890 PUSH1 0x40 DUP4 ADD DUP8 PUSH2 0x104D JUMP JUMPDEST PUSH2 0x189D PUSH1 0x60 DUP4 ADD DUP7 PUSH2 0x104D JUMP JUMPDEST PUSH2 0x18AA PUSH1 0x80 DUP4 ADD DUP6 PUSH2 0x14DE JUMP JUMPDEST PUSH2 0x18B7 PUSH1 0xA0 DUP4 ADD DUP5 PUSH2 0x104D JUMP JUMPDEST SWAP8 SWAP7 POP POP POP POP POP POP POP JUMP JUMPDEST PUSH1 0x0 PUSH1 0x20 DUP3 ADD SWAP1 POP PUSH2 0x18D7 PUSH1 0x0 DUP4 ADD DUP5 PUSH2 0x104D JUMP JUMPDEST SWAP3 SWAP2 POP POP JUMP JUMPDEST PUSH32 0x4E487B7100000000000000000000000000000000000000000000000000000000 PUSH1 0x0 MSTORE PUSH1 0x22 PUSH1 0x4 MSTORE PUSH1 0x24 PUSH1 0x0 REVERT JUMPDEST PUSH1 0x0 PUSH1 0x2 DUP3 DIV SWAP1 POP PUSH1 0x1 DUP3 AND DUP1 PUSH2 0x1924 JUMPI PUSH1 0x7F DUP3 AND SWAP2 POP JUMPDEST PUSH1 0x20 DUP3 LT DUP2 EQ ISZERO PUSH2 0x1938 JUMPI PUSH2 0x1937 PUSH2 0x18DD JUMP JUMPDEST JUMPDEST POP SWAP2 SWAP1 POP JUMP JUMPDEST PUSH1 0x0 DUP3 DUP3 MSTORE PUSH1 0x20 DUP3 ADD SWAP1 POP SWAP3 SWAP2 POP POP JUMP JUMPDEST PUSH32 0x596F75277265206E6F7420656C696769626C6520666F72207468697320706F6C PUSH1 0x0 DUP3 ADD MSTORE PUSH32 0x6C21000000000000000000000000000000000000000000000000000000000000 PUSH1 0x20 DUP3 ADD MSTORE POP JUMP JUMPDEST PUSH1 0x0 PUSH2 0x19AB PUSH1 0x22 DUP4 PUSH2 0x193E JUMP JUMPDEST SWAP2 POP PUSH2 0x19B6 DUP3 PUSH2 0x194F JUMP JUMPDEST PUSH1 0x40 DUP3 ADD SWAP1 POP SWAP2 SWAP1 POP JUMP JUMPDEST PUSH1 0x0 PUSH1 0x20 DUP3 ADD SWAP1 POP DUP2 DUP2 SUB PUSH1 0x0 DUP4 ADD MSTORE PUSH2 0x19DA DUP2 PUSH2 0x199E JUMP JUMPDEST SWAP1 POP SWAP2 SWAP1 POP JUMP JUMPDEST PUSH32 0x596F7527766520766F74656420616C7265616479210000000000000000000000 PUSH1 0x0 DUP3 ADD MSTORE POP JUMP JUMPDEST PUSH1 0x0 PUSH2 0x1A17 PUSH1 0x15 DUP4 PUSH2 0x193E JUMP JUMPDEST SWAP2 POP PUSH2 0x1A22 DUP3 PUSH2 0x19E1 JUMP JUMPDEST PUSH1 0x20 DUP3 ADD SWAP1 POP SWAP2 SWAP1 POP JUMP JUMPDEST PUSH1 0x0 PUSH1 0x20 DUP3 ADD SWAP1 POP DUP2 DUP2 SUB PUSH1 0x0 DUP4 ADD MSTORE PUSH2 0x1A46 DUP2 PUSH2 0x1A0A JUMP JUMPDEST SWAP1 POP SWAP2 SWAP1 POP JUMP JUMPDEST PUSH32 0x4E487B7100000000000000000000000000000000000000000000000000000000 PUSH1 0x0 MSTORE PUSH1 0x32 PUSH1 0x4 MSTORE PUSH1 0x24 PUSH1 0x0 REVERT JUMPDEST PUSH32 0x506F6C6C20686173206E6F742073746172746564000000000000000000000000 PUSH1 0x0 DUP3 ADD MSTORE POP JUMP JUMPDEST PUSH1 0x0 PUSH2 0x1AB2 PUSH1 0x14 DUP4 PUSH2 0x193E JUMP JUMPDEST SWAP2 POP PUSH2 0x1ABD DUP3 PUSH2 0x1A7C JUMP JUMPDEST PUSH1 0x20 DUP3 ADD SWAP1 POP SWAP2 SWAP1 POP JUMP JUMPDEST PUSH1 0x0 PUSH1 0x20 DUP3 ADD SWAP1 POP DUP2 DUP2 SUB PUSH1 0x0 DUP4 ADD MSTORE PUSH2 0x1AE1 DUP2 PUSH2 0x1AA5 JUMP JUMPDEST SWAP1 POP SWAP2 SWAP1 POP JUMP JUMPDEST PUSH32 0x506F6C6C20686173206E6F7420656E6465640000000000000000000000000000 PUSH1 0x0 DUP3 ADD MSTORE POP JUMP JUMPDEST PUSH1 0x0 PUSH2 0x1B1E PUSH1 0x12 DUP4 PUSH2 0x193E JUMP JUMPDEST SWAP2 POP PUSH2 0x1B29 DUP3 PUSH2 0x1AE8 JUMP JUMPDEST PUSH1 0x20 DUP3 ADD SWAP1 POP SWAP2 SWAP1 POP JUMP JUMPDEST PUSH1 0x0 PUSH1 0x20 DUP3 ADD SWAP1 POP DUP2 DUP2 SUB PUSH1 0x0 DUP4 ADD MSTORE PUSH2 0x1B4D DUP2 PUSH2 0x1B11 JUMP JUMPDEST SWAP1 POP SWAP2 SWAP1 POP JUMP JUMPDEST PUSH2 0x1B5D DUP2 PUSH2 0x1088 JUMP JUMPDEST DUP2 EQ PUSH2 0x1B68 JUMPI PUSH1 0x0 DUP1 REVERT JUMPDEST POP JUMP JUMPDEST PUSH1 0x0 DUP2 CALLDATALOAD SWAP1 POP PUSH2 0x1B7A DUP2 PUSH2 0x1B54 JUMP JUMPDEST SWAP3 SWAP2 POP POP JUMP JUMPDEST PUSH1 0x0 PUSH1 0x20 DUP3 DUP5 SUB SLT ISZERO PUSH2 0x1B96 JUMPI PUSH2 0x1B95 PUSH2 0x138B JUMP JUMPDEST JUMPDEST PUSH1 0x0 PUSH2 0x1BA4 DUP5 DUP3 DUP6 ADD PUSH2 0x1B6B JUMP JUMPDEST SWAP2 POP POP SWAP3 SWAP2 POP POP JUMP JUMPDEST PUSH32 0x4E487B7100000000000000000000000000000000000000000000000000000000 PUSH1 0x0 MSTORE PUSH1 0x11 PUSH1 0x4 MSTORE PUSH1 0x24 PUSH1 0x0 REVERT JUMPDEST PUSH1 0x0 PUSH2 0x1BE7 DUP3 PUSH2 0x1169 JUMP JUMPDEST SWAP2 POP PUSH2 0x1BF2 DUP4 PUSH2 0x1169 JUMP JUMPDEST SWAP3 POP DUP3 PUSH4 0xFFFFFFFF SUB DUP3 GT ISZERO PUSH2 0x1C0B JUMPI PUSH2 0x1C0A PUSH2 0x1BAD JUMP JUMPDEST JUMPDEST DUP3 DUP3 ADD SWAP1 POP SWAP3 SWAP2 POP POP JUMP JUMPDEST PUSH1 0x0 PUSH2 0x1C21 DUP3 PUSH2 0x1043 JUMP JUMPDEST SWAP2 POP PUSH2 0x1C2C DUP4 PUSH2 0x1043 JUMP JUMPDEST SWAP3 POP DUP3 PUSH32 0xFFFFFFFFFFFFFFFFFFFFFFFFFFFFFFFFFFFFFFFFFFFFFFFFFFFFFFFFFFFFFFFF SUB DUP3 GT ISZERO PUSH2 0x1C61 JUMPI PUSH2 0x1C60 PUSH2 0x1BAD JUMP JUMPDEST JUMPDEST DUP3 DUP3 ADD SWAP1 POP SWAP3 SWAP2 POP POP JUMP JUMPDEST PUSH1 0x0 PUSH2 0x1C77 DUP3 PUSH2 0x1088 JUMP JUMPDEST SWAP2 POP PUSH1 0xFF DUP3 EQ ISZERO PUSH2 0x1C8B JUMPI PUSH2 0x1C8A PUSH2 0x1BAD JUMP JUMPDEST JUMPDEST PUSH1 0x1 DUP3 ADD SWAP1 POP SWAP2 SWAP1 POP JUMP JUMPDEST PUSH1 0x0 PUSH2 0x1CA1 DUP3 PUSH2 0x1088 JUMP JUMPDEST SWAP2 POP PUSH2 0x1CAC DUP4 PUSH2 0x1088 JUMP JUMPDEST SWAP3 POP DUP3 PUSH1 0xFF SUB DUP3 GT ISZERO PUSH2 0x1CC2 JUMPI PUSH2 0x1CC1 PUSH2 0x1BAD JUMP JUMPDEST JUMPDEST DUP3 DUP3 ADD SWAP1 POP SWAP3 SWAP2 POP POP JUMP JUMPDEST PUSH1 0x0 DUP2 SLOAD SWAP1 POP SWAP2 SWAP1 POP JUMP JUMPDEST PUSH1 0x0 DUP2 SWAP1 POP SWAP3 SWAP2 POP POP JUMP JUMPDEST PUSH1 0x0 DUP2 SWAP1 POP DUP2 PUSH1 0x0 MSTORE PUSH1 0x20 PUSH1 0x0 KECCAK256 SWAP1 POP SWAP2 SWAP1 POP JUMP JUMPDEST PUSH1 0x0 DUP2 SLOAD SWAP1 POP SWAP2 SWAP1 POP JUMP JUMPDEST PUSH1 0x0 DUP2 SWAP1 POP SWAP3 SWAP2 POP POP JUMP JUMPDEST PUSH1 0x0 DUP2 SWAP1 POP DUP2 PUSH1 0x0 MSTORE PUSH1 0x20 PUSH1 0x0 KECCAK256 SWAP1 POP SWAP2 SWAP1 POP JUMP JUMPDEST PUSH2 0x1D2C DUP2 PUSH2 0x1043 JUMP JUMPDEST DUP3 MSTORE POP POP JUMP JUMPDEST PUSH1 0x0 PUSH2 0x1D3E DUP4 DUP4 PUSH2 0x1D23 JUMP JUMPDEST PUSH1 0x20 DUP4 ADD SWAP1 POP SWAP3 SWAP2 POP POP JUMP JUMPDEST PUSH1 0x0 DUP2 PUSH1 0x0 SHR SWAP1 POP SWAP2 SWAP1 POP JUMP JUMPDEST PUSH1 0x0 DUP2 SWAP1 POP SWAP2 SWAP1 POP JUMP JUMPDEST PUSH1 0x0 PUSH2 0x1D74 PUSH2 0x1D6F DUP4 PUSH2 0x1D4A JUMP JUMPDEST PUSH2 0x1D57 JUMP JUMPDEST SWAP1 POP SWAP2 SWAP1 POP JUMP JUMPDEST PUSH1 0x0 PUSH2 0x1D87 DUP3 SLOAD PUSH2 0x1D61 JUMP JUMPDEST SWAP1 POP SWAP2 SWAP1 POP JUMP JUMPDEST PUSH1 0x0 PUSH1 0x1 DUP3 ADD SWAP1 POP SWAP2 SWAP1 POP JUMP JUMPDEST PUSH1 0x0 PUSH2 0x1DA6 DUP3 PUSH2 0x1CF8 JUMP JUMPDEST PUSH2 0x1DB0 DUP2 DUP6 PUSH2 0x1D03 JUMP JUMPDEST SWAP4 POP PUSH2 0x1DBB DUP4 PUSH2 0x1D0E JUMP JUMPDEST DUP1 PUSH1 0x0 JUMPDEST DUP4 DUP2 LT ISZERO PUSH2 0x1DF3 JUMPI PUSH2 0x1DD0 DUP3 PUSH2 0x1D7B JUMP JUMPDEST PUSH2 0x1DDA DUP9 DUP3 PUSH2 0x1D32 JUMP JUMPDEST SWAP8 POP PUSH2 0x1DE5 DUP4 PUSH2 0x1D8E JUMP JUMPDEST SWAP3 POP POP PUSH1 0x1 DUP2 ADD SWAP1 POP PUSH2 0x1DBF JUMP JUMPDEST POP DUP6 SWAP4 POP POP POP POP SWAP3 SWAP2 POP POP JUMP JUMPDEST PUSH1 0x0 PUSH2 0x1E0C DUP4 DUP4 PUSH2 0x1D9B JUMP JUMPDEST SWAP1 POP SWAP3 SWAP2 POP POP JUMP JUMPDEST PUSH1 0x0 PUSH1 0x1 DUP3 ADD SWAP1 POP SWAP2 SWAP1 POP JUMP JUMPDEST PUSH1 0x0 PUSH2 0x1E2C DUP3 PUSH2 0x1CCD JUMP JUMPDEST PUSH2 0x1E36 DUP2 DUP6 PUSH2 0x1CD8 JUMP JUMPDEST SWAP4 POP PUSH2 0x1E41 DUP4 PUSH2 0x1CE3 JUMP JUMPDEST DUP1 PUSH1 0x0 JUMPDEST DUP4 DUP2 LT ISZERO PUSH2 0x1E71 JUMPI DUP2 PUSH2 0x1E58 DUP9 DUP3 PUSH2 0x1E00 JUMP JUMPDEST SWAP8 POP PUSH2 0x1E63 DUP4 PUSH2 0x1E14 JUMP JUMPDEST SWAP3 POP POP PUSH1 0x1 DUP2 ADD SWAP1 POP PUSH2 0x1E45 JUMP JUMPDEST POP DUP6 SWAP4 POP POP POP POP SWAP3 SWAP2 POP POP JUMP JUMPDEST PUSH1 0x0 PUSH2 0x1E8A DUP3 DUP5 PUSH2 0x1E21 JUMP JUMPDEST SWAP2 POP DUP2 SWAP1 POP SWAP3 SWAP2 POP POP JUMP JUMPDEST PUSH32 0x4E487B7100000000000000000000000000000000000000000000000000000000 PUSH1 0x0 MSTORE PUSH1 0x41 PUSH1 0x4 MSTORE PUSH1 0x24 PUSH1 0x0 REVERT JUMPDEST PUSH1 0x0 PUSH2 0x1ECF DUP3 PUSH2 0x1169 JUMP JUMPDEST SWAP2 POP PUSH4 0xFFFFFFFF DUP3 EQ ISZERO PUSH2 0x1EE6 JUMPI PUSH2 0x1EE5 PUSH2 0x1BAD JUMP JUMPDEST JUMPDEST PUSH1 0x1 DUP3 ADD SWAP1 POP SWAP2 SWAP1 POP JUMP INVALID LOG2 PUSH5 0x6970667358 0x22 SLT KECCAK256 KECCAK256 0xA8 SWAP9 0xC5 EXP CALLVALUE ADDMOD GT 0xC7 0xB0 0xAE EXTCODEHASH LOG0 CALLVALUE SSTORE CHAINID 0xE3 0x2B SELFBALANCE 0x4C 0xC 0xBE BALANCE 0xAB 0x29 SWAP3 SAR 0x2F MLOAD PUSH23 0xA50564736F6C63430008090033A2646970667358221220 SWAP11 PUSH9 0x300B75A532E512F4D9 0xD7 0xC4 DIV 0xDA DUP7 0x4F 0xF8 DELEGATECALL CALLVALUE JUMPI 0xCB 0xAC 0x26 DIFFICULTY KECCAK256 SAR SSTORE LOG2 0xC5 0x22 PUSH22 0x64736F6C634300080900330000000000000000000000 "},"methodIdentifiers":{"createPoll(string[],uint256[],(uint8,string,(uint8,string)[])[],address[])":"8fe97fa7","currentTime()":"d18e81b3","fetchPolls(uint256,uint8)":"2b01737f","getPollAddress(uint256)":"d83aba61","getPollCount()":"11a52746","pollStatus(uint256[])":"7769f5e7","queryPoll(uint256)":"d81cf6c8"}}}}}