{
  "_format": "hh-sol-artifact-1",
  "contractName": "PollFactory",
  "sourceName": "contracts/PollFactory.sol",
  "abi": [
    {
      "anonymous": false,
      "inputs": [
        {
          "indexed": true,
          "internalType": "uint256",
          "name": "pollCount",
          "type": "uint256"
        }
      ],
      "name": "pollCreated",
      "type": "event"
    },
    {
      "inputs": [
        {
          "internalType": "string[]",
          "name": "titleDesc_",
          "type": "string[]"
        },
        {
          "internalType": "uint256[]",
          "name": "startEnd_",
          "type": "uint256[]"
        },
        {
          "components": [
            {
              "internalType": "uint8",
              "name": "id",
              "type": "uint8"
            },
            {
              "internalType": "string",
              "name": "text",
              "type": "string"
            },
            {
              "components": [
                {
                  "internalType": "uint8",
                  "name": "id",
                  "type": "uint8"
                },
                {
                  "internalType": "string",
                  "name": "text",
                  "type": "string"
                }
              ],
              "internalType": "struct PollData.Option_[]",
              "name": "options",
              "type": "tuple[]"
            }
          ],
          "internalType": "struct PollData.Category_[]",
          "name": "categories_",
          "type": "tuple[]"
        },
        {
          "internalType": "address[]",
          "name": "participation_",
          "type": "address[]"
        }
      ],
      "name": "createPoll",
      "outputs": [],
      "stateMutability": "nonpayable",
      "type": "function"
    },
    {
      "inputs": [],
      "name": "currentTime",
      "outputs": [
        {
          "internalType": "uint256",
          "name": "",
          "type": "uint256"
        }
      ],
      "stateMutability": "view",
      "type": "function"
    },
    {
      "inputs": [
        {
          "internalType": "uint256",
          "name": "pollId",
          "type": "uint256"
        },
        {
          "internalType": "uint8",
          "name": "n",
          "type": "uint8"
        }
      ],
      "name": "fetchPolls",
      "outputs": [
        {
          "components": [
            {
              "internalType": "string[]",
              "name": "titleDesc",
              "type": "string[]"
            },
            {
              "internalType": "uint256[]",
              "name": "startEnd",
              "type": "uint256[]"
            },
            {
              "internalType": "uint256",
              "name": "creationTime",
              "type": "uint256"
            },
            {
              "internalType": "enum PollData.PollStatus",
              "name": "pollStatus",
              "type": "uint8"
            },
            {
              "internalType": "uint256",
              "name": "votes",
              "type": "uint256"
            },
            {
              "internalType": "bool",
              "name": "isOpen",
              "type": "bool"
            },
            {
              "internalType": "bool",
              "name": "isEligible",
              "type": "bool"
            },
            {
              "internalType": "uint256",
              "name": "pollId",
              "type": "uint256"
            }
          ],
          "internalType": "struct PollData.QueryResult[]",
          "name": "",
          "type": "tuple[]"
        }
      ],
      "stateMutability": "view",
      "type": "function"
    },
    {
      "inputs": [
        {
          "internalType": "uint256",
          "name": "pollId",
          "type": "uint256"
        }
      ],
      "name": "getPollAddress",
      "outputs": [
        {
          "internalType": "address",
          "name": "",
          "type": "address"
        }
      ],
      "stateMutability": "view",
      "type": "function"
    },
    {
      "inputs": [],
      "name": "getPollCount",
      "outputs": [
        {
          "internalType": "uint256",
          "name": "",
          "type": "uint256"
        }
      ],
      "stateMutability": "view",
      "type": "function"
    },
    {
      "inputs": [
        {
          "internalType": "uint256[]",
          "name": "_startEnd",
          "type": "uint256[]"
        }
      ],
      "name": "pollStatus",
      "outputs": [
        {
          "internalType": "enum PollData.PollStatus",
          "name": "",
          "type": "uint8"
        }
      ],
      "stateMutability": "view",
      "type": "function"
    },
    {
      "inputs": [
        {
          "internalType": "uint256",
          "name": "pollId",
          "type": "uint256"
        }
      ],
      "name": "queryPoll",
      "outputs": [
        {
          "components": [
            {
              "internalType": "string[]",
              "name": "titleDesc",
              "type": "string[]"
            },
            {
              "internalType": "uint256[]",
              "name": "startEnd",
              "type": "uint256[]"
            },
            {
              "internalType": "uint256",
              "name": "creationTime",
              "type": "uint256"
            },
            {
              "internalType": "enum PollData.PollStatus",
              "name": "pollStatus",
              "type": "uint8"
            },
            {
              "internalType": "uint256",
              "name": "votes",
              "type": "uint256"
            },
            {
              "internalType": "bool",
              "name": "isOpen",
              "type": "bool"
            },
            {
              "internalType": "bool",
              "name": "isEligible",
              "type": "bool"
            },
            {
              "internalType": "uint256",
              "name": "pollId",
              "type": "uint256"
            }
          ],
          "internalType": "struct PollData.QueryResult",
          "name": "",
          "type": "tuple"
        }
      ],
      "stateMutability": "view",
      "type": "function"
    }
  ],
  "bytecode": "0x608060405234801561001057600080fd5b5061542a806100206000396000f3fe60806040523480156200001157600080fd5b5060043610620000885760003560e01c80638fe97fa711620000635780638fe97fa7146200011b578063d18e81b3146200013b578063d81cf6c8146200015d578063d83aba6114620001935762000088565b806311a52746146200008d5780632b01737f14620000af5780637769f5e714620000e5575b600080fd5b62000097620001c9565b604051620000a6919062000987565b60405180910390f35b620000cd6004803603810190620000c7919062000a27565b620001dc565b604051620000dc919062000ee4565b60405180910390f35b620001036004803603810190620000fd91906200106c565b620002a9565b604051620001129190620010ce565b60405180910390f35b62000139600480360381019062000133919062001702565b62000355565b005b6200014562000447565b60405162000154919062000987565b60405180910390f35b6200017b6004803603810190620001759190620017f0565b6200044f565b6040516200018a9190620018e9565b60405180910390f35b620001b16004803603810190620001ab9190620017f0565b620006b0565b604051620001c091906200191e565b60405180910390f35b6000620001d76000620008dc565b905090565b606060008260ff1667ffffffffffffffff8111156200020057620001ff62000f0d565b5b6040519080825280602002602001820160405280156200023d57816020015b6200022962000900565b8152602001906001900390816200021f5790505b50905060005b8360ff168110156200029e576200026781866200026191906200196a565b6200044f565b8282815181106200027d576200027c620019a5565b5b602002602001018190525080806200029590620019d4565b91505062000243565b508091505092915050565b60008082511415620002bf576001905062000350565b81600081518110620002d657620002d5620019a5565b5b6020026020010151421015620002f0576000905062000350565b81600081518110620003075762000306620019a5565b5b6020026020010151421180156200033b57508160018151811062000330576200032f620019a5565b5b602002602001015142105b156200034b576001905062000350565b600290505b919050565b620003616000620008ea565b6200036d6000620008dc565b848484846040516200037f906200095e565b6200038f95949392919062001e4c565b604051809103906000f080158015620003ac573d6000803e3d6000fd5b5060016000620003bd6000620008dc565b815260200190815260200160002060006101000a81548173ffffffffffffffffffffffffffffffffffffffff021916908373ffffffffffffffffffffffffffffffffffffffff160217905550620004156000620008dc565b7f3e8e3d753052c785eaa664810323ba37e786d5e5f11716c0767824c6ad6b8bf460405160405180910390a250505050565b600042905090565b6200045962000900565b620004656000620008dc565b821115620004aa576040517f08c379a0000000000000000000000000000000000000000000000000000000008152600401620004a19062001f26565b60405180910390fd5b6000806000806000806001600089815260200190815260200160002060009054906101000a900473ffffffffffffffffffffffffffffffffffffffff1673ffffffffffffffffffffffffffffffffffffffff166395084c6f6040518163ffffffff1660e01b815260040160006040518083038186803b1580156200052d57600080fd5b505afa15801562000542573d6000803e3d6000fd5b505050506040513d6000823e3d601f19601f820116820180604052508101906200056d91906200217d565b9550955095509550955095506000600160008a815260200190815260200160002060009054906101000a900473ffffffffffffffffffffffffffffffffffffffff1673ffffffffffffffffffffffffffffffffffffffff166366e305fd336040518263ffffffff1660e01b8152600401620005e991906200191e565b60206040518083038186803b1580156200060257600080fd5b505afa15801562000617573d6000803e3d6000fd5b505050506040513d601f19601f820116820180604052508101906200063d919062002257565b905060006200064c87620002a9565b905060405180610100016040528089815260200188815260200187815260200182600281111562000682576200068162000cdc565b5b8152602001868152602001851515815260200183151581526020018481525098505050505050505050919050565b60006001600083815260200190815260200160002060009054906101000a900473ffffffffffffffffffffffffffffffffffffffff1673ffffffffffffffffffffffffffffffffffffffff166366e305fd336040518263ffffffff1660e01b81526004016200072091906200191e565b60206040518083038186803b1580156200073957600080fd5b505afa1580156200074e573d6000803e3d6000fd5b505050506040513d601f19601f8201168201806040525081019062000774919062002257565b806200085f57506001600083815260200190815260200160002060009054906101000a900473ffffffffffffffffffffffffffffffffffffffff1673ffffffffffffffffffffffffffffffffffffffff16638da5cb5b6040518163ffffffff1660e01b815260040160206040518083038186803b158015620007f557600080fd5b505afa1580156200080a573d6000803e3d6000fd5b505050506040513d601f19601f82011682018060405250810190620008309190620022a0565b73ffffffffffffffffffffffffffffffffffffffff163373ffffffffffffffffffffffffffffffffffffffff16145b620008a1576040517f08c379a0000000000000000000000000000000000000000000000000000000008152600401620008989062002348565b60405180910390fd5b6001600083815260200190815260200160002060009054906101000a900473ffffffffffffffffffffffffffffffffffffffff169050919050565b600081600001549050919050565b6001816000016000828254019250508190555050565b6040518061010001604052806060815260200160608152602001600081526020016000600281111562000938576200093762000cdc565b5b815260200160008152602001600015158152602001600015158152602001600081525090565b61308a806200236b83390190565b6000819050919050565b62000981816200096c565b82525050565b60006020820190506200099e600083018462000976565b92915050565b6000604051905090565b600080fd5b600080fd5b620009c3816200096c565b8114620009cf57600080fd5b50565b600081359050620009e381620009b8565b92915050565b600060ff82169050919050565b62000a0181620009e9565b811462000a0d57600080fd5b50565b60008135905062000a2181620009f6565b92915050565b6000806040838503121562000a415762000a40620009ae565b5b600062000a5185828601620009d2565b925050602062000a648582860162000a10565b9150509250929050565b600081519050919050565b600082825260208201905092915050565b6000819050602082019050919050565b600081519050919050565b600082825260208201905092915050565b6000819050602082019050919050565b600081519050919050565b600082825260208201905092915050565b60005b8381101562000b0257808201518184015260208101905062000ae5565b8381111562000b12576000848401525b50505050565b6000601f19601f8301169050919050565b600062000b368262000ac6565b62000b42818562000ad1565b935062000b5481856020860162000ae2565b62000b5f8162000b18565b840191505092915050565b600062000b78838362000b29565b905092915050565b6000602082019050919050565b600062000b9a8262000a9a565b62000ba6818562000aa5565b93508360208202850162000bba8562000ab6565b8060005b8581101562000bfc578484038952815162000bda858262000b6a565b945062000be78362000b80565b925060208a0199505060018101905062000bbe565b50829750879550505050505092915050565b600081519050919050565b600082825260208201905092915050565b6000819050602082019050919050565b62000c45816200096c565b82525050565b600062000c59838362000c3a565b60208301905092915050565b6000602082019050919050565b600062000c7f8262000c0e565b62000c8b818562000c19565b935062000c988362000c2a565b8060005b8381101562000ccf57815162000cb3888262000c4b565b975062000cc08362000c65565b92505060018101905062000c9c565b5085935050505092915050565b7f4e487b7100000000000000000000000000000000000000000000000000000000600052602160045260246000fd5b6003811062000d1f5762000d1e62000cdc565b5b50565b600081905062000d328262000d0b565b919050565b600062000d448262000d22565b9050919050565b62000d568162000d37565b82525050565b60008115159050919050565b62000d738162000d5c565b82525050565b600061010083016000830151848203600086015262000d99828262000b8d565b9150506020830151848203602086015262000db5828262000c72565b915050604083015162000dcc604086018262000c3a565b50606083015162000de1606086018262000d4b565b50608083015162000df6608086018262000c3a565b5060a083015162000e0b60a086018262000d68565b5060c083015162000e2060c086018262000d68565b5060e083015162000e3560e086018262000c3a565b508091505092915050565b600062000e4e838362000d79565b905092915050565b6000602082019050919050565b600062000e708262000a6e565b62000e7c818562000a79565b93508360208202850162000e908562000a8a565b8060005b8581101562000ed2578484038952815162000eb0858262000e40565b945062000ebd8362000e56565b925060208a0199505060018101905062000e94565b50829750879550505050505092915050565b6000602082019050818103600083015262000f00818462000e63565b905092915050565b600080fd5b7f4e487b7100000000000000000000000000000000000000000000000000000000600052604160045260246000fd5b62000f478262000b18565b810181811067ffffffffffffffff8211171562000f695762000f6862000f0d565b5b80604052505050565b600062000f7e620009a4565b905062000f8c828262000f3c565b919050565b600067ffffffffffffffff82111562000faf5762000fae62000f0d565b5b602082029050602081019050919050565b600080fd5b600062000fdc62000fd68462000f91565b62000f72565b9050808382526020820190506020840283018581111562001002576200100162000fc0565b5b835b818110156200102f57806200101a8882620009d2565b84526020840193505060208101905062001004565b5050509392505050565b600082601f83011262001051576200105062000f08565b5b81356200106384826020860162000fc5565b91505092915050565b600060208284031215620010855762001084620009ae565b5b600082013567ffffffffffffffff811115620010a657620010a5620009b3565b5b620010b48482850162001039565b91505092915050565b620010c88162000d37565b82525050565b6000602082019050620010e56000830184620010bd565b92915050565b600067ffffffffffffffff82111562001109576200110862000f0d565b5b602082029050602081019050919050565b600080fd5b600067ffffffffffffffff8211156200113d576200113c62000f0d565b5b620011488262000b18565b9050602081019050919050565b82818337600083830152505050565b60006200117b62001175846200111f565b62000f72565b9050828152602081018484840111156200119a57620011996200111a565b5b620011a784828562001155565b509392505050565b600082601f830112620011c757620011c662000f08565b5b8135620011d984826020860162001164565b91505092915050565b6000620011f9620011f384620010eb565b62000f72565b905080838252602082019050602084028301858111156200121f576200121e62000fc0565b5b835b818110156200126d57803567ffffffffffffffff81111562001248576200124762000f08565b5b808601620012578982620011af565b8552602085019450505060208101905062001221565b5050509392505050565b600082601f8301126200128f576200128e62000f08565b5b8135620012a1848260208601620011e2565b91505092915050565b600067ffffffffffffffff821115620012c857620012c762000f0d565b5b602082029050602081019050919050565b600080fd5b600080fd5b600067ffffffffffffffff82111562001301576200130062000f0d565b5b602082029050602081019050919050565b6000604082840312156200132b576200132a620012d9565b5b62001337604062000f72565b90506000620013498482850162000a10565b600083015250602082013567ffffffffffffffff81111562001370576200136f620012de565b5b6200137e84828501620011af565b60208301525092915050565b6000620013a16200139b84620012e3565b62000f72565b90508083825260208201905060208402830185811115620013c757620013c662000fc0565b5b835b818110156200141557803567ffffffffffffffff811115620013f057620013ef62000f08565b5b808601620013ff898262001312565b85526020850194505050602081019050620013c9565b5050509392505050565b600082601f83011262001437576200143662000f08565b5b8135620014498482602086016200138a565b91505092915050565b6000606082840312156200146b576200146a620012d9565b5b62001477606062000f72565b90506000620014898482850162000a10565b600083015250602082013567ffffffffffffffff811115620014b057620014af620012de565b5b620014be84828501620011af565b602083015250604082013567ffffffffffffffff811115620014e557620014e4620012de565b5b620014f3848285016200141f565b60408301525092915050565b6000620015166200151084620012aa565b62000f72565b905080838252602082019050602084028301858111156200153c576200153b62000fc0565b5b835b818110156200158a57803567ffffffffffffffff81111562001565576200156462000f08565b5b80860162001574898262001452565b855260208501945050506020810190506200153e565b5050509392505050565b600082601f830112620015ac57620015ab62000f08565b5b8135620015be848260208601620014ff565b91505092915050565b600067ffffffffffffffff821115620015e557620015e462000f0d565b5b602082029050602081019050919050565b600073ffffffffffffffffffffffffffffffffffffffff82169050919050565b60006200162382620015f6565b9050919050565b620016358162001616565b81146200164157600080fd5b50565b60008135905062001655816200162a565b92915050565b6000620016726200166c84620015c7565b62000f72565b9050808382526020820190506020840283018581111562001698576200169762000fc0565b5b835b81811015620016c55780620016b0888262001644565b8452602084019350506020810190506200169a565b5050509392505050565b600082601f830112620016e757620016e662000f08565b5b8135620016f98482602086016200165b565b91505092915050565b600080600080608085870312156200171f576200171e620009ae565b5b600085013567ffffffffffffffff81111562001740576200173f620009b3565b5b6200174e8782880162001277565b945050602085013567ffffffffffffffff811115620017725762001771620009b3565b5b620017808782880162001039565b935050604085013567ffffffffffffffff811115620017a457620017a3620009b3565b5b620017b28782880162001594565b925050606085013567ffffffffffffffff811115620017d657620017d5620009b3565b5b620017e487828801620016cf565b91505092959194509250565b600060208284031215620018095762001808620009ae565b5b60006200181984828501620009d2565b91505092915050565b600061010083016000830151848203600086015262001842828262000b8d565b915050602083015184820360208601526200185e828262000c72565b915050604083015162001875604086018262000c3a565b5060608301516200188a606086018262000d4b565b5060808301516200189f608086018262000c3a565b5060a0830151620018b460a086018262000d68565b5060c0830151620018c960c086018262000d68565b5060e0830151620018de60e086018262000c3a565b508091505092915050565b6000602082019050818103600083015262001905818462001822565b905092915050565b620019188162001616565b82525050565b60006020820190506200193560008301846200190d565b92915050565b7f4e487b7100000000000000000000000000000000000000000000000000000000600052601160045260246000fd5b600062001977826200096c565b915062001984836200096c565b9250828210156200199a57620019996200193b565b5b828203905092915050565b7f4e487b7100000000000000000000000000000000000000000000000000000000600052603260045260246000fd5b6000620019e1826200096c565b91507fffffffffffffffffffffffffffffffffffffffffffffffffffffffffffffffff82141562001a175762001a166200193b565b5b600182019050919050565b600082825260208201905092915050565b600062001a408262000a9a565b62001a4c818562001a22565b93508360208202850162001a608562000ab6565b8060005b8581101562001aa2578484038952815162001a80858262000b6a565b945062001a8d8362000b80565b925060208a0199505060018101905062001a64565b50829750879550505050505092915050565b600082825260208201905092915050565b600062001ad28262000c0e565b62001ade818562001ab4565b935062001aeb8362000c2a565b8060005b8381101562001b2257815162001b06888262000c4b565b975062001b138362000c65565b92505060018101905062001aef565b5085935050505092915050565b600081519050919050565b600082825260208201905092915050565b6000819050602082019050919050565b62001b6681620009e9565b82525050565b600081519050919050565b600082825260208201905092915050565b6000819050602082019050919050565b600060408301600083015162001bb2600086018262001b5b565b506020830151848203602086015262001bcc828262000b29565b9150508091505092915050565b600062001be7838362001b98565b905092915050565b6000602082019050919050565b600062001c098262001b6c565b62001c15818562001b77565b93508360208202850162001c298562001b88565b8060005b8581101562001c6b578484038952815162001c49858262001bd9565b945062001c568362001bef565b925060208a0199505060018101905062001c2d565b50829750879550505050505092915050565b600060608301600083015162001c97600086018262001b5b565b506020830151848203602086015262001cb1828262000b29565b9150506040830151848203604086015262001ccd828262001bfc565b9150508091505092915050565b600062001ce8838362001c7d565b905092915050565b6000602082019050919050565b600062001d0a8262001b2f565b62001d16818562001b3a565b93508360208202850162001d2a8562001b4b565b8060005b8581101562001d6c578484038952815162001d4a858262001cda565b945062001d578362001cf0565b925060208a0199505060018101905062001d2e565b50829750879550505050505092915050565b600081519050919050565b600082825260208201905092915050565b6000819050602082019050919050565b62001db58162001616565b82525050565b600062001dc9838362001daa565b60208301905092915050565b6000602082019050919050565b600062001def8262001d7e565b62001dfb818562001d89565b935062001e088362001d9a565b8060005b8381101562001e3f57815162001e23888262001dbb565b975062001e308362001dd5565b92505060018101905062001e0c565b5085935050505092915050565b600060a08201905062001e63600083018862000976565b818103602083015262001e77818762001a33565b9050818103604083015262001e8d818662001ac5565b9050818103606083015262001ea3818562001cfd565b9050818103608083015262001eb9818462001de2565b90509695505050505050565b600082825260208201905092915050565b7f506f6c6c20646f65736e27742065786973742100000000000000000000000000600082015250565b600062001f0e60138362001ec5565b915062001f1b8262001ed6565b602082019050919050565b6000602082019050818103600083015262001f418162001eff565b9050919050565b600062001f5f62001f59846200111f565b62000f72565b90508281526020810184848401111562001f7e5762001f7d6200111a565b5b62001f8b84828562000ae2565b509392505050565b600082601f83011262001fab5762001faa62000f08565b5b815162001fbd84826020860162001f48565b91505092915050565b600062001fdd62001fd784620010eb565b62000f72565b9050808382526020820190506020840283018581111562002003576200200262000fc0565b5b835b818110156200205157805167ffffffffffffffff8111156200202c576200202b62000f08565b5b8086016200203b898262001f93565b8552602085019450505060208101905062002005565b5050509392505050565b600082601f83011262002073576200207262000f08565b5b81516200208584826020860162001fc6565b91505092915050565b6000815190506200209f81620009b8565b92915050565b6000620020bc620020b68462000f91565b62000f72565b90508083825260208201905060208402830185811115620020e257620020e162000fc0565b5b835b818110156200210f5780620020fa88826200208e565b845260208401935050602081019050620020e4565b5050509392505050565b600082601f83011262002131576200213062000f08565b5b815162002143848260208601620020a5565b91505092915050565b620021578162000d5c565b81146200216357600080fd5b50565b60008151905062002177816200214c565b92915050565b60008060008060008060c087890312156200219d576200219c620009ae565b5b600087015167ffffffffffffffff811115620021be57620021bd620009b3565b5b620021cc89828a016200205b565b965050602087015167ffffffffffffffff811115620021f057620021ef620009b3565b5b620021fe89828a0162002119565b95505060406200221189828a016200208e565b94505060606200222489828a016200208e565b93505060806200223789828a0162002166565b92505060a06200224a89828a016200208e565b9150509295509295509295565b60006020828403121562002270576200226f620009ae565b5b6000620022808482850162002166565b91505092915050565b6000815190506200229a816200162a565b92915050565b600060208284031215620022b957620022b8620009ae565b5b6000620022c98482850162002289565b91505092915050565b7f596f75277265206e6f7420656c696769626c6520666f72207468697320706f6c60008201527f6c21000000000000000000000000000000000000000000000000000000000000602082015250565b60006200233060228362001ec5565b91506200233d82620022d2565b604082019050919050565b60006020820190508181036000830152620023638162002321565b905091905056fe60806040523480156200001157600080fd5b506040516200308a3803806200308a833981810160405281019062000037919062000f5d565b83600790805190602001906200004f929190620004b7565b508260089080519060200190620000689291906200051e565b5080600a60000190805190602001906200008492919062000570565b50620000a081600a6200011860201b62000c141790919060201c565b620000be8260036009620001bd60201b62000cb2179092919060201c565b32600560006101000a81548173ffffffffffffffffffffffffffffffffffffffff021916908373ffffffffffffffffffffffffffffffffffffffff1602179055508460048190555042600681905550505050505062001153565b60005b81518160ff161015620001b8576001836001016000848460ff168151811062000149576200014862001061565b5b602002602001015173ffffffffffffffffffffffffffffffffffffffff1673ffffffffffffffffffffffffffffffffffffffff16815260200190815260200160002060006101000a81548160ff0219169083151502179055508080620001af90620010bf565b9150506200011b565b505050565b60005b82518160ff161015620004b15781600181600181540180825580915050039060005260206000205050836001816001815401808255809150500390600052602060002090505080848260ff168154811062000220576200021f62001061565b5b906000526020600020906003020160000160006101000a81548160ff021916908360ff160217905550828160ff168151811062000262576200026162001061565b5b602002602001015160200151848260ff168154811062000287576200028662001061565b5b90600052602060002090600302016001019080519060200190620002ad929190620005ff565b5060005b838260ff1681518110620002ca57620002c962001061565b5b602002602001015160400151518160ff1610156200049a57828260ff1681548110620002fb57620002fa62001061565b5b90600052602060002001600181600181540180825580915050039060005260206000205050848260ff168154811062000339576200033862001061565b5b90600052602060002090600302016002016001816001815401808255809150500390600052602060002090505080858360ff168154811062000380576200037f62001061565b5b90600052602060002090600302016002018260ff1681548110620003a957620003a862001061565b5b906000526020600020906002020160000160006101000a81548160ff021916908360ff160217905550838260ff1681518110620003eb57620003ea62001061565b5b6020026020010151604001518160ff16815181106200040f576200040e62001061565b5b602002602001015160200151858360ff168154811062000434576200043362001061565b5b90600052602060002090600302016002018260ff16815481106200045d576200045c62001061565b5b9060005260206000209060020201600101908051906020019062000483929190620005ff565b5080806200049190620010bf565b915050620002b1565b508080620004a890620010bf565b915050620001c0565b50505050565b8280548282559060005260206000209081019282156200050b579160200282015b828111156200050a578251829080519060200190620004f9929190620005ff565b5091602001919060010190620004d8565b5b5090506200051a919062000690565b5090565b8280548282559060005260206000209081019282156200055d579160200282015b828111156200055c5782518255916020019190600101906200053f565b5b5090506200056c9190620006b8565b5090565b828054828255906000526020600020908101928215620005ec579160200282015b82811115620005eb5782518260006101000a81548173ffffffffffffffffffffffffffffffffffffffff021916908373ffffffffffffffffffffffffffffffffffffffff1602179055509160200191906001019062000591565b5b509050620005fb9190620006b8565b5090565b8280546200060d906200111d565b90600052602060002090601f0160209004810192826200063157600085556200067d565b82601f106200064c57805160ff19168380011785556200067d565b828001600101855582156200067d579182015b828111156200067c5782518255916020019190600101906200065f565b5b5090506200068c9190620006b8565b5090565b5b80821115620006b45760008181620006aa9190620006d7565b5060010162000691565b5090565b5b80821115620006d3576000816000905550600101620006b9565b5090565b508054620006e5906200111d565b6000825580601f10620006f957506200071a565b601f016020900490600052602060002090810190620007199190620006b8565b5b50565b6000604051905090565b600080fd5b600080fd5b6000819050919050565b620007468162000731565b81146200075257600080fd5b50565b60008151905062000766816200073b565b92915050565b600080fd5b6000601f19601f8301169050919050565b7f4e487b7100000000000000000000000000000000000000000000000000000000600052604160045260246000fd5b620007bc8262000771565b810181811067ffffffffffffffff82111715620007de57620007dd62000782565b5b80604052505050565b6000620007f36200071d565b9050620008018282620007b1565b919050565b600067ffffffffffffffff82111562000824576200082362000782565b5b602082029050602081019050919050565b600080fd5b600080fd5b600067ffffffffffffffff8211156200085d576200085c62000782565b5b620008688262000771565b9050602081019050919050565b60005b838110156200089557808201518184015260208101905062000878565b83811115620008a5576000848401525b50505050565b6000620008c2620008bc846200083f565b620007e7565b905082815260208101848484011115620008e157620008e06200083a565b5b620008ee84828562000875565b509392505050565b600082601f8301126200090e576200090d6200076c565b5b815162000920848260208601620008ab565b91505092915050565b6000620009406200093a8462000806565b620007e7565b9050808382526020820190506020840283018581111562000966576200096562000835565b5b835b81811015620009b457805167ffffffffffffffff8111156200098f576200098e6200076c565b5b8086016200099e8982620008f6565b8552602085019450505060208101905062000968565b5050509392505050565b600082601f830112620009d657620009d56200076c565b5b8151620009e884826020860162000929565b91505092915050565b600067ffffffffffffffff82111562000a0f5762000a0e62000782565b5b602082029050602081019050919050565b600062000a3762000a3184620009f1565b620007e7565b9050808382526020820190506020840283018581111562000a5d5762000a5c62000835565b5b835b8181101562000a8a578062000a75888262000755565b84526020840193505060208101905062000a5f565b5050509392505050565b600082601f83011262000aac5762000aab6200076c565b5b815162000abe84826020860162000a20565b91505092915050565b600067ffffffffffffffff82111562000ae55762000ae462000782565b5b602082029050602081019050919050565b600080fd5b600080fd5b600060ff82169050919050565b62000b188162000b00565b811462000b2457600080fd5b50565b60008151905062000b388162000b0d565b92915050565b600067ffffffffffffffff82111562000b5c5762000b5b62000782565b5b602082029050602081019050919050565b60006040828403121562000b865762000b8562000af6565b5b62000b926040620007e7565b9050600062000ba48482850162000b27565b600083015250602082015167ffffffffffffffff81111562000bcb5762000bca62000afb565b5b62000bd984828501620008f6565b60208301525092915050565b600062000bfc62000bf68462000b3e565b620007e7565b9050808382526020820190506020840283018581111562000c225762000c2162000835565b5b835b8181101562000c7057805167ffffffffffffffff81111562000c4b5762000c4a6200076c565b5b80860162000c5a898262000b6d565b8552602085019450505060208101905062000c24565b5050509392505050565b600082601f83011262000c925762000c916200076c565b5b815162000ca484826020860162000be5565b91505092915050565b60006060828403121562000cc65762000cc562000af6565b5b62000cd26060620007e7565b9050600062000ce48482850162000b27565b600083015250602082015167ffffffffffffffff81111562000d0b5762000d0a62000afb565b5b62000d1984828501620008f6565b602083015250604082015167ffffffffffffffff81111562000d405762000d3f62000afb565b5b62000d4e8482850162000c7a565b60408301525092915050565b600062000d7162000d6b8462000ac7565b620007e7565b9050808382526020820190506020840283018581111562000d975762000d9662000835565b5b835b8181101562000de557805167ffffffffffffffff81111562000dc05762000dbf6200076c565b5b80860162000dcf898262000cad565b8552602085019450505060208101905062000d99565b5050509392505050565b600082601f83011262000e075762000e066200076c565b5b815162000e1984826020860162000d5a565b91505092915050565b600067ffffffffffffffff82111562000e405762000e3f62000782565b5b602082029050602081019050919050565b600073ffffffffffffffffffffffffffffffffffffffff82169050919050565b600062000e7e8262000e51565b9050919050565b62000e908162000e71565b811462000e9c57600080fd5b50565b60008151905062000eb08162000e85565b92915050565b600062000ecd62000ec78462000e22565b620007e7565b9050808382526020820190506020840283018581111562000ef35762000ef262000835565b5b835b8181101562000f20578062000f0b888262000e9f565b84526020840193505060208101905062000ef5565b5050509392505050565b600082601f83011262000f425762000f416200076c565b5b815162000f5484826020860162000eb6565b91505092915050565b600080600080600060a0868803121562000f7c5762000f7b62000727565b5b600062000f8c8882890162000755565b955050602086015167ffffffffffffffff81111562000fb05762000faf6200072c565b5b62000fbe88828901620009be565b945050604086015167ffffffffffffffff81111562000fe25762000fe16200072c565b5b62000ff08882890162000a94565b935050606086015167ffffffffffffffff8111156200101457620010136200072c565b5b620010228882890162000def565b925050608086015167ffffffffffffffff8111156200104657620010456200072c565b5b620010548882890162000f2a565b9150509295509295909350565b7f4e487b7100000000000000000000000000000000000000000000000000000000600052603260045260246000fd5b7f4e487b7100000000000000000000000000000000000000000000000000000000600052601160045260246000fd5b6000620010cc8262000b00565b915060ff821415620010e357620010e262001090565b5b600182019050919050565b7f4e487b7100000000000000000000000000000000000000000000000000000000600052602260045260246000fd5b600060028204905060018216806200113657607f821691505b602082108114156200114d576200114c620010ee565b5b50919050565b611f2780620011636000396000f3fe608060405234801561001057600080fd5b506004361061007d5760003560e01c806372b4ca471161005b57806372b4ca47146100ed5780638da5cb5b1461010c57806395084c6f1461012a578063e7b3387c1461014d5761007d565b8063041cc8ad146100825780631247ab21146100a157806366e305fd146100bd575b600080fd5b61008a61016b565b60405161009892919061135b565b60405180910390f35b6100bb60048036038101906100b691906113fa565b6103bf565b005b6100d760048036038101906100d291906114a5565b6107f2565b6040516100e491906114ed565b60405180910390f35b6100f5610865565b604051610103929190611679565b60405180910390f35b610114610a7b565b60405161012191906116b8565b60405180910390f35b610132610aa1565b60405161014496959493929190611853565b60405180910390f35b610155610c03565b60405161016291906118c2565b60405180910390f35b600060606101796000610f7c565b600980805480602002602001604051908101604052809291908181526020016000905b828210156103b157838290600052602060002090600302016040518060600160405290816000820160009054906101000a900460ff1660ff1660ff1681526020016001820180546101ec9061190c565b80601f01602080910402602001604051908101604052809291908181526020018280546102189061190c565b80156102655780601f1061023a57610100808354040283529160200191610265565b820191906000526020600020905b81548152906001019060200180831161024857829003601f168201915b5050505050815260200160028201805480602002602001604051908101604052809291908181526020016000905b8282101561039a57838290600052602060002090600202016040518060600160405290816000820160009054906101000a900460ff1660ff1660ff1681526020016000820160019054906101000a900463ffffffff1663ffffffff1663ffffffff1681526020016001820180546103099061190c565b80601f01602080910402602001604051908101604052809291908181526020018280546103359061190c565b80156103825780601f1061035757610100808354040283529160200191610382565b820191906000526020600020905b81548152906001019060200180831161036557829003601f168201915b50505050508152505081526020019060010190610293565b50505050815250508152602001906001019061019c565b505050509050915091509091565b6103c8336107f2565b610407576040517f08c379a00000000000000000000000000000000000000000000000000000000081526004016103fe906119c1565b60405180910390fd5b6001600260003373ffffffffffffffffffffffffffffffffffffffff1673ffffffffffffffffffffffffffffffffffffffff16815260200190815260200160002060009054906101000a900460ff1660ff1610610499576040517f08c379a000000000000000000000000000000000000000000000000000000000815260040161049090611a2d565b60405180910390fd5b60006008805490501461056b5760086000815481106104bb576104ba611a4d565b5b9060005260206000200154421015610508576040517f08c379a00000000000000000000000000000000000000000000000000000000081526004016104ff90611ac8565b60405180910390fd5b600860018154811061051d5761051c611a4d565b5b906000526020600020015442111561056a576040517f08c379a000000000000000000000000000000000000000000000000000000000815260040161056190611b34565b60405180910390fd5b5b60005b828290508160ff1610156106c757600160098260ff168154811061059557610594611a4d565b5b906000526020600020906003020160020184848460ff168181106105bc576105bb611a4d565b5b90506020020160208101906105d19190611b80565b60ff16815481106105e5576105e4611a4d565b5b906000526020600020906002020160000160018282829054906101000a900463ffffffff166106149190611bdc565b92506101000a81548163ffffffff021916908363ffffffff160217905550600160038260ff168154811061064b5761064a611a4d565b5b9060005260206000200184848460ff1681811061066b5761066a611a4d565b5b90506020020160208101906106809190611b80565b60ff168154811061069457610693611a4d565b5b9060005260206000200160008282546106ad9190611c16565b9250508190555080806106bf90611c6c565b91505061056e565b506106d26000610f8a565b33600160006106e16000610f7c565b815260200190815260200160002060006101000a81548173ffffffffffffffffffffffffffffffffffffffff021916908373ffffffffffffffffffffffffffffffffffffffff1602179055506001600260003373ffffffffffffffffffffffffffffffffffffffff1673ffffffffffffffffffffffffffffffffffffffff16815260200190815260200160002060008282829054906101000a900460ff166107899190611c96565b92506101000a81548160ff021916908360ff16021790555060036040516107b09190611e7e565b60405180910390206107c26000610f7c565b7fa34806eb7db81f4974fb635be044fa20f916ce557a232e581f2b1a12a65571bc60405160405180910390a35050565b600080600a60000180549050141561080d5760019050610860565b600a60010160008373ffffffffffffffffffffffffffffffffffffffff1673ffffffffffffffffffffffffffffffffffffffff16815260200190815260200160002060009054906101000a900460ff1690505b919050565b60006060600060098054905067ffffffffffffffff81111561088a57610889611e95565b5b6040519080825280602002602001820160405280156108bd57816020015b60608152602001906001900390816108a85790505b50905060005b6009805490508160ff161015610a6657600060098260ff16815481106108ec576108eb611a4d565b5b90600052602060002090600302016002018054905067ffffffffffffffff81111561091a57610919611e95565b5b6040519080825280602002602001820160405280156109485781602001602082028036833780820191505090505b50905060005b60098360ff168154811061096557610964611a4d565b5b9060005260206000209060030201600201805490508163ffffffff161015610a2f5760098360ff168154811061099e5761099d611a4d565b5b90600052602060002090600302016002018163ffffffff16815481106109c7576109c6611a4d565b5b906000526020600020906002020160000160019054906101000a900463ffffffff16828263ffffffff1681518110610a0257610a01611a4d565b5b602002602001019063ffffffff16908163ffffffff16815250508080610a2790611ec4565b91505061094e565b5080838360ff1681518110610a4757610a46611a4d565b5b6020026020010181905250508080610a5e90611c6c565b9150506108c3565b50610a716000610f7c565b8192509250509091565b600560009054906101000a900473ffffffffffffffffffffffffffffffffffffffff1681565b60608060008060008060076008600654610abb6000610f7c565b6000600a600001805490501460045485805480602002602001604051908101604052809291908181526020016000905b82821015610b97578382906000526020600020018054610b0a9061190c565b80601f0160208091040260200160405190810160405280929190818152602001828054610b369061190c565b8015610b835780601f10610b5857610100808354040283529160200191610b83565b820191906000526020600020905b815481529060010190602001808311610b6657829003601f168201915b505050505081526020019060010190610aeb565b50505050955084805480602002602001604051908101604052809291908181526020018280548015610be857602002820191906000526020600020905b815481526020019060010190808311610bd4575b50505050509450955095509550955095509550909192939495565b6000610c0f6000610f7c565b905090565b60005b81518160ff161015610cad576001836001016000848460ff1681518110610c4157610c40611a4d565b5b602002602001015173ffffffffffffffffffffffffffffffffffffffff1673ffffffffffffffffffffffffffffffffffffffff16815260200190815260200160002060006101000a81548160ff0219169083151502179055508080610ca590611c6c565b915050610c17565b505050565b60005b82518160ff161015610f765781600181600181540180825580915050039060005260206000205050836001816001815401808255809150500390600052602060002090505080848260ff1681548110610d1157610d10611a4d565b5b906000526020600020906003020160000160006101000a81548160ff021916908360ff160217905550828160ff1681518110610d5057610d4f611a4d565b5b602002602001015160200151848260ff1681548110610d7257610d71611a4d565b5b90600052602060002090600302016001019080519060200190610d96929190610fa0565b5060005b838260ff1681518110610db057610daf611a4d565b5b602002602001015160400151518160ff161015610f6257828260ff1681548110610ddd57610ddc611a4d565b5b90600052602060002001600181600181540180825580915050039060005260206000205050848260ff1681548110610e1857610e17611a4d565b5b90600052602060002090600302016002016001816001815401808255809150500390600052602060002090505080858360ff1681548110610e5c57610e5b611a4d565b5b90600052602060002090600302016002018260ff1681548110610e8257610e81611a4d565b5b906000526020600020906002020160000160006101000a81548160ff021916908360ff160217905550838260ff1681518110610ec157610ec0611a4d565b5b6020026020010151604001518160ff1681518110610ee257610ee1611a4d565b5b602002602001015160200151858360ff1681548110610f0457610f03611a4d565b5b90600052602060002090600302016002018260ff1681548110610f2a57610f29611a4d565b5b90600052602060002090600202016001019080519060200190610f4e929190610fa0565b508080610f5a90611c6c565b915050610d9a565b508080610f6e90611c6c565b915050610cb5565b50505050565b600081600001549050919050565b6001816000016000828254019250508190555050565b828054610fac9061190c565b90600052602060002090601f016020900481019282610fce5760008555611015565b82601f10610fe757805160ff1916838001178555611015565b82800160010185558215611015579182015b82811115611014578251825591602001919060010190610ff9565b5b5090506110229190611026565b5090565b5b8082111561103f576000816000905550600101611027565b5090565b6000819050919050565b61105681611043565b82525050565b600081519050919050565b600082825260208201905092915050565b6000819050602082019050919050565b600060ff82169050919050565b61109e81611088565b82525050565b600081519050919050565b600082825260208201905092915050565b60005b838110156110de5780820151818401526020810190506110c3565b838111156110ed576000848401525b50505050565b6000601f19601f8301169050919050565b600061110f826110a4565b61111981856110af565b93506111298185602086016110c0565b611132816110f3565b840191505092915050565b600081519050919050565b600082825260208201905092915050565b6000819050602082019050919050565b600063ffffffff82169050919050565b61118281611169565b82525050565b60006060830160008301516111a06000860182611095565b5060208301516111b36020860182611179565b50604083015184820360408601526111cb8282611104565b9150508091505092915050565b60006111e48383611188565b905092915050565b6000602082019050919050565b60006112048261113d565b61120e8185611148565b93508360208202850161122085611159565b8060005b8581101561125c578484038952815161123d85826111d8565b9450611248836111ec565b925060208a01995050600181019050611224565b50829750879550505050505092915050565b60006060830160008301516112866000860182611095565b506020830151848203602086015261129e8282611104565b915050604083015184820360408601526112b882826111f9565b9150508091505092915050565b60006112d1838361126e565b905092915050565b6000602082019050919050565b60006112f18261105c565b6112fb8185611067565b93508360208202850161130d85611078565b8060005b85811015611349578484038952815161132a85826112c5565b9450611335836112d9565b925060208a01995050600181019050611311565b50829750879550505050505092915050565b6000604082019050611370600083018561104d565b818103602083015261138281846112e6565b90509392505050565b600080fd5b600080fd5b600080fd5b600080fd5b600080fd5b60008083601f8401126113ba576113b9611395565b5b8235905067ffffffffffffffff8111156113d7576113d661139a565b5b6020830191508360208202830111156113f3576113f261139f565b5b9250929050565b600080602083850312156114115761141061138b565b5b600083013567ffffffffffffffff81111561142f5761142e611390565b5b61143b858286016113a4565b92509250509250929050565b600073ffffffffffffffffffffffffffffffffffffffff82169050919050565b600061147282611447565b9050919050565b61148281611467565b811461148d57600080fd5b50565b60008135905061149f81611479565b92915050565b6000602082840312156114bb576114ba61138b565b5b60006114c984828501611490565b91505092915050565b60008115159050919050565b6114e7816114d2565b82525050565b600060208201905061150260008301846114de565b92915050565b600081519050919050565b600082825260208201905092915050565b6000819050602082019050919050565b600081519050919050565b600082825260208201905092915050565b6000819050602082019050919050565b600061156c8383611179565b60208301905092915050565b6000602082019050919050565b600061159082611534565b61159a818561153f565b93506115a583611550565b8060005b838110156115d65781516115bd8882611560565b97506115c883611578565b9250506001810190506115a9565b5085935050505092915050565b60006115ef8383611585565b905092915050565b6000602082019050919050565b600061160f82611508565b6116198185611513565b93508360208202850161162b85611524565b8060005b85811015611667578484038952815161164885826115e3565b9450611653836115f7565b925060208a0199505060018101905061162f565b50829750879550505050505092915050565b600060408201905061168e600083018561104d565b81810360208301526116a08184611604565b90509392505050565b6116b281611467565b82525050565b60006020820190506116cd60008301846116a9565b92915050565b600081519050919050565b600082825260208201905092915050565b6000819050602082019050919050565b600061170b8383611104565b905092915050565b6000602082019050919050565b600061172b826116d3565b61173581856116de565b935083602082028501611747856116ef565b8060005b85811015611783578484038952815161176485826116ff565b945061176f83611713565b925060208a0199505060018101905061174b565b50829750879550505050505092915050565b600081519050919050565b600082825260208201905092915050565b6000819050602082019050919050565b6117ca81611043565b82525050565b60006117dc83836117c1565b60208301905092915050565b6000602082019050919050565b600061180082611795565b61180a81856117a0565b9350611815836117b1565b8060005b8381101561184657815161182d88826117d0565b9750611838836117e8565b925050600181019050611819565b5085935050505092915050565b600060c082019050818103600083015261186d8189611720565b9050818103602083015261188181886117f5565b9050611890604083018761104d565b61189d606083018661104d565b6118aa60808301856114de565b6118b760a083018461104d565b979650505050505050565b60006020820190506118d7600083018461104d565b92915050565b7f4e487b7100000000000000000000000000000000000000000000000000000000600052602260045260246000fd5b6000600282049050600182168061192457607f821691505b60208210811415611938576119376118dd565b5b50919050565b600082825260208201905092915050565b7f596f75277265206e6f7420656c696769626c6520666f72207468697320706f6c60008201527f6c21000000000000000000000000000000000000000000000000000000000000602082015250565b60006119ab60228361193e565b91506119b68261194f565b604082019050919050565b600060208201905081810360008301526119da8161199e565b9050919050565b7f596f7527766520766f74656420616c7265616479210000000000000000000000600082015250565b6000611a1760158361193e565b9150611a22826119e1565b602082019050919050565b60006020820190508181036000830152611a4681611a0a565b9050919050565b7f4e487b7100000000000000000000000000000000000000000000000000000000600052603260045260246000fd5b7f506f6c6c20686173206e6f742073746172746564000000000000000000000000600082015250565b6000611ab260148361193e565b9150611abd82611a7c565b602082019050919050565b60006020820190508181036000830152611ae181611aa5565b9050919050565b7f506f6c6c20686173206e6f7420656e6465640000000000000000000000000000600082015250565b6000611b1e60128361193e565b9150611b2982611ae8565b602082019050919050565b60006020820190508181036000830152611b4d81611b11565b9050919050565b611b5d81611088565b8114611b6857600080fd5b50565b600081359050611b7a81611b54565b92915050565b600060208284031215611b9657611b9561138b565b5b6000611ba484828501611b6b565b91505092915050565b7f4e487b7100000000000000000000000000000000000000000000000000000000600052601160045260246000fd5b6000611be782611169565b9150611bf283611169565b92508263ffffffff03821115611c0b57611c0a611bad565b5b828201905092915050565b6000611c2182611043565b9150611c2c83611043565b9250827fffffffffffffffffffffffffffffffffffffffffffffffffffffffffffffffff03821115611c6157611c60611bad565b5b828201905092915050565b6000611c7782611088565b915060ff821415611c8b57611c8a611bad565b5b600182019050919050565b6000611ca182611088565b9150611cac83611088565b92508260ff03821115611cc257611cc1611bad565b5b828201905092915050565b600081549050919050565b600081905092915050565b60008190508160005260206000209050919050565b600081549050919050565b600081905092915050565b60008190508160005260206000209050919050565b611d2c81611043565b82525050565b6000611d3e8383611d23565b60208301905092915050565b60008160001c9050919050565b6000819050919050565b6000611d74611d6f83611d4a565b611d57565b9050919050565b6000611d878254611d61565b9050919050565b6000600182019050919050565b6000611da682611cf8565b611db08185611d03565b9350611dbb83611d0e565b8060005b83811015611df357611dd082611d7b565b611dda8882611d32565b9750611de583611d8e565b925050600181019050611dbf565b5085935050505092915050565b6000611e0c8383611d9b565b905092915050565b6000600182019050919050565b6000611e2c82611ccd565b611e368185611cd8565b9350611e4183611ce3565b8060005b83811015611e715781611e588882611e00565b9750611e6383611e14565b925050600181019050611e45565b5085935050505092915050565b6000611e8a8284611e21565b915081905092915050565b7f4e487b7100000000000000000000000000000000000000000000000000000000600052604160045260246000fd5b6000611ecf82611169565b915063ffffffff821415611ee657611ee5611bad565b5b60018201905091905056fea264697066735822122020a898c50a340811c7b0ae3fa0345546e32b474c0cbe31ab29921d2f5176a50564736f6c63430008090033a26469706673582212209a68300b75a532e512f4d9d7c404da864ff8f43457cbac2644201d55a2c5227564736f6c63430008090033",
  "linkReferences": {},
  "deployedLinkReferences": {}
}